:020000040800F2
:10000000084F00205D020008031E0008BD1B000809
:10001000FB1D000871050008DB210008000000003E
:100020000000000000000000000000009D0100082A
:100030002506000800000000F9010008051E000860
:1000400077020008770200087702000877020008AC
:10005000770200087702000877020008770200089C
:10006000770200087702000877020008770200088C
:10007000770200087702000877020008770200087C
:10008000770200087702000877020008770200086C
:10009000770200087702000877020008770200085C
:1000A000770200087702000877020008770200084C
:1000B000770200087702000877020008770200083C
:1000C000770200087702000877020008770200082C
:1000D000770200087702000877020008770200081C
:1000E000770200087702000877020008770200080C
:1000F00077020008770200087702000877020008FC
:1001000077020008770200087702000877020008EB
:100110007702000877020008C91E0008770200086D
:1001200075050008770200087702000877020008CA
:1001300077020008770200087702000877020008BB
:1001400077020008770200087702000877020008AB
:10015000770200087702000877020008770200089B
:10016000770200087702000877020008770200088B
:1001700077020008770200087702000800000000FC
:100180007702000877020008DFF80CD000F002F9CF
:100190000048004721240008084F00202C4B196814
:1001A0000868B0E8F04F80F30988BFF36F8F4FF015
:1001B000000080F3118870470000000008480068C4
:1001C000006880F308884FF0000080F3148862B65E
:1001D00061B6BFF34F8FBFF36F8F00DF00BF00BF6B
:1001E00008ED00E0DFF80C00016841F470010160E7
:1001F000704700BF88ED00E0EFF30980BFF36F8F19
:10020000134B1A681EF0100F08BF20ED108A20E96A
:10021000F04F106009B44FF0500080F31188BFF325
:100220004F8FBFF36F8F03F081F84FF0000080F322
:10023000118809BC19680868B0E8F04F1EF0100F6B
:1002400008BFB0EC108A80F30988BFF36F8F704746
:100250001C000020EFF3058070470000064880472F
:1002600006480047FEE7FEE7FEE7FEE7FEE7FEE79B
:10027000FEE7FEE7FEE7FEE7B91E00088901000879
:100280002DE9F05F0546002092469B4688460646CB
:10029000814640241BE0284641464746224600F05E
:1002A00069F853465A46C01A914110D31146184670
:1002B000224600F050F82D1A67EB01084F462246FF
:1002C0000120002100F047F817EB00094E41201EE5
:1002D000A4F10104DFDC484631462A464346BDE826
:1002E000F09F40EA01039B0703D009E008C9121FF1
:1002F00008C0042AFAD203E011F8013B00F8013BE0
:10030000521EF9D27047D2B201E000F8012B491E0B
:10031000FBD270470022F6E710B513460A460446A2
:100320001946FFF7F0FF204610BD30B50B460146D9
:1003300000202022012409E021FA02F59D4205D384
:1003400003FA02F5491B04FA02F52844151EA2F12E
:100350000102F1DC30BD202A04DB203A00FA02F170
:10036000002070479140C2F1200320FA03F31943A3
:1003700090407047202A04DB203A21FA02F0002145
:10038000704721FA02F3D040C2F1200291400843A5
:1003900019467047064C074D06E0E06840F001033F
:1003A00094E8070098471034AC42F6D3FFF7F0FE0C
:1003B0000C3E00082C3E000810B50146806B026C14
:1003C00012F0500F05D0026CD20626D500F0F3F9DA
:1003D00010BD016C41F40071016401688A6812F07B
:1003E000405F17D1027EAAB9CA6A12F4700F02D018
:1003F0008A6852050ED44A6822F020024A60016CD5
:1004000021F480710164016CC90403D4016C41F0D2
:100410000101016400F0B0F910BD806BC26CBDE851
:1004200010400846104710B5806B40210164416CB4
:1004300041F00401416400F0BEF910BD10B5806BBD
:1004400000F0B8F910BD0000464910B54A6822F422
:1004500040324A604A6843681A434A6001684A6801
:1004600022F480724A6001684A68036942EA032202
:100470004A6001684A6822F040724A6001684A682E
:1004800083681A434A6001688A6822F400628A60BD
:1004900001688A68C3681A438A60816A6FF0706273
:1004A000D14201688A6822F070628A6001688A68B5
:1004B0000CD0836A1A438A6001688A6822F040522D
:1004C0008A6001688A68C36A1A4301E022F04052D8
:1004D0008A6001688A6822F002028A6001688A687C
:1004E000037E42EA43028A6090F8201000290168E6
:1004F0004A680FD042F400624A6001684A6822F4F8
:1005000060424A6001684A68174C436A04EB43330F
:100510001A4301E022F400624A600168CA6A22F4C8
:100520007002CA620168CA6A838B104C04EB0353E1
:100530001A43CA6201688A6822F400728A600168FC
:100540008A6890F8303042EA43228A6001688A68FB
:1005500022F480628A6001688A68406942EA8020E9
:10056000886010BD0023014000E0FFFF0000F0FFA5
:10057000FEE70000014800F043BA0000F800002048
:1005800001681823CAB2103AB2FBF3F2054B6FF3BD
:100590000901032A9B5CC36500D9091D81650846D2
:1005A00070470000DC3D000810B5014600208B6953
:1005B0008A6A4FF0C07453B1B3F5005F15D072B1C1
:1005C000012A0CD0022A0AD0032A09D104E01AB168
:1005D000012A06D0022A03D1C96AC90100D5012027
:1005E00010BDC96AA142FAD010BD002AF7D0012A75
:1005F000F2D0022AF3D0032AF3D010BD30B504683C
:10060000256825F480252560046863608368402B95
:10061000036803D099600068C26030BD9A600068CA
:10062000C16030BD704772B6FEE7000078B50024A7
:10063000009490F83C20012A19D0012280F83C2037
:100640000A6807230568092A13D9EE680A3A02EBFB
:10065000420293409E43EE600B788A680A3B03EBAC
:1006600043039A400368DD682A43DA6010E0022001
:1006700078BD2E6902EB420293409E432E610B78B7
:100680008A6803EB43039A4003681D692A431A6191
:100690004A681F23072A13D205686E6B521E02EBAD
:1006A000820293409E436E630B790A885B1E92B26E
:1006B00003EB83039A4003685D6B2A435A6327E088
:1006C00005680D2A12D22E6BD21F02EB82029340D4
:1006D0009E432E630B790A88DB1F92B203EB8303E0
:1006E0009A4003681D6B2A431A6311E0EE6A0D3AC3
:1006F00002EB820293409E43EE620B790A880D3B27
:1007000092B203EB83039A400368DD6A2A43DA62FC
:10071000164B0568144A9D4206D10D68122D03D16F
:10072000556845F48005556005689D4218D10B68F1
:10073000102B01D0112B13D1536843F400035360E5
:10074000096810290CD10A490A4A0968B1FBF2F17B
:1007500001EB8101490000E0491E00910029FBD115
:1007600080F83C40002078BD00230140002001407B
:100770001800002040420F0008B5002100910068D9
:10078000094988420FD109486946006802F0F6FC21
:100790000098002807D006494FF080500860BFF34A
:1007A0004F8FBFF36F8F08BD002001400000002075
:1007B00004ED00E07047704770B504004FF000058D
:1007C00003D0206C002610B107E0012070BD204648
:1007D00000F01CF8666484F83C60206CC00610D4FD
:1007E000206C20F4885040F0020020642046FFF77F
:1007F0002BFE6664206C20F0020040F001002064B3
:1008000000E0012584F83C60284670BD70B586B0D4
:10081000064614216846FFF77DFD1E493068884270
:1008200035D11D480025016841F4807101600068E0
:1008300000F48070059018481438016841F00101F7
:1008400001600068694600F001000590F02000900A
:100850000320CDE90105114800F044FA114C10487D
:10086000C4E900050015A560C4E90350800060617B
:100870008000A0618011E0610002C4E90805204603
:1008800000F08EF908B1FFF7CEFEB463A66306B0A0
:1008900070BD0000002001404438024000000240CA
:1008A00010640240F8000020F8B50E46002104460E
:1008B000009190F83C0013460A46012807D0012019
:1008C00084F83C0020688568ED0702D011E0022022
:1008D000F8BD856845F0010585604048404D0068D9
:1008E000B0FBF5F000EB400000E0401E0090002857
:1008F000FBD120688568ED0503D5856825F48075F2
:10090000856020688568ED075DD0226C40F2016546
:10091000AA4342F4807222644068400505D5206CE9
:1009200020F4005040F480502064206CC00404D5B2
:10093000606C20F00600606400E0616484F83C10A4
:10094000A16B2948274DC863A16B28480864A16B97
:100950002748C86421686FF0220008602068416859
:1009600041F0806141602068816841F4807181605C
:10097000216832464C31A06B00F07CF90246686871
:100980001C49C006206806D0884224D1816811F035
:10099000405F13D01FE08842F8D0174B984203D134
:1009A000D1F80433DB06F1D0144B984213D1D1F8BF
:1009B000041301F01F011029E8D30CE0816841F015
:1009C0008041816007E0206C40F010002064606C82
:1009D00040F0010060641046F8BD000018000020DF
:1009E00040420F0000230140B90300083D04000805
:1009F000270400080020014000210140002201409E
:100A00002DE9F84304464FF00009CDF80090634803
:100A10004FF41651A56D0068B0FBF1F72E6894F8FD
:100A20005C10082000FA01F131420FD021680A68F9
:100A300052070BD50A6822F004020A6094F85C1091
:100A40008840A860606D40F00100606594F85C101B
:100A50004FF0010808FA01F0304208D021684969D6
:100A6000090604D5A860606D40F00200606594F846
:100A70005C1004208840304208D02168096889074A
:100A800004D5A860606D40F00400606594F85C10C7
:100A900010208840304218D021680968090714D511
:100AA000A86020680168490304D50068000308D5E0
:100AB000A16C07E00168C90503D4016821F00801B1
:100AC0000160216C09B12046884794F85C10202011
:100AD0008840304231D021680968C9062DD5A86008
:100AE00094F8350005282068016806D0490347D5E9
:100AF000006800031DD4616C1CE021F01601016048
:100B00002068416921F080014161206C08B9A06C26
:100B100020B12068016821F00801016094F85C10A0
:100B20003F208840A86084F8358084F83490216D97
:100B30001FE0E16B09B120468847606D00282BD08B
:100B4000606DC00714D0052084F835002068016866
:100B500021F0010101600098401C0090B84203D8C8
:100B600020680068C007F6D184F8358084F8349096
:100B7000E16C002910D001B02046BDE8F0430847E1
:100B80000168C905D5D4016821F01001016084F81D
:100B9000358084F83490CCE7BDE8F8831800002055
:100BA0002DE9F041044600F0A3F906465CB10220AD
:100BB00084F83500002584F834502068016821F05D
:100BC000010101600DE00120BDE8F08100F090F925
:100BD000801B052805D920206065032084F8350096
:100BE000F2E720680068C007F0D122681168204849
:100BF0000140D4E901031843D4E9033633431843D1
:100C000063691843A3691843E3691843236A1843C7
:100C10000843616A042903D1D4E90B13194308433B
:100C2000106020684069666A20F0070130460E4374
:100C3000012704280CD1A06A0643E06A40B120468F
:100C4000FFF7B2FC20B14020606584F83570BAE748
:100C5000206846612046FFF793FC94F85C203F2112
:100C600091408160656584F835700020ACE7000034
:100C70003F8010F02DE9F0410446866D90F8340075
:100C8000002501280DD0012084F8340094F8357037
:100C90000020012F07D084F8340002252846BDE843
:100CA000F0810220FBE7022784F83570606520465A
:100CB000FFF7A4FC94F85C103F208840B0602068E7
:100CC000016841F016010160206C20B120680168C4
:100CD00041F0080101602068016841F001010160F4
:100CE000DCE700002DE9F84FDFF8BCA10022012568
:100CF00003264FF00F090AF1040BAAF1040E00BFFE
:100D00000B6805FA02F42340A34270D10F7907F073
:100D10000307012F01D0022F16D187684FEA42083E
:100D200006FA08FC27EA0C07D1F80CC00CFA08FCFC
:100D30004CEA070CC0F808C04768A7430C79C4F315
:100D4000001494403C4344600C79E443A4070AD067
:100D5000C4684FEA420C06FA0CF7BC438F6807FAE6
:100D60000CF72743C7600C7904F00304022C12D15E
:100D7000D40800EB840CDCF820405707FF0E09FA7A
:100D800007F824EA0804D1F8108008FA07F848EABE
:100D90000408CCF8208004684FEA420C06FA0CF7ED
:100DA000BC430F7907F0030707FA0CF727430760E6
:100DB0004C6814F4403F70D03C4C276847F480479F
:100DC0002760246822F0030704F480440094384C20
:100DD00007EB040CDCF8084897074FEA177809FA84
:100DE00008F7BC43334FB84202D1002724E054E057
:100DF000314FB84201D101271EE0304FB84201D136
:100E0000022719E02E4FB84201D1032714E02D4FDD
:100E1000B84201D104270FE02B4FB84201D105277A
:100E20000AE02A4FB84201D1062705E0284FB84210
:100E300001D1072700E0082707FA08F72743CCF875
:100E40000878DAF800405746D1F804C09C435FEABE
:100E5000CC2C00D51C433C60DBF800405F46D1F849
:100E600004C09C435FEA8C2C00D51C433C60DEF838
:100E700000407746D1F804C09C435FEA8C3C00D523
:100E80001C433C60084F083F3C68D1F804C09C43B9
:100E90005FEACC3C00D51C433C60521C102AFFF496
:100EA0002FAFBDE8F88F0000083C014044380240F5
:100EB00000300140000002400004024000080240EF
:100EC000000C0240001002400014024000180240D2
:100ED000001C0240426921EA02030A4043EA02413F
:100EE000816170470AB1816170470904FBE7000026
:100EF00001488068704700000C00002002488168AB
:100F000002781144816070470C0000200B4810B536
:100F1000016841F400710160016841F48061016081
:100F2000016841F480710160032000F09FF80F20F8
:100F300000F006F800F050F8002010BD003C024020
:100F400030B505461F4887B00024016841F0100104
:100F50000160006806A900F01000009001A800F0F0
:100F600031F90498A8B100F04DF940001649174A2C
:100F7000B0FBF1F11648491E026040F2E732C0E9C9
:100F80000324C0E90114846100F08CFB040003D049
:100F900015E000F037F9E9E70D4800F001FC040026
:100FA0000DD1362000F034F8102D07D2002229464A
:100FB000362000F03BF80748056000E0012407B048
:100FC000204630BD4038024040420F000010004033
:100FD000E8010020100000200C4882B0016841F4B4
:100FE00080410160006800F4804000900748001FC5
:100FF000016841F0805101600068002200F08050DB
:1010000000900F21901E02B000F010B8443802404A
:10101000002809DB00F01F020121914040098000F7
:1010200000F1E020C0F8001170470000F0B40E4B52
:101030001B680C46C3F30223C3F10705042D00D936
:101040000425191D072901D2002300E0DB1E01261B
:1010500006FA05F1491E214099409E40761E164031
:101060003143F0BC01F0CAB80CED00E0064900F0D5
:10107000070208684FF6FF03184040EA0220034ABF
:1010800010430860704700000CED00E00000FA0516
:101090002DE9F0470E46050065D0DFF81481D8F839
:1010A0000000F7B200F00700B04207D288F80070E5
:1010B000D8F8000000F00700B04254D128683D4C39
:1010C000810712D5400703D5206840F4E050206026
:1010D0002878000703D5206840F46040206020682D
:1010E000A96820F0F000084320602878C0072DD0C0
:1010F000304968680839012812D0022813D0032823
:1011000011D00968890700292DDA216821F003012F
:1011100001432160FFF7ECFE814641F2883A0EE080
:1011200009688903EFE709688901ECE7FFF7E0FE4A
:10113000A0EB0901514502D90320BDE8F0872068E2
:10114000696800F00C00B0EB810FEFD1D8F8001007
:10115000404601F00701B14207D90770006800F06E
:101160000700B04201D00120E7E72878400705D505
:101170002068E96820F4E0500843206028780007E0
:1011800006D52068296920F4604040EAC10020604B
:1011900000F058F82168084AC1F30311515CC840B7
:1011A0000649086006480068FFF7CAFE0020C4E749
:1011B000003C024008380240E43D000818000020CE
:1011C000100000200F2202600C4A136803F0030392
:1011D0004360136803F0F0038360136803F4E05383
:1011E000C36012684FF4E05303EAD202026104487C
:1011F000006800F0070008607047000008380240EF
:10120000003C02400448054900680968044AC1F3EB
:101210008221515CC8407047180000200838024005
:10122000F43D00080448054900680968044AC1F310
:101230004231515CC8407047180000200838024015
:10124000F43D0008154810B5006810F00C02144871
:1012500013D04110042A0FD0082A0ED10F4C241F9E
:101260002268236802F03F025B0207D52068C0F3C2
:101270008810A0FB010106E0084610BD2168C1F3FB
:101280008811A1FB00010023FEF7FAFF2168C1F3DA
:101290000141491C4900B0FBF1F010BD0838024083
:1012A0000024F4002DE9F84F04006ED02078DFF818
:1012B0004C93C007A9F104054AD009F10400016864
:1012C000C1F38101012908D00068C0F38100022820
:1012D0000AD1D9F80000400206D52868800337D526
:1012E00060680028E1D033E06068B0F5803F10D03E
:1012F000B0F5A02F286810D020F48030286028682E
:1013000020F4802028606068A8B1FFF7F1FD064650
:101310000DE0286840F48030F4E740F48020286035
:10132000F7E700BFFFF7E4FD801B642873D8286847
:101330008003F7D50CE0FFF7DBFD064605E000BFB4
:10134000FFF7D6FD801B6428F0D828688003F7D407
:101350002078DFF8AC8280074FF0000A3ED5A7481E
:10136000001D016811F00C0F08D00068C0F3810067
:1013700002280BD1D9F80000400207D42868800762
:1013800016D5E068012800D112E033E1E068B8B179
:101390000120C8F80000FFF7ABFD064605E000BFDE
:1013A000FFF7A6FD801B0228C0D828688007F7D564
:1013B0002868216920F0F80040EAC10028600DE0AB
:1013C000C8F800A0FFF794FD064604E0FFF790FD83
:1013D000801B02281FD828688007F7D420780007D0
:1013E00022D5864F87486169703771B1012101604C
:1013F000FFF77EFD064604E0FFF77AFD801B02281A
:1014000009D838688007F7D50EE0C0F800A0FFF7CC
:101410006FFD064605E082E0FFF76AFD801B0228AB
:101420007DD838688007F7D42078400768D5DFF882
:10143000CCB100270BF13C0BDBF80000C0000BD453
:10144000DBF8001041F08051CBF80010DBF8000011
:10145000012700F0805000906B4E3068C00510D41A
:10146000306840F480703060FFF742FD009005E086
:10147000FFF73EFD0099401A022850D83068C00599
:10148000F6D55E4EA0686C3601280FD0052830686E
:1014900010D020F001003060306820F0040030608F
:1014A000A068B8B1FFF724FD00900FE0306840F06D
:1014B0000100F4E740F004003060F7E7FFF718FDA3
:1014C0000099411A41F28830814266D8306880071D
:1014D000F4D50EE0FFF70CFD009007E0FFF708FDE4
:1014E0000099411A41F28830814256D8306880070D
:1014F000F4D42FB1DBF8001021F08051CBF80010AC
:10150000A069C8B33D49091D0968C1F381010229D9
:101510004AD00228504607D0C8F8600000E03CE0FE
:10152000FFF7E6FC04463BE04746C8F86000FFF7DB
:10153000DFFC064605E000BFFFF7DAFC801B02284F
:101540002BD828688001F7D4D4E907010843A16AA1
:101550002E4A490802EB0141626A41EA82110843BE
:1015600094F82C1040EA0161C9F800100120386697
:10157000FFF7BEFC044606E03EE000BFFFF7B8FC04
:10158000001B022809D828688001F7D534E000BF85
:10159000FFF7AEFC001B022802D90320BDE8F88F3C
:1015A00028688001F4D427E00128F7D0D9F800009A
:1015B000E26900F4800191421CD1226A00F03F01EF
:1015C000914217D147F6C071626A0140B1EB821FA8
:1015D00010D1A26A4FF0FF3300F4403103EB520206
:1015E000B1EB024F06D194F82C1000F07060B0EB14
:1015F000016F01D00120D1E70020CFE7043802407D
:1016000000004742800E4742007000400000FFFF8C
:101610007047704770B590F83C20012A32D0012401
:1016200080F83C40022280F83D2003685A689D689B
:1016300022F070060A6832435A60134B02689A42DD
:1016400014D0B2F1804F11D0104B9A420ED0104BF3
:101650009A420BD00F4B9A4208D00F4B9A4205D0BA
:101660000E4B9A4202D00E4B9A4204D1496825F0A3
:1016700080031943916080F83D40002180F83C10C0
:10168000084670BD022070BD00000140000400400B
:1016900000080040000C00400004014000400140F0
:1016A0000018004010B5040003D094F83D0010B1BC
:1016B00007E0012010BD002084F83C00204600F027
:1016C0001FF8022084F83D00211D206800F002FC74
:1016D000012084F8460084F83E0084F83F0084F836
:1016E000400084F8410084F8420084F8430084F804
:1016F000440084F8450084F83D00002010BD00003F
:1017000008B500680649884208D10648016841F0DA
:1017100002010160006800F00200009008BD0000B6
:10172000000400404038024090F83D10012901D0EB
:1017300001207047022180F83D100068114988425D
:1017400014D0B0F1804F11D00F4988420ED00F490C
:1017500088420BD00E49884208D00E49884205D0F5
:101760000D49884202D00D49884204D1816801F0B8
:101770000701062903D0016841F001010160002042
:1017800070470000000001400004004000080040D5
:10179000000C0040000401400040014000180040DF
:1017A00090F83D10012901D001207047022180F8F6
:1017B0003D100168CA6842F00102CA600068114920
:1017C000884214D0B0F1804F11D00F4988420ED01A
:1017D0000E4988420BD00E49884208D00D498842F4
:1017E00005D00D49884202D00C49884204D1816855
:1017F00001F00701062903D0016841F001010160F1
:101800000020704700000140000400400008004034
:10181000000C00400004014000400140001800405E
:1018200070B5044690F83C000025012817D0012629
:1018300084F83C60022084F83D002068826822F031
:10184000770222F47F4282600868502838D00DDC8D
:1018500020284FD005DC90B3102811D14AE0022097
:1018600070BD302846D040280AD13BE060282FD0F8
:1018700070280DD0B0F5805F03D0B0F5005F12D0B6
:10188000012584F83D60002084F83C00284670BDA6
:10189000CB68D1E90121206800F084FB20688168D1
:1018A00041F0770109E0CB68D1E90121206800F01F
:1018B00079FB2068816841F480418160E1E719E0AB
:1018C000CA684968206800F07FFB5021206806E064
:1018D000CA684968206800F088FB6021206800F031
:1018E0006BFBCEE7CA684968206800F06DFB4021B9
:1018F0002068F4E7226801461046F0E770472DE9BA
:10190000F04104460068C66805694FF00007A90762
:1019100013D5B10711D5F91E016101202077206888
:1019200080698007204602D0FFF7E8FF04E000F05E
:101930007EF8204600F07CF82777680716D57007F8
:1019400014D521686FF00400086102202077206818
:10195000806910F4407F204602D0FFF7CFFF04E0FB
:1019600000F065F8204600F063F82777280715D5C2
:10197000300713D521686FF0080008610420207734
:101980002068C0698007204602D0FFF7B7FF04E057
:1019900000F04DF8204600F04BF82777E80616D502
:1019A000F00614D521686FF0100008610820207738
:1019B0002068C06910F4407F204602D0FFF79EFFE8
:1019C00004E000F034F8204600F032F82777E8070A
:1019D00008D0F00706D021686FF0010008612046AA
:1019E00000F028F8280608D5300606D521686FF0E3
:1019F000800008612046FFF70BFE680608D57006D8
:101A000006D521686FF040000861204600F01CF800
:101A1000A8060AD5B00608D521686FF02000086135
:101A20002046BDE8F041FFF7F4BDBDE8F081704706
:101A30007047000000680349884201D1FFF75EBA91
:101A40007047000000100040704770B5040004D0DB
:101A500094F84100002510B106E0012070BD84F823
:101A60004050204600F024F8242084F841002068EB
:101A7000C16821F40051C160204600F0EFFA2068EF
:101A8000016921F4904101612068416921F02A0136
:101A900041612068C16841F40051C1606564202043
:101AA00084F8410084F842006563002070BD0000A6
:101AB00010B586B0044614216846FEF72BFC144985
:101AC0002068884221D113480021026842F01002A8
:101AD0000260006800F0100005900E48143802689B
:101AE00042F001020260006800F0010005904FF42E
:101AF000C06000900220CDE901010320039007207F
:101B0000049069460448FFF7EDF806B010BD0000E8
:101B10000010014044380240000002402DE9F84323
:101B2000044690F84100984616460D46202802D0FB
:101B30000220BDE8F88385B17EB1002060642120D9
:101B400084F84100FFF7D4F9A6848146E684A068B2
:101B50002027B0F5805F02D003E00120E9E720698B
:101B600010B12E4600250EE000260CE08021204614
:101B700000F0FAFAA8B9C6B116F8010B216848605E
:101B8000E08C401EE084E08C4B464FF00002CDF824
:101B900000800028EAD14FF04001204600F0E4FA2E
:101BA00040B184F841700320C3E735F8020BC0F35D
:101BB0000800E3E784F841700020BAE7FEE7000080
:101BC0004FF400710148FFF785B90000001402408E
:101BD0004FF480610148FFF77DB900000014024016
:101BE0007FB500212648009101910291234A03917B
:101BF000026001244FF480320461C0E901210176C2
:101C000080F820101203C26204255210C56182625E
:101C1000C16080F830404161FEF7CEFD08B1FEF7AB
:101C200002FDCDE90054694615480294FEF7FEFC1A
:101C300008B1FEF7F8FC05200090022001906946EB
:101C40000F48FEF7F3FC08B1FEF7EDFC062000900C
:101C50000320019069460A48FEF7E8FC08B1FEF748
:101C6000E2FC0720CDE9000569460548FEF7DEFCE9
:101C7000002801D0FEF7D7FC7FBD00000020014006
:101C8000B0000020094808B5016841F480010160F6
:101C90000068002200F48000009005213820FFF742
:101CA000C5F9BDE808403820FFF7B2B93038024026
:101CB00010B5074A0021074800F030FC064C044AE2
:101CC000002120602432054800F028FC606010BD2F
:101CD000943D0008F9230008040000209123000827
:101CE00070B586B014216846FEF714FB1648002430
:101CF000016841F020010160016801F020010591B7
:101D0000016841F080010160016801F080010591E6
:101D1000016841F00101016000680C4E00F0010013
:101D20004FF4C0650590012229463046FFF7DAF8E6
:101D300001200095CDE90104694630460394FEF781
:101D4000D1FF06B070BD00003038024000140240E0
:101D500010B586B0002418480094019402940394AE
:101D6000049414490594016042F2CF01C0E90114C2
:101D700040F2E731C0E903148461FFF793FC08B136
:101D8000FEF751FC4FF48050009069460A48FFF777
:101D900047FD08B1FEF747FC2020CDE9040404A963
:101DA0000548FFF737FC002801D0FEF73CFC06B0E1
:101DB00010BD000000040040580100200C4810B580
:101DC0000A4901604FF4E1314160002181600C2239
:101DD000C160C0E904128161C161FFF736FE0028CD
:101DE00003D0BDE81040FEF71EBC10BD001001403E
:101DF000A00100201021FEF78DBAFEE71C21FEF79E
:101E000089BAFEE710B54FF0E020006901F00CFE42
:101E1000012803D0BDE8104001F034BB10BD000024
:101E200030B593B030216846FEF774FA14210CA83F
:101E3000FEF770FA1E480025016841F080510160EC
:101E4000006800F0805011901A48016841F4804108
:101E500001600068022400F480401190012000908D
:101E6000000401908001CDE90640082008904FF45D
:101E7000A870CDE9090404200B906846FFF712FA18
:101E800008B172B6FEE70CA90F2081E831004FF4CB
:101E9000A0500F904FF48050109005210CA8FFF730
:101EA000F7F8002801D072B6FEE713B030BD00008D
:101EB00040380240007000400248016841F470015F
:101EC0000160704788ED00E00148FFF718BD000091
:101ED000E8010020F0B50268274B284D284E294F15
:101EE000294C4FF0804C984209D0604507D0A84259
:101EF00005D0B04203D0B84201D0A04204D122F0B4
:101F0000700E4A6842EA0E0298421BD0604519D012
:101F1000A84217D0B04215D0B84213D0A04211D079
:101F20001A4DA8420ED01A4DA8420BD0194DA84206
:101F300008D0194DA84205D0184DA84202D0184D1E
:101F4000A84203D122F44075CA682A434D6922F0A1
:101F500080022A438D68C5620D688562984201D06F
:101F6000A04201D109690163016841F004010160E7
:101F7000012141610260F0BD000001400004004009
:101F800000080040000C00400004014000400140F7
:101F9000004401400048014000180040001C00407F
:101FA0000020004010B5846842EA032224F47F44F4
:101FB0000A432243826010BD826822F070020A4305
:101FC00042F007018160704710B5036A046A24F08B
:101FD00001040462846924F0F00444EA021423F04A
:101FE0000A020A438461026210BD10B5036A046AE2
:101FF00024F010040462846923F0A00324F47044E4
:1020000044EA023243EA01118261016210BD0168B3
:102010000C3151E8002F22F4907241E80023002B8C
:10202000F5D10168143151E8002F22F0010241E896
:102030000023002BF5D1016B012909D101680C3176
:1020400051E8002F22F0100241E80023002BF5D1C7
:10205000202180F8421000210163704770B50446CA
:1020600000680169E26821F440511143016121696E
:10207000A068E26908436169114308432168CA689E
:1020800049F20C639A430243CA6020684169A2691D
:1020900021F440711143416131492068884202D0E6
:1020A0003049884202D1FFF7BDF801E0FFF7AAF8F6
:1020B000E2690023192164253226B2F5004F6268D7
:1020C00028D0A0FB0101930F9200FEF7D9F801463A
:1020D000B0FBF5F06FF01802504301EB800006EB07
:1020E0000010B0FBF5F000F0F002B1FBF5F002EBF0
:1020F0000012B1FBF5F06FF01803584301EB8000BC
:1021000006EB0010B0FBF5F000F00F002168104462
:10211000886070BDA0FB010192185B41FEF7B0F82A
:102120000146B0FBF5F00201B1FBF5F06FF01803CA
:10213000584301EB800006EBC000B0FBF5F000F067
:10214000F80002EB4002B1FBF5F0584301EB8000D0
:1021500006EBC000B0FBF5F000F00700D6E700008A
:1021600000100140001401402DE9F843984617463D
:102170000D460446089E24E0701C22D0FEF7B8FEEF
:10218000A0EB0800B0421AD8CEB12068C168490758
:1021900017D5802D15D0402D13D00168C9430907EC
:1021A0000FD401680025406800902046FFF72FFFFC
:1021B0000820606484F840500120BDE8F8830320C3
:1021C000FBE72068006835EA000004D00020B84230
:1021D000D2D00020F1E70120F9E7FEE70FB4054B6C
:1021E00010B503A9044A029800F028F810BC5DF865
:1021F00014FB0000092400089C0000200907090EB8
:10220000002804DB00F1E02080F80014704700F0A3
:102210000F0000F1E02080F8141D704702E008C8AC
:10222000121F08C1002AFAD170477047002001E050
:1022300001C1121F002AFBD1704700002DE9FF4F9A
:1022400089B09B460446002506E025280BD05A4657
:102250000B999047641C6D1C20780028F5D10DB0B7
:102260002846BDE8F08F0027B8460122474900E024
:10227000074314F8013F203B02FA03F00842F7D16C
:1022800020782E2819D114F8010F47F004072A28C6
:102290000ED06FF02F022078A0F1300109290CD860
:1022A00008EB880102EB410100EB0108641CF2E736
:1022B0000A98641C50F8048B0A9020780028CED02D
:1022C000642808D0692806D075281ED05A460B9974
:1022D00090476D1C58E00A994FF00A0901C90A910C
:1022E000002802DA40422D2102E0390504D52B21D5
:1022F0008DF82010012103E0F90704D02021F7E731
:102300008A4608AE0DE00021FAE70A994FF00A0963
:1023100001C90A91F7E74946FEF707F8303106F898
:10232000011D0028F7D1ADEB060000F12009780768
:1023300001D44FF00108C84502DDA8EB090000E018
:1023400000208046002706E008A85A46C05D0B9989
:1023500090476D1C7F1C5745F6DB04E030205A4641
:102360000B9990476D1CB8F10001A8F10108F5DC4C
:1023700005E016F8010B5A460B9990476D1CB9F110
:102380000001A9F10109F4DC641C65E709280100DA
:1023900001F044FB0E490F4D4FF0FF360860314607
:1023A000012000F04FFD002440F6E44055F82420C1
:1023B000611D5043030B08A0FFF710FF641CE4B23B
:1023C000042CF1D30BA0FFF709FFFFF701FCE6E7B0
:1023D00000000020A00000204144435F494E2564D6
:1023E0002C2076616C3A25642C20566F6C743A254B
:1023F000640D0A000D0A00004FF4FA74FFF7E0FBC9
:10240000204600F04FF8F9E713B54FF0FF330122F3
:1024100069460248FFF782FB00981CBDA00100201E
:102420008CB0FEF773FDFFF7FBFCFFF759FCFFF7DD
:1024300029FCFFF7C3FCFFF78BFCFFF7D1FB0EA0D5
:10244000FFF7CCFE7B2110A0FFF7C8FE07A8FFF71F
:10245000D1FC6846FFF7D2FC04220F490F48FEF773
:1024600023FA0F48FFF760F900F02AF8FFF720FC85
:1024700000F038F8FEE7000068656C6C6F2073743C
:102480006D33320D0A00000076616C7565203D20C9
:1024900025640D0A00000000A0000020B00000200C
:1024A0005801002010B5EFF3058111B16FF005045C
:1024B00003E0002408B100F02DFE204610BD00000E
:1024C000EFF3058010B16FF0050070470448016814
:1024D00011B14FF0FF3070470121016000207047BB
:1024E0006C00002010B5EFF3058010B16FF005000F
:1024F00010BD08480168012902D04FF0FF3010BD1F
:10250000054A002182F8141D0221016000F0C2FE7C
:10251000002010BD6C0000200BE000E02DE9FF4121
:102520004FEA01034FF00005EFF30581039549BB26
:1025300040B38027182100244AB3166806B13446F8
:1025400096691EB13146761E382E02D21679F607EC
:1025500003D0002004B0BDE8F081566906B1B70889
:10256000D2F808C0BCF1000F0DD0D5685C2D18D38F
:1025700012693AB136B18DE806103A46214601F0AB
:1025800022FA03900DE0D6685EB912694AB903AA2F
:10259000CDE90012BAB2214601F0E8F9012800D0D5
:1025A00003950398D6E700002DE9F041134C0F4640
:1025B0000546E6682068001D00F078FC681C07D11D
:1025C00037B12168BDE8F0410D48091D00F0BEBCDF
:1025D00020683544B5424560216805D2A06BBDE84E
:1025E000F041091D00F09ABC606B091D00F096FCDB
:1025F000A06A854200D2A562BDE8F0811C000020DF
:10260000200700202DE9F041054600F0ABFC2D4CE1
:10261000A068401CA06020682B4F10B1606930B3E7
:102620002BE02560A068012827D1002606EB860054
:1026300007EB800000F064FC761C382EF6D32348AC
:1026400000F05EFC2148143000F05AFC1F4828308E
:1026500000F056FC1D483C3000F052FC1B48503046
:1026600000F04EFC194860631430A06305E0206858
:10267000E96AC06A884200D82560606A401C6062CE
:102680006864E86A2169884200D9206100EB800013
:1026900007EB8000291D00F059FC00F083FC606905
:1026A00000280CD02068E96AC06A884207D208492D
:1026B0004FF080500860BFF34F8FBFF36F8FBDE8BE
:1026C000F08100001C00002070020020D0060020D5
:1026D00004ED00E038B500F045FC104C2068C8B9A6
:1026E0000F4800F00DFC0E48143000F009FC0C48B7
:1026F000E060143020610A4B0020F03B009003F1B1
:10270000500210210A2000F0D3FE206010B105A174
:1027100000F0CAFCBDE8384000F044BC580000207E
:1027200024080020546D72510000000030B4026C87
:102730000B46002A0BD0C1681144C1608468A142D5
:1027400001D30168C16030BC1846FDF7CABD30BC7A
:1027500070472DE9F041856B174604460026026C50
:1027600082B1C7B1E068FDF7BCFDE168206C091AD1
:10277000E1602268914202D2A168081AE060022F4B
:1027800016D017E02068A8B9A06801F0C5F9064680
:102790000020A0600EE06068FDF7A3FD216C60687A
:1027A00008446060A168884204D32068606001E04A
:1027B00005B16D1E6D1CA5633046BDE8F08110B5F6
:1027C000044690F8590058B101280CD002280FD0C7
:1027D000502080F31188BFF34F8FBFF36F8FFEE758
:1027E000206B00F0F3FB2046BDE8104000F0EEBB8C
:1027F00010BD000010484FF47051420706D0C01DB4
:102800000D4920F00700411AC1F570510B4A002311
:102810000144C2E900030839183A21F007011160A8
:102820004B600B600B1AC0E9001393604FF000403F
:102830005360506170470000040F002088000020A2
:10284000144E154CA6F29C474FF08058DFF84C9080
:1028500012E000BF00F086FBF068C568281D00F09C
:1028600025FBA068401EA0606068401E606000F00C
:1028700099FB2846FFF7A3FF60680028EAD1386873
:102880000128F9D9C9F80080BFF34F8FBFF36F8FCC
:10289000F2E700000C0700201C00002004ED00E01F
:1028A00070B51D46049C51B1C4F80020C4E90F0165
:1028B0000121204600F030FE84F84C5070BD2460A9
:1028C000F4E700002DE9F05F8846DDE90B9415463A
:1028D000834691009A460A9EA522206BFDF713FDC0
:1028E0006FF00301206B01EB8501084420F007071E
:1028F000780707D0502080F31188BFF34F8FBFF3C4
:102900006F8FFEE70025B8F1000F0FD05FF00000D9
:10291000221818F8001082F8341018F8001011B1BD
:10292000401C1028F4D384F8435001E084F834505C
:10293000382E00D33726E662C4E91365201D00F067
:10294000EAFA04F1180000F0E6FA2461C6F1380052
:102950006462A061656584F858505246594638460D
:1029600000F05AFA2060B9F1000F01D0C9F8004018
:10297000BDE8F09F30B5114900E011460A68824277
:10298000FBD34B685C18844203D14068184448600C
:10299000084643681C18944209D1084C183C246826
:1029A000A24209D052681A4442600A681268026062
:1029B000814200D0086030BD0460F9E78800002043
:1029C00070B5002441600B4D0061914206D8D11AC8
:1029D0008269914206D2011D286907E09A4203D21A
:1029E000994201D3012403E0011DE86800F096FA42
:1029F000204670BD5800002010B5044600F0B2FA21
:102A0000A06B28B15FF0000400F0CCFA204610BDA6
:102A10000124F9E730B589B03C4D6EE004980028F8
:102A200006DADDE90601059A90470498002864DB80
:102A3000069C606910B1201D00F038FA03A800F070
:102A4000D7F8024604980A2857D2DFE800F00505B7
:102A5000052D334A05052D3394F8280040F0010078
:102A600084F828000599A069059B01442046FFF7DA
:102A7000A7FF68B3216A2046884794F828004007DA
:102A80003BD5002000900598A16900234218194603
:102A9000204601F04BF9D8B9502080F31188BFF3DC
:102AA0004F8FBFF36F8FFEE714F8280F20F001005F
:102AB000207022E094F8280040F0010084F82800FB
:102AC0000598A06128B1811813462046FFF778FFCA
:102AD00013E0502080F31188BFF34F8FBFF36F8F47
:102AE000FEE794F82800810703D4204600F06EFA30
:102AF00003E020F0010084F82800002204A92868DF
:102B000000F05EFE002889D109B030BD58000020D9
:102B10002DE9FC410F46054600F000FC01A800F03D
:102B200067F80446019818B101F06EF8BDE8FC8121
:102B3000254EAFB130690068D0B30027291B3A4653
:102B4000306800F0C5FA01F05FF80028EED11F49A7
:102B50004FF080500860BFF34F8FBFF36F8FE5E7F2
:102B6000A542EBD801F050F8F0682746C068C46869
:102B7000201D00F09BF994F82800410719D5A069A1
:102B80002B4641193A462046FFF71AFFA8B100200C
:102B90000346014600902A46204601F0C7F860B976
:102BA000502080F31188BFF34F8FBFF36F8FFEE784
:102BB00007E020F0010084F82800216A20468847B9
:102BC000B4E70127BAE700005800002004ED00E058
:102BD0000648416B096829B1416BC968C9684968F1
:102BE000816270474FF0FF31FAE700001C000020BF
:102BF00070B5054600F026FF064E0446B0688442D4
:102C000003D200F009F8012000E0002028602046EF
:102C1000B46070BD58000020F8B5194D20E0C068C0
:102C2000C4680668201D00F041F9216A20468847E3
:102C300094F82800400713D5A0693044B04206D963
:102C400024616060211DE86800F068F908E0002058
:102C50000346014600903246204601F067F838B13D
:102C6000E86801680029DAD12969C5E90310F8BDCF
:102C7000502080F31188BFF34F8FBFF36F8FFEE7B3
:102C80005800002008484068401C4FF0500080F376
:102C9000118804D0BFF34F8FBFF36F8FFEE7BFF3F0
:102CA0004F8FBFF36F8FFEE790000020074CE06866
:102CB000016841B1C0680021D0F80000FFF728FF8B
:102CC000FFF7A8FEF3E701210020F7E758000020F6
:102CD0002DE9F041044600F045F994F9455004F11E
:102CE000240609E0606A48B1304600F055FF08B19B
:102CF00000F03EFA6D1E6DB2002DF3DC4FF0FF3692
:102D000084F8456000F04EF900F02CF994F9445035
:102D100004F1100709E0206948B1384600F03CFF93
:102D200008B100F025FA6D1E6DB2002DF3DC84F8B9
:102D30004460BDE8F04100F035B900002DE9F041F4
:102D40000546002700F0EAFA324E306808B9FFF76E
:102D500051FD706905424ED1C5B3083568070ED0E4
:102D600005F00700C0F108000544680707D05020AF
:102D700080F31188BFF34F8FBFF36F8FFEE72DB342
:102D80007068854237D82348183001460C6801E046
:102D900020460C466168A94202D221680029F7D179
:102DA00031688C4227D00768216801606068083765
:102DB000411B10290FD96019420708D0502080F319
:102DC0001188BFF34F8FBFF36F8FFEE713E04160B1
:102DD0006560FFF7CFFD61687068401A7060B26887
:102DE000904200D2B060706901430020C4E9000144
:102DF000F068401CF06000F007FF780707D0502013
:102E000080F31188BFF34F8FBFF36F8FFEE7384613
:102E1000BDE8F0817000002010B5031F4FF08074F2
:102E20001C601B1F21F001011960191F044B0B606E
:102E300014390A60091F6FF0020244380A6010BD9D
:102E4000852C000870B50C46064600F08BF8154D31
:102E50002868406D80B92968012081F858005CB16C
:102E600001212046FFF7A0FB0F494FF0805008607A
:102E7000BFF34F8FBFF36F8F00F094F800F072F83C
:102E80002868446D002034B116B12968486502E015
:102E90002A68611E5165296881F8580000F082F89F
:102EA000204670BD1C00002004ED00E0D0E9013296
:102EB00001699A60D0E901235A604A68824201D1CF
:102EC00082684A60002202610868401E0860086843
:102ED00070470000034B036003F15C000860802032
:102EE000106070474C080020044B036003F15C0045
:102EF00008604FF48070106070470000A80A00203E
:102F000000F108014FF0FF32C0E90112C160016118
:102F100000210160704700210161704730B50B68E6
:102F20005A1C02D000F1080202E0026904E02246C5
:102F3000546825689D42FAD953684B6099608A604D
:102F4000516008610168491C016030BD42684A60F7
:102F500093688B6093685960916008610168491CAF
:102F600001607047502080F31188BFF34F8FBFF38B
:102F70006F8F0A494868401C486001280CD10848F6
:102F8000006810F0FF0F07D0502080F31188BFF3C6
:102F90004F8FBFF36F8FFEE7704700009000002057
:102FA00004ED00E00849486828B1401E486001D19E
:102FB00080F311887047502080F31188BFF34F8F42
:102FC000BFF36F8FFEE700009000002070B500286F
:102FD0002AD0164DA0F1080460686969084207D13B
:102FE000502080F31188BFF34F8FBFF36F8FFEE740
:102FF00022683AB1502080F31188BFF34F8FBFF39E
:103000006F8FFEE78843606000F088F96068696848
:10301000084468602046FFF7ADFC2869401C286121
:10302000BDE8704000F0F0BD70BD000070000020F1
:103030004FF0E02000210161816105494FF47A726F
:103040000968B1FBF2F1491E416107210161704736
:103050001800002010B5FDF7FDF8114910280ED317
:1030600000F1E02090F8F0030A78904207D2502057
:1030700080F31188BFF34F8FBFF36F8FFEE70948CE
:103080000068896800F4E060884207D9502080F326
:103090001188BFF34F8FBFF36F8FFEE710BD0000A5
:1030A000900000200CED00E010B5084B002200BF9E
:1030B00053F832401CB1521C082AF9D310BD43F812
:1030C000321003EBC201486010BD00003002002046
:1030D00070B515460E460446FFF744FF94F94410B8
:1030E0000020491C01D184F8440094F94510491C82
:1030F00001D184F84500FFF755FFA06B28B92A4697
:10310000314604F1240000F0A9F82046BDE87040E3
:10311000FFF7DEBD10B5020014D00F48006B38B1C8
:10312000502080F31188BFF34F8FBFF36F8FFEE7FE
:1031300000F0F4F800211046FFF736FA00F064FDC5
:10314000002807D105494FF080500860BFF34F8F2A
:10315000BFF36F8F10BD00001C00002004ED00E0E5
:1031600002490A6A0260C968416070471C00002079
:1031700001490120C86170471C0000202DE9F04181
:103180000E46040015D0FFF765FF5020EFF31185C0
:1031900080F31188BFF34F8FBFF36F8F94F85800FF
:1031A000022184F85810616D491C6165012808D01E
:1031B00031E0502080F31188BFF34F8FBFF36F8F42
:1031C000FEE7A06A38B1502080F31188BFF34F8F1B
:1031D000BFF36F8FFEE7124F386B18B104F118017F
:1031E00010480DE0201DFFF761FEE06A3969884252
:1031F00000D938610C4900EB800001EB8000211DF3
:10320000FFF7A4FEE06A3968C96A884203D9012041
:1032100006B13060F86185F31188BDE8F0810000E7
:103220001C000020F80600207002002010B50C469B
:1032300050B1094909681831FFF770FE2046BDE812
:1032400010400121FFF7B0B9502080F31188BFF37F
:103250004F8FBFF36F8FFEE71C00002070B5144640
:103260000D4668B10A4909681831FFF76FFE0CB1C5
:103270004FF0FF3521462846BDE87040FFF794B96E
:10328000502080F31188BFF34F8FBFF36F8FFEE79D
:103290001C00002030B587B00024039405AA04A9BF
:1032A00003A80494FFF716FEDDE903010094CDE9BD
:1032B0000110002315A11748059A00F084FB164D54
:1032C0000028E8621FD000F001FD012809D0401C51
:1032D00019D1502080F31188BFF34F8FBFF36F8F48
:1032E000FEE7502080F31188BFF34F8FBFF36F8F3D
:1032F0004FF0FF30A86201206861EC6007B0BDE8C4
:10330000304000F045B807B030BD000049444C459E
:1033100000000000412800081C0000200248016B4A
:10332000491C0163704700001C000020164810B5BE
:10333000016B11B10121C16110BD0021C1610169A1
:10334000124A01E0B9B1491E01EB810352F8233062
:10335000002BF7D001EB810302EB830202F108049A
:1033600053685B685360A34201D15B685360DA68BD
:103370000260016110BD502080F31188BFF34F8FB0
:10338000BFF36F8FFEE700001C00002070020020DA
:103390001CB537480168374A914207D1502080F365
:1033A0001188BFF34F8FBFF36F8FFEE7006831497D
:1033B000491E884207D1502080F31188BFF34F8FF8
:1033C000BFF36F8FFEE72C4908780190FF2008704B
:1033D00008788DF800009DF800009DF8002000F0AE
:1033E000F000904207D0502080F31188BFF34F8F38
:1033F000BFF36F8FFEE79DF80000204C00F05000F7
:1034000020700720A06005E09DF8002052008DF894
:103410000020401E9DF800201206F5D4A06003286D
:1034200007D0502080F31188BFF34F8FBFF36F8F09
:10343000FEE74FF44070A060019808700C482030FF
:10344000016841F470010160016841F07041016060
:10345000FFF7EEFD00206060FCF7C4FE084801683D
:1034600041F040410160FCF7A9FE00201CBD0000B6
:1034700000ED00E071C20F4100E400E09000002088
:1034800034EF00E010B5502080F31188BFF34F8F68
:10349000BFF36F8F00F0DCFA18B104494FF0805091
:1034A0000860002080F3118810BD000004ED00E0EA
:1034B00038B5049D18B153B1CAB181B120E0502094
:1034C00080F31188BFF34F8FBFF36F8FFEE750205B
:1034D00080F31188BFF34F8FBFF36F8FFEE750204B
:1034E00080F31188BFF34F8FBFF36F8FFEE739B1C1
:1034F000502080F31188BFF34F8FBFF36F8FFEE72B
:1035000050241C46012384F846302B460094FFF7D4
:10351000C7F9204638BD000070B50D46040025D01F
:10352000FFF720FDD4E90F20216802FB0011A16004
:103530000021A163216861600A46D4E90F01401EA1
:1035400000FB0121E16021464FF0FF3001F8440FFC
:10355000487004F110008DB1FFF7D2FC04F1240093
:10356000FFF7CEFCFFF71EFD012070BD502080F359
:103570001188BFF34F8FBFF36F8FFEE721690029DA
:10358000F0D000F009FB0028ECD004494FF0805047
:103590000860BFF34F8FBFF36F8FE3E704ED00E0E8
:1035A0002DE9FF4782B01D468A464FF0000804000F
:1035B00003D0BAF1000F08D011E0502080F3118839
:1035C000BFF34F8FBFF36F8FFEE7206C38B15020F1
:1035D00080F31188BFF34F8FBFF36F8FFEE7022D8B
:1035E0000AD1E06B012807D0502080F31188BFF387
:1035F0004F8FBFF36F8FFEE700F016FA3F4F4FF08B
:1036000000094FF0805648B9049838B1502080F333
:103610001188BFF34F8FBFF36F8FFEE7FFF7A2FC58
:10362000A06BE16B884207D3022D05D00498D0B17E
:10363000B8F1000F1AD01EE02A4651462046FFF787
:1036400088F8616A19B104F1240000F0A5FA20B1EC
:103650003E60BFF34F8FBFF36F8FFFF7A3FC0120D6
:1036600006B0BDE8F087FFF79DFC22E06846FFF753
:1036700077FD4FF00108FFF795FCFFF74FFEFFF7CE
:1036800071FC94F94400401C01D184F8449094F9F1
:103690004500401C01D184F84590FFF783FC04A944
:1036A000684600F029F930B12046FFF711FB00F021
:1036B000ABFA0020D4E7FFF755FCA06BE16B884222
:1036C00013D1FFF76FFC04F110000499FFF7AEFD72
:1036D0002046FFF7FDFA00F097FA00289ED13E60E1
:1036E000BFF34F8FBFF36F8F98E7FFF75BFC204668
:1036F000FFF7EEFA00F088FA90E7000004ED00E032
:103700002DE9F0471F4690468946040003D0B9F1E1
:10371000000F08D011E0502080F31188BFF34F8FC5
:10372000BFF36F8FFEE7206C38B1502080F3118813
:10373000BFF34F8FBFF36F8FFEE7022F0AD1E06B0D
:10374000012807D0502080F31188BFF34F8FBFF3BB
:103750006F8FFEE7FFF77EFC5020EFF3118680F3BA
:103760001188BFF34F8FBFF36F8FA06BE16B88425F
:1037700006D3022F04D0002086F31188BDE8F0871D
:1037800094F94550A06B3A4649462046FEF7E1FFC2
:10379000681C04D06D1C84F845500120ECE7606A79
:1037A0000028FAD004F1240000F0F6F90028F4D043
:1037B000B8F1000FF1D00121C8F80010EDE70000CA
:1037C0002DE9F747002683B08A46040003D0BAF1FA
:1037D000000F08D011E0502080F31188BFF34F8F05
:1037E000BFF36F8FFEE7206C38B1502080F3118853
:1037F000BFF34F8FBFF36F8FFEE700F015F9DFF8CF
:10380000F4804FF000094FF0805748B9059838B15F
:10381000502080F31188BFF34F8FBFF36F8FFEE707
:10382000FFF7A0FBA56BC5B151462046FEF77EFF12
:103830006D1EA563206950B104F1100000F0ACF9D1
:1038400028B1C8F80070BFF34F8FBFF36F8FFFF739
:10385000A9FB012006B0BDE8F087059808B11EB1AC
:1038600006E0FFF79FFB27E06846FFF779FC01269B
:10387000FFF798FBFFF752FDFFF774FB94F9440044
:10388000401C01D184F8449094F94500401C01D1BA
:1038900084F84590FFF786FB05A9684600F02CF8F0
:1038A000002820460AD0FFF713FA00F0ADF92046B1
:1038B000FFF7A2F80028B3D00020CBE7FFF79CF871
:1038C00090B104F124000599FFF7B0FC2046FFF702
:1038D000FFF900F099F90028A2D1C8F80070BFF3F1
:1038E0004F8FBFF36F8F9BE72046FFF7F1F900F092
:1038F0008BF995E704ED00E02DE9F0410C46050059
:1039000011D0C4B1FFF72EFB174BDA686E68206840
:10391000911B471C17D02F681B6A9F4219D09642F3
:1039200017D8012410E0502080F31188BFF34F8F87
:10393000BFF36F8FFEE7502080F31188BFF34F8FE6
:10394000BFF36F8FFEE70024FFF72CFB2046BDE896
:10395000F081884205D9401A20602846FFF700FC14
:10396000F1E700202060DCE71C0000202DE9FF5F6C
:103970008346DDE90E87994616468A469000FFF792
:10398000DDF905001CD05C20FFF7D8F9040014D045
:103990000020256384F85900CDE90240CDE9008775
:1039A0004B46324651465846FEF78CFF2046FEF7FE
:1039B00029FE012004B0BDE8F09F2846FFF706FB72
:1039C0004FF0FF30F6E7F0B585B0DDE90B640A9DF6
:1039D000A6B1DCB15C2700972663022684F8596003
:1039E000002604AFCDE90246CDE90057FEF76AFF95
:1039F0002046FEF707FE049805B0F0BD502080F386
:103A00001188BFF34F8FBFF36F8FFEE7502080F315
:103A10001188BFF34F8FBFF36F8FFEE70148006837
:103A2000704700001C0000200548416919B1006B77
:103A300018B1002070470120704702207047000035
:103A40001C0000200148C068704700001C000020D6
:103A50002DE9F0412E4C0027206B28B1A069401CB5
:103A6000A0613846BDE8F081E668761CE66013D1B7
:103A7000606B006838B1502080F31188BFF34F8F1E
:103A8000BFF36F8FFEE7606BA16B6163A063206A79
:103A9000401C2062FFF79CF8A06ADFF8788086421D
:103AA00009D3606B0068A0B1606BC068C5686868C6
:103AB000864211D2A0622068C06A00EB800158F8EB
:103AC0002100012800D90127E0690028C9D0012779
:103AD000C7E74FF0FF30EDE7281DFFF7E7F9A86AC9
:103AE00018B105F11800FFF7E1F9E86A2169884289
:103AF00000D9206100EB800108EB8100291DFFF750
:103B000025FAE86A2168C96A8842CAD30127C8E74A
:103B10001C0000207002002070B504004FF000016E
:103B200033D01B4D2868844207D0502080F3118881
:103B3000BFF34F8FBFF36F8FFEE7206D38B1401E8C
:103B40002065E36CE26A9A421FD040B11DE050202C
:103B500080F31188BFF34F8FBFF36F8FFEE7201DF7
:103B6000FFF7A4F9E06CE062C0F13800A061E06A00
:103B70002969884200D92861064900EB800001EBE1
:103B80008000211DFFF7E2F90121084670BD000009
:103B90001C0000207002002070B5C068C46854B1D9
:103BA00004F118000646FFF781F9144D286B50B157
:103BB0003146134815E0502080F31188BFF34F8F32
:103BC000BFF36F8FFEE7201DFFF770F9E06A2969E8
:103BD000884200D928610B4900EB800001EB80008E
:103BE000211DFFF7B3F9E06A2968C96A884202D942
:103BF0000120E86170BD002070BD00001C000020A5
:103C0000F8060020700200202DE9F0472C4D00241A
:103C10002746286B38B1FFF7A5F9286B401E2863AB
:103C2000286B40B146E0502080F31188BFF34F8FDE
:103C3000BFF36F8FFEE7A968224E0120D1B3A6F52E
:103C4000916980463068E0B1F068C46804F11800FA
:103C5000FFF72CF9201DFFF729F9E06A296988424E
:103C600000D9286100EB800109EB8100211DFFF7DD
:103C70006DF9E06A2968C96A8842E3D3C5F81C80F7
:103C8000E0E70CB1FEF7A4FFAC694CB14FEA0806BF
:103C9000FFF7DEFE00B1EE61641EF9D10020A861DD
:103CA000E86938B10849012738070860BFF34F8F2A
:103CB000BFF36F8FFFF776F93846BDE8F087000055
:103CC0001C000020F806002004ED00E010B586B0CE
:103CD000FEF700FD114C2068B8B10020039004905D
:103CE00005AA04A903A8FFF7FFF8DDE903210220D4
:103CF0008DE8070000230AA10B48059AFFF763FE31
:103D0000606010B106B0012010BD502080F3118812
:103D1000BFF34F8FBFF36F8FFEE700005800002006
:103D2000546D722053766300AD2C00082DE9FF41DD
:103D30001E46134602000A9D4FF0000016D0144C98
:103D40002768002F0FD0CDE900130292062917DA59
:103D5000FFF76AFE02284FF000030FD000226946E9
:103D60002068FFF71DFC04B0BDE8F081502080F30F
:103D70001188BFF34F8FBFF36F8FFEE72A46EEE740
:103D80000023324669463846FFF7BAFCEBE70000ED
:103D900058000020043E0008000000000000000061
:103DA00000000000000000000002000018000000F9
:103DB0000000000000000000FC3D000800000000C2
:103DC00000000000000000000000000000080000EB
:103DD000280000000000000000000000000610168F
:103DE000000610160000000000000000010203049D
:103DF0000607080900000000010203047461736BE8
:103E0000414443007461736B4C4544002C3E0008F0
:103E100000000020A00000001C220008CC3E00088A
:103E2000A0000020684E00002C22000800000000C6
:103E30000000000000000000010000001000000071
:103E4000000000000024F40000000000000000005A
:103E50000000000000000000000000000000000062
:103E60000000000000000000000000000000000052
:103E70000000000000000000000000000000000042
:103E80000000000000000000000000000000000032
:103E90000000000000000000000000000000000022
:103EA0000000000000000000000000000000000012
:103EB0000000000000000000000000000000000002
:0C3EC000AAAAAAAA00000000000000004E
:040000050800018965
:00000001FF
