:020000040800F2
:10000000904E00205D0200086F1B0008BD1800081C
:10001000251B0008ED040008471F00080000000031
:100020000000000000000000000000009D0100082A
:10003000EF04000800000000F9010008711B00082F
:1000400077020008770200087702000877020008AC
:10005000770200087702000877020008770200089C
:10006000770200087702000877020008770200088C
:10007000770200087702000877020008770200087C
:100080007702000877020008B90300087702000829
:10009000770200087702000877020008770200085C
:1000A000770200087702000877020008770200084C
:1000B000770200087702000877020008770200083C
:1000C000770200087702000877020008770200082C
:1000D000770200087702000877020008770200081C
:1000E000770200087702000877020008770200080C
:1000F00077020008770200087702000877020008FC
:1001000077020008770200087702000877020008EB
:100110007702000877020008351C00087702000803
:1001200077020008770200087702000877020008CB
:1001300077020008770200087702000877020008BB
:1001400077020008770200087702000877020008AB
:10015000770200087702000877020008770200089B
:10016000770200087702000877020008770200088B
:1001700077020008770200087702000800000000FC
:100180007702000877020008DFF80CD000F002F9CF
:100190000048004729210008904E00202C4B196888
:1001A0000868B0E8F04F80F30988BFF36F8F4FF015
:1001B000000080F3118870470000000008480068C4
:1001C000006880F308884FF0000080F3148862B65E
:1001D00061B6BFF34F8FBFF36F8F00DF00BF00BF6B
:1001E00008ED00E0DFF80C00016841F470010160E7
:1001F000704700BF88ED00E0EFF30980BFF36F8F19
:10020000134B1A681EF0100F08BF20ED108A20E96A
:10021000F04F106009B44FF0500080F31188BFF325
:100220004F8FBFF36F8F02F09DFE4FF0000080F301
:10023000118809BC19680868B0E8F04F1EF0100F6B
:1002400008BFB0EC108A80F30988BFF36F8F704746
:1002500014000020EFF30580704700000648804737
:1002600006480047FEE7FEE7FEE7FEE7FEE7FEE79B
:10027000FEE7FEE7FEE7FEE7251C0008890100080F
:100280002DE9F05F0546002092469B4688460646CB
:10029000814640241BE0284641464746224600F05E
:1002A00069F853465A46C01A914110D31146184670
:1002B000224600F050F82D1A67EB01084F462246FF
:1002C0000120002100F047F817EB00094E41201EE5
:1002D000A4F10104DFDC484631462A464346BDE826
:1002E000F09F40EA01039B0703D009E008C9121FF1
:1002F00008C0042AFAD203E011F8013B00F8013BE0
:10030000521EF9D27047D2B201E000F8012B491E0B
:10031000FBD270470022F6E710B513460A460446A2
:100320001946FFF7F0FF204610BD30B50B460146D9
:1003300000202022012409E021FA02F59D4205D384
:1003400003FA02F5491B04FA02F52844151EA2F12E
:100350000102F1DC30BD202A04DB203A00FA02F170
:10036000002070479140C2F1200320FA03F31943A3
:1003700090407047202A04DB203A21FA02F0002145
:10038000704721FA02F3D040C2F1200291400843A5
:1003900019467047064C074D06E0E06840F001033F
:1003A00094E8070098471034AC42F6D3FFF7F0FE0C
:1003B000043A0008243A0008014800F06FB9000030
:1003C00098000020464910B54A6822F440324A603D
:1003D0004A6843681A434A6001684A6822F4807296
:1003E0004A6001684A68036942EA03224A60016878
:1003F0004A6822F040724A6001684A6883681A437A
:100400004A6001688A6822F400628A6001688A682A
:10041000C3681A438A60816A6FF07062D1420168D2
:100420008A6822F070628A6001688A680CD0836AE8
:100430001A438A6001688A6822F040528A60016823
:100440008A68C36A1A4301E022F040528A60016858
:100450008A6822F002028A6001688A68037E42EAA2
:1004600043028A6090F82010002901684A680FD082
:1004700042F400624A6001684A6822F460424A60BD
:1004800001684A68174C436A04EB43331A4301E09E
:1004900022F400624A600168CA6A22F47002CA62E9
:1004A0000168CA6A838B104C04EB03531A43CA6277
:1004B00001688A6822F400728A6001688A6890F88C
:1004C000303042EA43228A6001688A6822F48062FE
:1004D0008A6001688A68406942EA8020886010BDAD
:1004E0000023014000E0FFFF0000F0FFFEE770473F
:1004F00072B6FEE710B50C46114601F0C1FA01468E
:100500002046BDE8104001F011BB704778B50024CB
:10051000009490F83C20012A19D0012280F83C2058
:100520000A6807230568092A13D9EE680A3A02EB1C
:10053000420293409E43EE600B788A680A3B03EBCD
:1005400043039A400368DD682A43DA6010E0022022
:1005500078BD2E6902EB420293409E432E610B78D8
:100560008A6803EB43039A4003681D692A431A61B2
:100570004A681F23072A13D205686E6B521E02EBCE
:10058000820293409E436E630B790A885B1E92B28F
:1005900003EB83039A4003685D6B2A435A6327E0A9
:1005A00005680D2A12D22E6BD21F02EB82029340F5
:1005B0009E432E630B790A88DB1F92B203EB830301
:1005C0009A4003681D6B2A431A6311E0EE6A0D3AE4
:1005D00002EB820293409E43EE620B790A880D3B48
:1005E00092B203EB83039A400368DD6A2A43DA621E
:1005F000164B0568144A9D4206D10D68122D03D191
:10060000556845F48005556005689D4218D10B6812
:10061000102B01D0112B13D1536843F40003536006
:10062000096810290CD10A490A4A0968B1FBF2F19C
:1006300001EB8101490000E0491E00910029FBD136
:1006400080F83C40002078BD00230140002001409C
:100650001000002040420F0010B5084A0168914286
:100660000BD100F018F8014640F6E4404843020B75
:10067000BDE8104002A001F067BC10BD00200140A1
:1006800076616C3A25642C20566F6C743A25640DA3
:100690000A00000070470068C06C704770B50446DF
:1006A00000680668456816F0020F05F020012AD0A0
:1006B00049B3216CC90603D4216C41F40071216453
:1006C000816811F0405F17D1217EA9B9C16A11F488
:1006D000700F02D0816849050ED4416821F02001D5
:1006E0004160206C20F480702064206CC00403D42E
:1006F000206C40F0010020642046FFF7ADFF216828
:100700006FF01200086016F0040F05F0800132D07F
:1007100089B3206CC00603D4206C40F400502064E0
:100720002068816811F4401F1ED1816B11F4401FB5
:1007300002D08168490517D44168490514D48168FD
:1007400011F0405F10D1217E71B9416821F0800124
:100750004160206C20F480502064206CC00503D4DC
:10076000206C40F0010020642046FFF7CEFE216897
:100770006FF00C00086016F0010F05F040010FD07B
:1007800071B120680068C0070AD0206C40F4803046
:100790002064204600F043F821686FF001000860F3
:1007A00016F0200F05F080610ED000290CD0606C8F
:1007B00040F00200606420686FF02005056020466C
:1007C000FFF768FF2068056070BD70B504004FF04A
:1007D000000503D0206C002610B107E0012070BD99
:1007E000204600F01DF8666484F83C60206CC0066A
:1007F00010D4206C20F4885040F002002064204681
:10080000FFF7E0FD6664206C20F0020040F001007C
:10081000206400E0012584F83C60284670BD7047E4
:1008200010B586B0044614216846FFF773FD1549DC
:100830002068884224D114480021026842F4807262
:100840000260006800F4807005900F481438026858
:1008500042F001020260006800F0010005902020D3
:1008600000900320CDE901016946084800F0F6F840
:1008700000220621122000F095FA122000F084FADE
:1008800006B010BD00200140443802400000024084
:100890002DE9F041044600680D4681684FF00007DD
:1008A00049050BD58068C00508D5206C40F02000B4
:1008B000206484F83C700120BDE8F08100F0D4F998
:1008C000064613E0681C11D025B100F0CDF9801B5D
:1008D000A8420BD920680068800707D4206C40F03C
:1008E0000400206484F83C700320E5E72068006879
:1008F0008007E7D521686FF012000860206C40F493
:10090000007020642068816811F0405F13D1217E5F
:1009100089B9C16A11F4700F02D0806840050AD409
:10092000206C20F480702064206CC00403D4206C00
:1009300040F0010020640020BEE7000018B500214F
:10094000009190F83C20012A07D0012280F83C2039
:1009500002689368DB0702D011E0022018BD93689B
:1009600043F0010393602E4A2E4B1268B2FBF3F260
:1009700002EB420200E0521E0092002AFBD1026804
:100980009368DB0742D0036C40F20164A34343F455
:100990008073036453685B0505D5036C23F400532F
:1009A00043F480530364036CDB0404D5436C23F0ED
:1009B0000603436400E0416480F83C101A496FF07C
:1009C0002203136049680068CA06184906D08842A5
:1009D00024D1816811F0405F13D01FE08842F8D025
:1009E000134A904203D1D1F80423D206F1D0114A20
:1009F000904213D1D1F8041301F01F011029E8D35C
:100A00000CE0816841F08041816007E0016C41F0B9
:100A100010010164416C41F001014164002018BDE6
:100A20001000002040420F00002301400020014040
:100A3000002101400022014070B5044600F014F985
:100A40000546601C02D004480078044400F00CF90C
:100A5000401BA042FAD370BD040000202DE9F84FDE
:100A6000DFF8BCA10022012503264FF00F090AF18F
:100A7000040BAAF1040E00BF0B6805FA02F4234030
:100A8000A34270D10F7907F00307012F01D0022F85
:100A900016D187684FEA420806FA08FC27EA0C07D5
:100AA000D1F80CC00CFA08FC4CEA070CC0F808C0DE
:100AB0004768A7430C79C4F3001494403C43446056
:100AC0000C79E443A4070AD0C4684FEA420C06FA42
:100AD0000CF7BC438F6807FA0CF72743C7600C7903
:100AE00004F00304022C12D1D40800EB840CDCF8CF
:100AF00020405707FF0E09FA07F824EA0804D1F846
:100B0000108008FA07F848EA0408CCF82080046846
:100B10004FEA420C06FA0CF7BC430F7907F00307C3
:100B200007FA0CF7274307604C6814F4403F70D075
:100B30003C4C276847F480472760246822F003076D
:100B400004F480440094384C07EB040CDCF80848AB
:100B500097074FEA177809FA08F7BC43334FB842B2
:100B600002D1002724E054E0314FB84201D10127DF
:100B70001EE0304FB84201D1022719E02E4FB84293
:100B800001D1032714E02D4FB84201D104270FE013
:100B90002B4FB84201D105270AE02A4FB84201D1B4
:100BA000062705E0284FB84201D1072700E00827B3
:100BB00007FA08F72743CCF80878DAF800405746D8
:100BC000D1F804C09C435FEACC2C00D51C433C60A8
:100BD000DBF800405F46D1F804C09C435FEA8C2CF0
:100BE00000D51C433C60DEF800407746D1F804C0D5
:100BF0009C435FEA8C3C00D51C433C60084F083F97
:100C00003C68D1F804C09C435FEACC3C00D51C434F
:100C10003C60521C102AFFF42FAFBDE8F88F000093
:100C2000083C0140443802400030014000000240CE
:100C30000004024000080240000C02400010024084
:100C40000014024000180240001C0240426921EAE0
:100C500002030A4043EA0241816170470AB181619F
:100C600070470904FBE700000148806870470000F6
:100C700004000020024881680278114481607047B6
:100C8000040000200B4810B5016841F400710160B8
:100C9000016841F480610160016841F48071016084
:100CA000032000F09FF80F2000F006F800F050F845
:100CB000002010BD003C024030B505461F4887B0FB
:100CC0000024016841F010010160006806A900F0ED
:100CD0001000009001A800F031F90498A8B100F0CC
:100CE0004DF940001649174AB0FBF1F11648491E6C
:100CF000026040F2E732C0E90324C0E901148461D4
:100D000000F08CFB040003D015E000F037F9E9E7B0
:100D10000D4800F0C5FB04000DD1362000F034F87A
:100D2000102D07D200222946362000F03BF8074854
:100D3000056000E0012407B0204630BD4038024085
:100D400040420F0000100040700100200800002009
:100D50000C4882B0016841F480410160006800F4F1
:100D6000804000900748001F016841F080510160F9
:100D70000068002200F0805000900F21901E02B009
:100D800000F010B844380240002809DB00F01F02D0
:100D9000012191404009800000F1E020C0F80011DD
:100DA00070470000F0B40E4B1B680C46C3F30223DF
:100DB000C3F10705042D00D90425191D072901D207
:100DC000002300E0DB1E012606FA05F1491E214042
:100DD00099409E40761E16403143F0BC01F0C4B8E5
:100DE0000CED00E0064900F0070208684FF6FF032B
:100DF000184040EA0220034A104308607047000090
:100E00000CED00E00000FA052DE9F0470E46050064
:100E100065D0DFF81481D8F80000F7B200F00700C1
:100E2000B04207D288F80070D8F8000000F0070040
:100E3000B04254D128683D4C810712D5400703D5F4
:100E4000206840F4E05020602878000703D520682F
:100E500040F4604020602068A96820F0F00008435A
:100E600020602878C0072DD03049686808390128EB
:100E700012D0022813D0032811D00968890700294D
:100E80002DDA216821F0030101432160FFF7ECFE18
:100E9000814641F2883A0EE009688903EFE7096864
:100EA0008901ECE7FFF7E0FEA0EB0901514502D90B
:100EB0000320BDE8F0872068696800F00C00B0EB03
:100EC000810FEFD1D8F80010404601F00701B14280
:100ED00007D90770006800F00700B04201D0012078
:100EE000E7E72878400705D52068E96820F4E05056
:100EF000084320602878000706D52068296920F477
:100F0000604040EAC100206000F058F82168084ABB
:100F1000C1F30311515CC8400649086006480068E7
:100F2000FFF7CAFE0020C4E7003C02400838024038
:100F3000E439000810000020080000200F220260A1
:100F40000C4A136803F003034360136803F0F003D3
:100F50008360136803F4E053C36012684FF4E053F6
:100F600003EAD20202610448006800F0070008604A
:100F70007047000008380240003C02400448054920
:100F800000680968044AC1F38221515CC840704777
:100F90001000002008380240F439000804480549D0
:100FA00000680968044AC1F34231515CC840704787
:100FB0001000002008380240F4390008154810B528
:100FC000006810F00C02144813D04110042A0FD00E
:100FD000082A0ED10F4C241F2268236802F03F021A
:100FE0005B0207D52068C0F38810A0FB010106E072
:100FF000084610BD2168C1F38811A1FB0001002340
:10100000FFF73EF92168C1F30141491C4900B0FBDB
:10101000F1F010BD083802400024F4002DE9F84F2B
:1010200004006ED02078DFF84C93C007A9F10405C6
:101030004AD009F104000168C1F38101012908D0F7
:101040000068C0F3810002280AD1D9F800004002EC
:1010500006D52868800337D560680028E1D033E0E2
:101060006068B0F5803F10D0B0F5A02F286810D090
:1010700020F480302860286820F480202860606890
:10108000A8B1FFF7F1FD06460DE0286840F4803076
:10109000F4E740F480202860F7E700BFFFF7E4FDA5
:1010A000801B642873D828688003F7D50CE0FFF70D
:1010B000DBFD064605E000BFFFF7D6FD801B642878
:1010C000F0D828688003F7D42078DFF8AC82800756
:1010D0004FF0000A3ED5A748001D016811F00C0F23
:1010E00008D00068C0F3810002280BD1D9F80000B5
:1010F000400207D42868800716D5E068012800D18F
:1011000012E033E1E068B8B10120C8F80000FFF751
:10111000ABFD064605E000BFFFF7A6FD801B0228D9
:10112000C0D828688007F7D52868216920F0F80022
:1011300040EAC10028600DE0C8F800A0FFF794FD68
:10114000064604E0FFF790FD801B02281FD82868A0
:101150008007F7D42078000722D5864F8748616939
:10116000703771B101210160FFF77EFD064604E092
:10117000FFF77AFD801B022809D838688007F7D569
:101180000EE0C0F800A0FFF76FFD064605E082E024
:10119000FFF76AFD801B02287DD838688007F7D4E6
:1011A0002078400768D5DFF8CCB100270BF13C0B65
:1011B000DBF80000C0000BD4DBF8001041F08051D8
:1011C000CBF80010DBF80000012700F08050009001
:1011D0006B4E3068C00510D4306840F480703060C9
:1011E000FFF742FD009005E0FFF73EFD0099401A31
:1011F000022850D83068C005F6D55E4EA0686C361F
:1012000001280FD00528306810D020F00100306090
:10121000306820F004003060A068B8B1FFF724FD0A
:1012200000900FE0306840F00100F4E740F0040067
:101230003060F7E7FFF718FD0099411A41F2883056
:10124000814266D830688007F4D50EE0FFF70CFDC8
:10125000009007E0FFF708FD0099411A41F288303D
:10126000814256D830688007F4D42FB1DBF80010E3
:1012700021F08051CBF80010A069C8B33D49091D89
:101280000968C1F3810102294AD00228504607D0DB
:10129000C8F8600000E03CE0FFF7E6FC04463BE0F5
:1012A0004746C8F86000FFF7DFFC064605E000BFD0
:1012B000FFF7DAFC801B02282BD828688001F7D4BE
:1012C000D4E907010843A16A2E4A490802EB01410B
:1012D000626A41EA8211084394F82C1040EA0161E5
:1012E000C9F8001001203866FFF7BEFC044606E08E
:1012F0003EE000BFFFF7B8FC001B022809D82868B1
:101300008001F7D534E000BFFFF7AEFC001B0228D8
:1013100002D90320BDE8F88F28688001F4D427E0C3
:101320000128F7D0D9F80000E26900F48001914269
:101330001CD1226A00F03F01914217D147F6C071DB
:10134000626A0140B1EB821F10D1A26A4FF0FF33F5
:1013500000F4403103EB5202B1EB024F06D194F896
:101360002C1000F07060B0EB016F01D00120D1E7CC
:101370000020CFE70438024000004742800E474279
:10138000007000400000FFFF7047704770B590F894
:101390003C20012A32D0012480F83C40022280F80F
:1013A0003D2003685A689D6822F070060A6832433F
:1013B0005A60134B02689A4214D0B2F1804F11D098
:1013C000104B9A420ED0104B9A420BD00F4B9A42C0
:1013D00008D00F4B9A4205D00E4B9A4202D00E4BCA
:1013E0009A4204D1496825F080031943916080F83E
:1013F0003D40002180F83C10084670BD022070BDC1
:10140000000001400004004000080040000C0040C3
:1014100000040140004001400018004010B50400E5
:1014200003D094F83D0010B107E0012010BD00206A
:1014300084F83C00204600F01FF8022084F83D00AC
:10144000211D206800F0FCFB012084F8460084F890
:101450003E0084F83F0084F8400084F8410084F89E
:10146000420084F8430084F8440084F8450084F87E
:101470003D00002010BD000008B500680649884204
:1014800008D10648016841F002010160006800F0DF
:101490000200009008BD00000004004040380240F7
:1014A00090F83D10012901D001207047022180F8F9
:1014B0003D100168CA6842F00102CA600068114923
:1014C000884214D0B0F1804F11D00F4988420ED01D
:1014D0000E4988420BD00E49884208D00D498842F7
:1014E00005D00D49884202D00C49884204D1816858
:1014F00001F00701062903D0016841F001010160F4
:101500000020704700000140000400400008004037
:10151000000C004000040140004001400018004061
:1015200070B5044690F83C000025012817D001262C
:1015300084F83C60022084F83D002068826822F034
:10154000770222F47F4282600868502838D00DDC90
:1015500020284FD005DC90B3102811D14AE002209A
:1015600070BD302846D040280AD13BE060282FD0FB
:1015700070280DD0B0F5805F03D0B0F5005F12D0B9
:10158000012584F83D60002084F83C00284670BDA9
:10159000CB68D1E90121206800F0BAFB206881689E
:1015A00041F0770109E0CB68D1E90121206800F022
:1015B000AFFB2068816841F480418160E1E719E078
:1015C000CA684968206800F0B5FB5021206806E031
:1015D000CA684968206800F0BEFB6021206800F0FE
:1015E000A1FBCEE7CA684968206800F0A3FB402150
:1015F0002068F4E7226801461046F0E770472DE9BD
:10160000F04104460068C66805694FF00007A90765
:1016100013D5B10711D5F91E01610120207720688B
:1016200080698007204602D0FFF7E8FF04E000F061
:101630007EF8204600F07CF82777680716D57007FB
:1016400014D521686FF0040008610220207720681B
:10165000806910F4407F204602D0FFF7CFFF04E0FE
:1016600000F065F8204600F063F82777280715D5C5
:10167000300713D521686FF0080008610420207737
:101680002068C0698007204602D0FFF7B7FF04E05A
:1016900000F04DF8204600F04BF82777E80616D505
:1016A000F00614D521686FF010000861082020773B
:1016B0002068C06910F4407F204602D0FFF79EFFEB
:1016C00004E000F034F8204600F032F82777E8070D
:1016D00008D0F00706D021686FF0010008612046AD
:1016E00000F028F8280608D5300606D521686FF0E6
:1016F000800008612046FFF747FE680608D570069F
:1017000006D521686FF040000861204600F01CF803
:10171000A8060AD5B00608D521686FF02000086138
:101720002046BDE8F041FFF730BEBDE8F0817047CC
:101730007047000000680349884201D1FFF79ABA58
:101740007047000000100040704770B5040004D0DE
:1017500094F84100002510B106E0012070BD84F826
:101760004050204600F024F8242084F841002068EE
:10177000C16821F40051C160204600F025FB2068BB
:10178000016921F4904101612068416921F02A0139
:1017900041612068C16841F40051C1606564202046
:1017A00084F8410084F842006563002070BD0000A9
:1017B00010B586B0044614216846FEF7ABFD144907
:1017C0002068884221D113480021026842F01002AB
:1017D0000260006800F0100005900E48143802689E
:1017E00042F001020260006800F0010005904FF431
:1017F000C06000900220CDE9010103200390072082
:10180000049069460448FFF729F906B010BD0000AE
:101810000010014044380240000002402DE9F84326
:10182000044690F84100984616460D46202802D0FE
:101830000220BDE8F88385B17EB1002060642120DC
:1018400084F84100FFF710FAA6848146E684A06878
:101850002027B0F5805F02D003E00120E9E720698E
:1018600010B12E4600250EE000260CE08021204617
:1018700000F030FBA8B9C6B116F8010B216848602A
:10188000E08C401EE084E08C4B464FF00002CDF827
:1018900000800028EAD14FF04001204600F01AFBFA
:1018A00040B184F841700320C3E735F8020BC0F360
:1018B0000800E3E784F841700020BAE7FEE7000083
:1018C0004FF400710148FFF7C1B900000014024055
:1018D0004FF480610148FFF7B9B9000000140240DD
:1018E0001FB500211548009101910291124A039100
:1018F00002604FF48032C0E901210161017680F875
:1019000020100F4AC0E90A210124C461C16080F897
:1019100030104461FEF759FF08B1FEF7E9FD0520DC
:10192000CDE90004694605480294FEF7EFFD002862
:1019300001D0FEF7DDFD1FBD002001409800002012
:101940000100000F10B5044A0021044800F08EFC8D
:101950000349086010BD0000C0390008FD200008E0
:101960000000002070B586B014216846FEF7D2FC56
:1019700016480024016841F020010160016801F06F
:1019800020010591016841F080010160016801F0CA
:1019900080010591016841F00101016000680C4E71
:1019A00000F001004FF4C065059001222946304641
:1019B000FFF754F901200095CDE90104694630464E
:1019C0000394FFF74BF806B070BD000030380240BA
:1019D0000014024010B586B0002418480094019409
:1019E00002940394049414490594016042F2CF01D7
:1019F000C0E9011440F2E731C0E903148461FFF744
:101A00000DFD08B1FEF774FD4FF48050009069465B
:101A10000A48FFF785FD08B1FEF76AFD2020CDE9F1
:101A2000040404A90548FFF7B1FC002801D0FEF723
:101A30005FFD06B010BD000000040040E000002083
:101A40000C4810B50A4901604FF4E13141600021B2
:101A500081600C22C160C0E904128161C161FFF79D
:101A600074FE002803D0BDE81040FEF741BD10BD54
:101A700000100140280100201021FEF74BBC00009F
:101A8000FEB5C27A9AB182899142134601D9CB1A26
:101A900000E05B1A9BB20024052B07D9837B5B1CFB
:101AA000DBB28373032B01D21046FEBD8473827AAE
:101AB00020F81210817A0522491CB1FBF2F302FBD7
:101AC00013118172C17A052901D2491CC17200210A
:101AD0006A46C57A06E000BF30F8113022F81130AE
:101AE000491CC9B28D42F7D8012313E032F81340E4
:101AF000591E03E002EB4107491E7E8049B20029CE
:101B000003DB32F81160A642F4D802EB41015B1C02
:101B10004C80DBB29D42E9D825F00101515A818108
:101B20000846FEBDFEE71C21FEF7F4BB10B5437D61
:101B3000027D0A2B02D25B1C437504E030F8124090
:101B400083691B1B836120F8121082690A231144E8
:101B50008161027D521CB2FBF3F403FB1422027577
:101B6000407D01EB5001B1FBF0F080B210BDFEE70B
:101B700010B54FF0E020006901F06CFD012803D0A2
:101B8000BDE8104001F09ABA10BD000030B593B026
:101B900030216846FEF7BEFB14210CA8FEF7BAFB05
:101BA0001E480025016841F080510160006800F086
:101BB000805011901A48016841F48041016000682A
:101BC000022400F480401190012000900004019054
:101BD0008001CDE90640082008904FF4A870CDE9B7
:101BE000090404200B906846FFF718FA08B172B692
:101BF000FEE70CA90F2081E831004FF4A0500F90B0
:101C00004FF48050109005210CA8FFF7FDF8002834
:101C100001D072B6FEE713B030BD0000403802407C
:101C2000007000400248016841F470010160704793
:101C300088ED00E00148FFF7E2BC000070010020E1
:101C4000F0B50268274B284D284E294F294C4FF0FC
:101C5000804C984209D0604507D0A84205D0B042D8
:101C600003D0B84201D0A04204D122F0700E4A68DD
:101C700042EA0E0298421BD0604519D0A84217D004
:101C8000B04215D0B84213D0A04211D01A4DA8428C
:101C90000ED01A4DA8420BD0194DA84208D0194DAC
:101CA000A84205D0184DA84202D0184DA84203D131
:101CB00022F44075CA682A434D6922F080022A4303
:101CC0008D68C5620D688562984201D0A04201D13D
:101CD00009690163016841F004010160012141616A
:101CE0000260F0BD00000140000400400008004018
:101CF000000C00400004014000400140004401404D
:101D00000048014000180040001C00400020004036
:101D100010B5846842EA032224F47F440A43224334
:101D2000826010BD826822F070020A4342F007010F
:101D30008160704710B5036A046A24F001040462EC
:101D4000846924F0F00444EA021423F00A020A43EE
:101D50008461026210BD10B5036A046A24F01004A5
:101D60000462846923F0A00324F4704444EA02323C
:101D700043EA01118261016210BD01680C3151E832
:101D8000002F22F4907241E80023002BF5D1016866
:101D9000143151E8002F22F0010241E80023002B0A
:101DA000F5D1016B012909D101680C3151E8002FEF
:101DB00022F0100241E80023002BF5D1202180F809
:101DC000421000210163704770B504460068016944
:101DD000E26821F44051114301612169A068E26980
:101DE00008436169114308432168CA6849F20C63DA
:101DF0009A430243CA6020684169A26921F4407194
:101E00001143416131492068884202D030498842FB
:101E100002D1FFF7C3F801E0FFF7B0F8E269002351
:101E2000192164253226B2F5004F626828D0A0FB44
:101E30000101930F9200FEF723FA0146B0FBF5F083
:101E40006FF01802504301EB800006EB0010B0FB6E
:101E5000F5F000F0F002B1FBF5F002EB0012B1FB7F
:101E6000F5F06FF01803584301EB800006EB00100B
:101E7000B0FBF5F000F00F0021681044886070BDE1
:101E8000A0FB010192185B41FEF7FAF90146B0FB95
:101E9000F5F00201B1FBF5F06FF01803584301EBC8
:101EA000800006EBC000B0FBF5F000F0F80002EB9C
:101EB0004002B1FBF5F0584301EB800006EBC00097
:101EC000B0FBF5F000F00700D6E70000001001407D
:101ED000001401402DE9F843984617460D46044684
:101EE000089E24E0701C22D0FEF7BEFEA0EB080086
:101EF000B0421AD8CEB12068C168490717D5802DE5
:101F000015D0402D13D00168C94309070FD40168CB
:101F10000025406800902046FFF72FFF08206064EE
:101F200084F840500120BDE8F8830320FBE72068D7
:101F3000006835EA000004D00020B842D2D000206A
:101F4000F1E70120F9E7FEE70FB4054B10B503A94F
:101F5000044A029800F028F810BC5DF814FB000059
:101F600011210008940000200907090E002804DB55
:101F700000F1E02080F80014704700F00F0000F13D
:101F8000E02080F8141D704702E008C8121F08C145
:101F9000002AFAD170477047002001E001C1121FEA
:101FA000002AFBD1704700002DE9FF4F89B09B4606
:101FB0000446002506E025280BD05A460B99904789
:101FC000641C6D1C20780028F5D10DB02846BDE8B2
:101FD000F08F0027B8460122474900E0074314F874
:101FE000013F203B02FA03F00842F7D120782E2867
:101FF00019D114F8010F47F004072A280ED06FF00A
:102000002F022078A0F1300109290CD808EB8801B3
:1020100002EB410100EB0108641CF2E70A98641C22
:1020200050F8048B0A9020780028CED0642808D07D
:10203000692806D075281ED05A460B9990476D1C0A
:1020400058E00A994FF00A0901C90A91002802DAFA
:1020500040422D2102E0390504D52B218DF82010B6
:10206000012103E0F90704D02021F7E78A4608AEF2
:102070000DE00021FAE70A994FF00A0901C90A9117
:10208000F7E74946FEF751F9303106F8011D0028FF
:10209000F7D1ADEB060000F12009780701D44FF02D
:1020A0000108C84502DDA8EB090000E000208046D9
:1020B000002706E008A85A46C05D0B9990476D1CA2
:1020C0007F1C5745F6DB04E030205A460B999047B9
:1020D0006D1CB8F10001A8F10108F5DC05E016F867
:1020E000010B5A460B9990476D1CB9F10001A9F1FB
:1020F0000109F4DC641C65E7092801004FF4FA7457
:10210000FFF7DEFBFFF7E4FB204600F073F8F7E78C
:1021100013B54FF0FF33012269460248FFF77EFBFB
:1021200000981CBD280100208CB0FEF7ABFDFFF726
:102130002DFDFFF717FCFFF783FCFFF74BFCFFF7C4
:10214000CFFB1CA0FFF700FF7B211EA0FFF7FCFECA
:1021500007A8FFF791FC6846FFF7E5FC00F058F888
:10216000FFF7F0FB00F066F84FF4FA751948FEF738
:10217000E5FBC8211748FEF78BFB98B91548FEF719
:102180008AFAC0F30B0040F6E44110FB01F0040BA7
:102190002246694607A8FEF7ADF9024621460EA081
:1021A000FFF7D2FEFFF78CFBFFF792FB2846FEF706
:1021B00043FCDBE768656C6C6F2073746D33320D24
:1021C0000A00000076616C7565203D2025640D0ACB
:1021D0000000000098000020566F6C743A256420BF
:1021E000566F6C745F66696C7465723A25640D0A8B
:1021F0000000000010B5EFF3058111B16FF0050488
:1022000003E0002408B100F0F9FD204610BD0000F5
:10221000EFF3058010B16FF00500704704480168C6
:1022200011B14FF0FF30704701210160002070476D
:102230006400002010B5EFF3058010B16FF00500C9
:1022400010BD08480168012902D04FF0FF3010BDD1
:10225000054A002182F8141D0221016000F036FEBB
:10226000002010BD640000200BE000E02DE9FF41DC
:102270004FEA01034FF00005EFF30581039549BBD9
:1022800040B38027182100244AB3166806B13446AB
:1022900096691EB13146761E382E02D21679F6079F
:1022A00003D0002004B0BDE8F081566906B1B7083C
:1022B000D2F808C0BCF1000F0DD0D5685C2D18D342
:1022C00012693AB136B18DE806103A46214601F05E
:1022D00096F903900DE0D6685EB912694AB903AA6F
:1022E000CDE90012BAB2214601F05CF9012800D014
:1022F00003950398D6E700002DE9F041134C0F46F3
:102300000546E6682068001D00F044FC681C07D103
:1023100037B12168BDE8F0410D48091D00F08ABCC5
:1023200020683544B5424560216805D2A06BBDE800
:10233000F041091D00F066BC606B091D00F062FCF5
:10234000A06A854200D2A562BDE8F0811400002099
:10235000A80600202DE9F041054600F077FC2D4C41
:10236000A068401CA06020682B4F10B1606930B39A
:102370002BE02560A068012827D1002606EB860007
:1023800007EB800000F030FC761C382EF6D3234893
:1023900000F02AFC2148143000F026FC1F482830A9
:1023A00000F022FC1D483C3000F01EFC1B48503061
:1023B00000F01AFC194860631430A06305E020683F
:1023C000E96AC06A884200D82560606A401C606281
:1023D0006864E86A2169884200D9206100EB8000C6
:1023E00007EB8000291D00F025FC00F04FFC606920
:1023F00000280CD02068E96AC06A884207D20849E0
:102400004FF080500860BFF34F8FBFF36F8FBDE870
:10241000F081000014000020F80100205806002080
:1024200004ED00E038B500F011FC104C2068C8B98C
:102430000F4800F0D9FB0E48143000F0D5FB0C48D3
:10244000E060143020610A4B0020F03B009003F163
:10245000500210210A2000F047FE206010B105A1B3
:1024600000F096FCBDE8384000F010BC50000020A1
:10247000AC070020546D72510000000030B4026CB3
:102480000B46002A0BD0C1681144C1608468A14288
:1024900001D30168C16030BC1846FDF722BF30BCD3
:1024A00070472DE9F041856B174604460026026C03
:1024B00082B1C7B1E068FDF714FFE168206C091A2A
:1024C000E1602268914202D2A168081AE060022FFE
:1024D00016D017E02068A8B9A06801F033F90646C5
:1024E0000020A0600EE06068FDF7FBFE216C6068D4
:1024F00008446060A168884204D32068606001E0FD
:1025000005B16D1E6D1CA5633046BDE8F08110B5A8
:10251000044690F8590058B101280CD002280FD079
:10252000502080F31188BFF34F8FBFF36F8FFEE70A
:10253000206B00F0BFFB2046BDE8104000F0BABBA6
:1025400010BD000010484FF47051420706D0C01D66
:102550000D4920F00700411AC1F570510B4A0023C4
:102560000144C2E900030839183A21F0070111605B
:102570004B600B600B1AC0E9001393604FF00040F2
:1025800053605061704700008C0E002080000020D6
:10259000144E154CA6F29C474FF08058DFF84C9033
:1025A00012E000BF00F052FBF068C568281D00F083
:1025B000F1FAA068401EA0606068401E606000F0F4
:1025C00065FB2846FFF7A3FF60680028EAD138685A
:1025D0000128F9D9C9F80080BFF34F8FBFF36F8F7F
:1025E000F2E70000940600201400002004ED00E053
:1025F00070B51D46049C51B1C4F80020C4E90F0118
:102600000121204600F0A4FD84F84C5070BD2460E8
:10261000F4E700002DE9F05F8846DDE90B941546EC
:10262000834691009A460A9EA522206BFDF76BFE19
:102630006FF00301206B01EB8501084420F00707D0
:10264000780707D0502080F31188BFF34F8FBFF376
:102650006F8FFEE70025B8F1000F0FD05FF000008C
:10266000221818F8001082F8341018F8001011B170
:10267000401C1028F4D384F8435001E084F834500F
:10268000382E00D33726E662C4E91365201D00F01A
:10269000B6FA04F1180000F0B2FA2461C6F138006D
:1026A0006462A061656584F85850524659463846C0
:1026B00000F05AFA2060B9F1000F01D0C9F80040CB
:1026C000BDE8F09F30B5114900E011460A6882422A
:1026D000FBD34B685C18844203D1406818444860BF
:1026E000084643681C18944209D1084C183C2468D9
:1026F000A24209D052681A4442600A681268026015
:10270000814200D0086030BD0460F9E780000020FD
:1027100070B5002441600B4D0061914206D8D11A7A
:102720008269914206D2011D286907E09A4203D2CC
:10273000994201D3012403E0011DE86800F062FA28
:10274000204670BD5000002010B5044600F07EFA0F
:10275000A06B28B15FF0000400F098FA204610BD8D
:102760000124F9E730B589B03C4D6EE004980028AB
:1027700006DADDE90601059A90470498002864DB33
:10278000069C606910B1201D00F004FA03A800F057
:10279000D7F8024604980A2857D2DFE800F005056A
:1027A000052D334A05052D3394F8280040F001002B
:1027B00084F828000599A069059B01442046FFF78D
:1027C000A7FF68B3216A2046884794F8280040078D
:1027D0003BD5002000900598A169002342181946B6
:1027E000204601F0B9F8D8B9502080F31188BFF322
:1027F0004F8FBFF36F8FFEE714F8280F20F0010012
:10280000207022E094F8280040F0010084F82800AD
:102810000598A06128B1811813462046FFF778FF7C
:1028200013E0502080F31188BFF34F8FBFF36F8FF9
:10283000FEE794F82800810703D4204600F03AFA16
:1028400003E020F0010084F82800002204A9286891
:1028500000F0D2FD002889D109B030BD5000002021
:102860002DE9FC410F46054600F074FB01A800F07D
:1028700067F80446019818B100F0DCFFBDE8FC8160
:10288000254EAFB130690068D0B30027291B3A4606
:10289000306800F091FA00F0CDFF0028EED11F491A
:1028A0004FF080500860BFF34F8FBFF36F8FE5E7A5
:1028B000A542EBD800F0BEFFF0682746C068C468A8
:1028C000201D00F067F994F82800410719D5A06988
:1028D0002B4641193A462046FFF71AFFA8B10020BF
:1028E0000346014600902A46204601F035F860B9BB
:1028F000502080F31188BFF34F8FBFF36F8FFEE737
:1029000007E020F0010084F82800216A204688476B
:10291000B4E70127BAE700005000002004ED00E012
:102920000648416B096829B1416BC968C9684968A3
:10293000816270474FF0FF31FAE700001400002079
:1029400070B5054600F094FE064E0446B068844219
:1029500003D200F009F8012000E0002028602046A2
:10296000B46070BD50000020F8B5194D20E0C0687B
:10297000C4680668201D00F00DF9216A20468847CA
:1029800094F82800400713D5A0693044B04206D916
:1029900024616060211DE86800F034F908E000203F
:1029A0000346014600903246204600F0D5FF38B17C
:1029B000E86801680029DAD12969C5E90310F8BD82
:1029C000502080F31188BFF34F8FBFF36F8FFEE766
:1029D0005000002008484068401C4FF0500080F331
:1029E000118804D0BFF34F8FBFF36F8FFEE7BFF3A3
:1029F0004F8FBFF36F8FFEE788000020074CE06821
:102A0000016841B1C0680021D0F80000FFF728FF3D
:102A1000FFF7A8FEF3E701210020F7E750000020B0
:102A20002DE9F041044600F011F994F9455004F104
:102A3000240609E0606A48B1304600F0C3FE08B1E0
:102A400000F00AFA6D1E6DB2002DF3DC4FF0FF3678
:102A500084F8456000F01AF900F0F8F894F9445051
:102A600004F1100709E0206948B1384600F0AAFED9
:102A700008B100F0F1F96D1E6DB2002DF3DC84F8A1
:102A80004460BDE8F04100F001B900002DE9F041DB
:102A90000546002700F05EFA324E306808B9FFF7AD
:102AA00051FD706905424ED1C5B3083568070ED097
:102AB00005F00700C0F108000544680707D0502062
:102AC00080F31188BFF34F8FBFF36F8FFEE72DB3F5
:102AD0007068854237D82348183001460C6801E0F9
:102AE00020460C466168A94202D221680029F7D12C
:102AF00031688C4227D00768216801606068083718
:102B0000411B10290FD96019420708D0502080F3CB
:102B10001188BFF34F8FBFF36F8FFEE713E0416063
:102B20006560FFF7CFFD61687068401A7060B26839
:102B3000904200D2B060706901430020C4E90001F6
:102B4000F068401CF06000F075FE780707D0502058
:102B500080F31188BFF34F8FBFF36F8FFEE73846C6
:102B6000BDE8F0816800002010B5031F4FF08074AD
:102B70001C601B1F21F001011960191F044B0B6021
:102B800014390A60091F6FF0020244380A6010BD50
:102B9000D5290008D0E9013201699A60D0E9012302
:102BA0005A604A68824201D182684A60002202610A
:102BB0000868401E0860086870470000034B036007
:102BC00003F15C000860802010607047D40700208B
:102BD000044B036003F15C0008604FF480701060E8
:102BE00070470000300A002000F108014FF0FF326A
:102BF000C0E90112C160016100210160704700213C
:102C00000161704730B50B685A1C02D000F1080210
:102C100002E0026904E02246546825689D42FAD920
:102C200053684B6099608A60516008610168491C73
:102C3000016030BD42684A6093688B609368596058
:102C4000916008610168491C01607047502080F361
:102C50001188BFF34F8FBFF36F8F0A494868401C3C
:102C6000486001280CD10848006810F0FF0F07D019
:102C7000502080F31188BFF34F8FBFF36F8FFEE7B3
:102C8000704700008800002004ED00E00849486813
:102C900028B1401E486001D180F311887047502050
:102CA00080F31188BFF34F8FBFF36F8FFEE70000F3
:102CB0008800002070B500282AD0164DA0F1080425
:102CC00060686969084207D1502080F31188BFF31A
:102CD0004F8FBFF36F8FFEE722683AB1502080F329
:102CE0001188BFF34F8FBFF36F8FFEE7884360609B
:102CF00000F030F960686968084468602046FFF7B2
:102D0000E1FC2869401C2861BDE8704000F092BDDC
:102D100070BD0000680000204FF0E020002101613C
:102D2000816105494FF47A720968B1FBF2F1491EDD
:102D300041610721016170471000002010B5FDF7C7
:102D400089FA114910280ED300F1E02090F8F00321
:102D50000A78904207D2502080F31188BFF34F8F3A
:102D6000BFF36F8FFEE709480068896800F4E060F0
:102D7000884207D9502080F31188BFF34F8FBFF3EB
:102D80006F8FFEE710BD0000880000200CED00E012
:102D900010B5084B002200BF53F832401CB1521C42
:102DA000082AF9D310BD43F8321003EBC201486082
:102DB00010BD0000B801002070B515460E4604464F
:102DC000FFF744FF94F944100020491C01D184F816
:102DD000440094F94510491C01D184F84500FFF7DF
:102DE00055FFA06B28B92A46314604F1240000F0B3
:102DF00051F82046BDE87040FFF712BE10B5020042
:102E000014D00F48006B38B1502080F31188BFF305
:102E10004F8FBFF36F8FFEE700F09CF80021104644
:102E2000FFF76AFA00F006FD002807D105494FF0C8
:102E300080500860BFF34F8FBFF36F8F10BD00004D
:102E40001400002004ED00E002490A6A0260C9682B
:102E5000416070471400002001490120C86170479B
:102E60001400002010B50C4650B10949096818310A
:102E7000FFF7C8FE2046BDE810400121FFF73CBA2D
:102E8000502080F31188BFF34F8FBFF36F8FFEE7A1
:102E90001400002070B514460D4668B10A4909684F
:102EA0001831FFF7C7FE0CB14FF0FF352146284619
:102EB000BDE87040FFF720BA502080F31188BFF3BF
:102EC0004F8FBFF36F8FFEE71400002030B587B03F
:102ED0000024039405AA04A903A80494FFF76EFE36
:102EE000DDE903010094CDE90110002315A1174885
:102EF000059A00F084FB164D0028E8621FD000F010
:102F0000FBFC012809D0401C19D1502080F3118806
:102F1000BFF34F8FBFF36F8FFEE7502080F3118810
:102F2000BFF34F8FBFF36F8F4FF0FF30A8620120C8
:102F30006861EC6007B0BDE8304000F045B807B00C
:102F400030BD000049444C450000000091250008B8
:102F5000140000200248016B491C01637047000007
:102F600014000020164810B5016B11B10121C16198
:102F700010BD0021C1610169124A01E0B9B1491EC9
:102F800001EB810352F82330002BF7D001EB8103D2
:102F900002EB830202F1080453685B685360A342AA
:102FA00001D15B685360DA680260016110BD502096
:102FB00080F31188BFF34F8FBFF36F8FFEE70000E0
:102FC00014000020F80100201CB537480168374A7A
:102FD000914207D1502080F31188BFF34F8FBFF388
:102FE0006F8FFEE700683149491E884207D15020A3
:102FF00080F31188BFF34F8FBFF36F8FFEE72C492B
:1030000008780190FF20087008788DF800009DF87E
:1030100000009DF8002000F0F000904207D0502002
:1030200080F31188BFF34F8FBFF36F8FFEE79DF8DA
:103030000000204C00F0500020700720A06005E048
:103040009DF8002052008DF80020401E9DF80020C1
:103050001206F5D4A060032807D0502080F3118811
:10306000BFF34F8FBFF36F8FFEE74FF44070A06048
:10307000019808700C482030016841F4700101602B
:10308000016841F070410160FFF746FE002060607A
:10309000FDF7A8F80848016841F040410160FDF7DC
:1030A0008DF800201CBD000000ED00E071C20F4152
:1030B00000E400E08800002034EF00E010B550206C
:1030C00080F31188BFF34F8FBFF36F8F00F0D6FAF4
:1030D00018B104494FF080500860002080F3118837
:1030E00010BD000004ED00E038B5049D18B153B1E7
:1030F000CAB181B120E0502080F31188BFF34F8F17
:10310000BFF36F8FFEE7502080F31188BFF34F8F1E
:10311000BFF36F8FFEE7502080F31188BFF34F8F0E
:10312000BFF36F8FFEE739B1502080F31188BFF3F2
:103130004F8FBFF36F8FFEE750241C46012384F8A6
:1031400046302B460094FFF753FA204638BD000066
:1031500070B50D46040025D0FFF778FDD4E90F20A7
:10316000216802FB0011A1600021A1632168616058
:103170000A46D4E90F01401E00FB0121E16021460F
:103180004FF0FF3001F8440F487004F110008DB18A
:10319000FFF72AFD04F12400FFF726FDFFF776FD77
:1031A000012070BD502080F31188BFF34F8FBFF313
:1031B0006F8FFEE721690029F0D000F003FB0028A3
:1031C000ECD004494FF080500860BFF34F8FBFF33D
:1031D0006F8FE3E704ED00E02DE9FF4782B01D4665
:1031E0008A464FF00008040003D0BAF1000F08D05F
:1031F00011E0502080F31188BFF34F8FBFF36F8F22
:10320000FEE7206C38B1502080F31188BFF34F8F58
:10321000BFF36F8FFEE7022D0AD1E06B012807D0C4
:10322000502080F31188BFF34F8FBFF36F8FFEE7FD
:1032300000F010FA3F4F4FF000094FF0805648B9A8
:10324000049838B1502080F31188BFF34F8FBFF33B
:103250006F8FFEE7FFF7FAFCA06BE16B884207D3A4
:10326000022D05D00498D0B1B8F1000F1AD01EE09D
:103270002A4651462046FFF714F9616A19B104F154
:10328000240000F09FFA20B13E60BFF34F8FBFF3E0
:103290006F8FFFF7FBFC012006B0BDE8F087FFF75A
:1032A000F5FC22E06846FFF7CFFD4FF00108FFF77D
:1032B000EDFCFFF74FFEFFF7C9FC94F94400401CFA
:1032C00001D184F8449094F94500401C01D184F860
:1032D0004590FFF7DBFC04A9684600F029F930B1FE
:1032E0002046FFF79DFB00F0A5FA0020D4E7FFF78A
:1032F000ADFCA06BE16B884213D1FFF7C7FC04F172
:1033000010000499FFF7AEFD2046FFF789FB00F09F
:1033100091FA00289ED13E60BFF34F8FBFF36F8FAD
:1033200098E7FFF7B3FC2046FFF77AFB00F082FA3C
:1033300090E7000004ED00E02DE9F0471F469046BD
:103340008946040003D0B9F1000F08D011E05020E5
:1033500080F31188BFF34F8FBFF36F8FFEE7206CB0
:1033600038B1502080F31188BFF34F8FBFF36F8FB8
:10337000FEE7022F0AD1E06B012807D0502080F32E
:103380001188BFF34F8FBFF36F8FFEE7FFF7D6FCB7
:103390005020EFF3118680F31188BFF34F8FBFF3F6
:1033A0006F8FA06BE16B884206D3022F04D0002000
:1033B00086F31188BDE8F08794F94550A06B3A4632
:1033C00049462046FFF76DF8681C04D06D1C84F850
:1033D00045500120ECE7606A0028FAD004F124008F
:1033E00000F0F0F90028F4D0B8F1000FF1D001217D
:1033F000C8F80010EDE700002DE9F747002683B07C
:103400008A46040003D0BAF1000F08D011E0502022
:1034100080F31188BFF34F8FBFF36F8FFEE7206CEF
:1034200038B1502080F31188BFF34F8FBFF36F8FF7
:10343000FEE700F00FF9DFF8F4804FF000094FF0DD
:10344000805748B9059838B1502080F31188BFF3F0
:103450004F8FBFF36F8FFEE7FFF7F8FBA56BC5B18A
:1034600051462046FFF70AF86D1EA563206950B14A
:1034700004F1100000F0A6F928B1C8F80070BFF3FD
:103480004F8FBFF36F8FFFF701FC012006B0BDE83F
:10349000F087059808B11EB106E0FFF7F7FB27E0BB
:1034A0006846FFF7D1FC0126FFF7F0FBFFF752FD5E
:1034B000FFF7CCFB94F94400401C01D184F8449000
:1034C00094F94500401C01D184F84590FFF7DEFBDC
:1034D00005A9684600F02CF8002820460AD0FFF71E
:1034E0009FFA00F0A7F92046FFF72EF90028B3D085
:1034F0000020CBE7FFF728F990B104F124000599EB
:10350000FFF7B0FC2046FFF78BFA00F093F9002894
:10351000A2D1C8F80070BFF34F8FBFF36F8F9BE746
:103520002046FFF77DFA00F085F995E704ED00E00D
:103530002DE9F0410C46050011D0C4B1FFF786FB20
:10354000174BDA686E682068911B471C17D02F68EC
:103550001B6A9F4219D0964217D8012410E05020D0
:1035600080F31188BFF34F8FBFF36F8FFEE75020BA
:1035700080F31188BFF34F8FBFF36F8FFEE70024F6
:10358000FFF784FB2046BDE8F081884205D9401A48
:1035900020602846FFF758FCF1E700202060DCE7B8
:1035A000140000202DE9FF5F8346DDE90E87994670
:1035B00016468A469000FFF769FA05001CD05C2089
:1035C000FFF764FA040014D00020256384F8590042
:1035D000CDE90240CDE900874B4632465146584678
:1035E000FFF718F82046FEF7B5FE012004B0BDE84D
:1035F000F09F2846FFF75EFB4FF0FF30F6E7F0B58F
:1036000085B0DDE90B640A9DA6B1DCB15C270097AB
:103610002663022684F85960002604AFCDE90246ED
:10362000CDE90057FEF7F6FF2046FEF793FE04981B
:1036300005B0F0BD502080F31188BFF34F8FBFF36A
:103640006F8FFEE7502080F31188BFF34F8FBFF3D9
:103650006F8FFEE70548416919B1006B18B1002072
:1036600070470120704702207047000014000020BE
:103670000148C06870470000140000202DE9F041A7
:103680002E4C0027206B28B1A069401CA061384651
:10369000BDE8F081E668761CE66013D1606B0068D7
:1036A00038B1502080F31188BFF34F8FBFF36F8F75
:1036B000FEE7606BA16B6163A063206A401C20621F
:1036C000FFF72EF9A06ADFF87880864209D3606B95
:1036D0000068A0B1606BC068C5686868864211D296
:1036E000A0622068C06A00EB800158F82100012820
:1036F00000D90127E0690028C9D00127C7E74FF0AA
:10370000FF30EDE7281DFFF745FAA86A18B105F16B
:103710001800FFF73FFAE86A2169884200D9206162
:1037200000EB800108EB8100291DFFF783FAE86AAE
:103730002168C96A8842CAD30127C8E7140000205B
:10374000F801002070B504004FF0000133D01B4D8C
:103750002868844207D0502080F31188BFF34F8F30
:10376000BFF36F8FFEE7206D38B1401E2065E36C1C
:10377000E26A9A421FD040B11DE0502080F31188C8
:10378000BFF34F8FBFF36F8FFEE7201DFFF702FAE5
:10379000E06CE062C0F13800A061E06A296988420B
:1037A00000D92861064900EB800001EB8000211D53
:1037B000FFF740FA0121084670BD00001400002008
:1037C000F801002070B5C068C46854B104F1180055
:1037D0000646FFF7DFF9144D286B50B13146134808
:1037E00015E0502080F31188BFF34F8FBFF36F8F28
:1037F000FEE7201DFFF7CEF9E06A2969884200D96B
:1038000028610B4900EB800001EB8000211DFFF7D0
:1038100011FAE06A2968C96A884202D90120E86180
:1038200070BD002070BD0000140000208006002044
:10383000F80100202DE9F0472C4D00242746286B85
:1038400038B1FFF703FA286B401E2863286B40B19C
:1038500046E0502080F31188BFF34F8FBFF36F8F86
:10386000FEE7A968224E0120D1B3A6F591698046F2
:103870003068E0B1F068C46804F11800FFF78AF915
:10388000201DFFF787F9E06A2969884200D928617D
:1038900000EB800109EB8100211DFFF7CBF9E06A05
:1038A0002968C96A8842E3D3C5F81C80E0E70CB1F7
:1038B000FFF736F8AC694CB14FEA0806FFF7DEFEB9
:1038C00000B1EE61641EF9D10020A861E86938B149
:1038D0000849012738070860BFF34F8FBFF36F8F88
:1038E000FFF7D4F93846BDE8F08700001400002047
:1038F0008006002004ED00E010B586B0FEF792FDD2
:10390000114C2068B8B100200390049005AA04A9C6
:1039100003A8FFF75DF9DDE9032102208DE8070028
:1039200000230AA10B48059AFFF769FE606010B1F9
:1039300006B0012010BD502080F31188BFF34F8FD7
:10394000BFF36F8FFEE7000050000020546D72201F
:1039500053766300FD2900082DE9FF411E461346FA
:1039600002000A9D4FF0000016D0144C2768002F6B
:103970000FD0CDE900130292062917DAFFF76AFE8D
:1039800002284FF000030FD0002269462068FFF79D
:1039900023FC04B0BDE8F081502080F31188BFF310
:1039A0004F8FBFF36F8FFEE72A46EEE700233246C4
:1039B00069463846FFF7C0FCEBE7000050000020E6
:1039C000FC390008000000000000000000000000BA
:1039D00000000000000200001800000000000000CD
:1039E00000000000000000000000000001020304CD
:1039F0000607080900000000010203047461736BEC
:103A00004C454400243A00080000002098000000C3
:103A1000881F0008BC3A000898000020F84D0000FC
:103A2000981F0008000000000100000010000000C6
:103A3000000000000024F40000000000000000006E
:103A40000000000000000000000000000000000076
:103A50000000000000000000000000000000000066
:103A60000000000000000000000000000000000056
:103A70000000000000000000000000000000000046
:103A80000000000000000000000000000000000036
:103A90000000000000000000000000000000000026
:103AA0000000000000000000000000000000000016
:0C3AB000AAAAAAAA000000000000000062
:040000050800018965
:00000001FF
