:020000040800F2
:10000000C04F00205D0200089B2500086522000803
:1000100093250008310A0008732900080000000039
:100020000000000000000000000000009D0100082A
:10003000E50A000800000000F90100089D250008FD
:1000400077020008770200087702000877020008AC
:10005000770200087702000877020008770200089C
:10006000770200087702000877020008770200088C
:10007000770200087702000877020008770200087C
:10008000770200087702000877020008770200086C
:10009000770200087702000877020008770200085C
:1000A000770200087702000877020008770200084C
:1000B000770200087702000877020008770200083C
:1000C000770200087702000877020008770200082C
:1000D000770200087702000877020008770200081C
:1000E000770200087702000877020008770200080C
:1000F00077020008770200087702000877020008FC
:1001000077020008770200087702000877020008EB
:1001100077020008770200086126000877020008CD
:10012000350A000877020008770200087702000805
:1001300077020008770200087702000877020008BB
:1001400077020008770200087702000877020008AB
:10015000770200087702000877020008770200089B
:10016000770200087702000877020008770200088B
:1001700077020008770200087702000800000000FC
:100180007702000877020008DFF80CD000F050FB7F
:1001900000480047D1650008C04F00202C4B19686B
:1001A0000868B0E8F04F80F30988BFF36F8F4FF015
:1001B000000080F3118870470000000008480068C4
:1001C000006880F308884FF0000080F3148862B65E
:1001D00061B6BFF34F8FBFF36F8F00DF00BF00BF6B
:1001E00008ED00E0DFF80C00016841F470010160E7
:1001F000704700BF88ED00E0EFF30980BFF36F8F19
:10020000134B1A681EF0100F08BF20ED108A20E96A
:10021000F04F106009B44FF0500080F31188BFF325
:100220004F8FBFF36F8F07F03DFB4FF0000080F35F
:10023000118809BC19680868B0E8F04F1EF0100F6B
:1002400008BFB0EC108A80F30988BFF36F8F704746
:1002500028000020EFF30580704700000648804723
:1002600006480047FEE7FEE7FEE7FEE7FEE7FEE79B
:10027000FEE7FEE7FEE7FEE75126000889010008D9
:100280002DE9F05F0546002092469B4688460646CB
:10029000814640241BE0284641464746224600F05E
:1002A00014F953465A46C01A914110D311461846C4
:1002B000224600F0FBF82D1A67EB01084F46224654
:1002C0000120002100F0F2F817EB00094E41201E3A
:1002D000A4F10104DFDC484631462A464346BDE826
:1002E000F09F40EA01039B0703D009E008C9121FF1
:1002F00008C0042AFAD203E011F8013B00F8013BE0
:10030000521EF9D27047D2B201E000F8012B491E0B
:10031000FBD270470022F6E710B513460A460446A2
:100320001946FFF7F0FF204610BD2DE9FE4F81EA88
:10033000030404F0004421F0004100944FF0000B4E
:1003400023F0004350EA01045ED052EA03045BD07C
:10035000C3F30A54C1F30A552C44A4F2F3340194B4
:10036000A0FB0254C1F3130141F48011C3F3130342
:1003700043F4801301FB024400FB034E840A970AF6
:1003800044EA815447EA8357A4FB076802958D0A23
:1003900005FB07854FEA932C04FB0C542705029DAF
:1003A0004FEA065847EA1637B5EB08056EEB070C1F
:1003B000870E920E47EA811742EA8312A7FB0201D9
:1003C000B6EB0B0164EB00042B0D43EA0C335E1813
:1003D00044EB1C50DA465146E7FB0201C5F3130417
:1003E0004FEA0B3343EA14534FEA0432019C43EAC9
:1003F0000603A4F10C040294009CCDE900B400F0C3
:1004000083F803B0BDE8F08F00200146F9E70EB590
:1004100040F2334102910021CDE900110A460B461A
:1004200000F072F803B000BDC1F30A5210B5C1F379
:10043000130140F2FF3341F480119A4201DA0020A7
:1004400010BD40F233439A42A2F2334203DC5242DF
:1004500000F03BF810BD904010BD00F0004230F0BD
:1004600000400AD0C10D01F56071C0F3160042EAE8
:100470000151C208400711437047002001467047F0
:1004800030B50B46014600202022012409E021FA64
:1004900002F59D4205D303FA02F5491B04FA02F561
:1004A0002844151EA2F10102F1DC30BD202A04DB34
:1004B000203A00FA02F1002070479140C2F1200377
:1004C00020FA03F3194390407047202A04DB203AB6
:1004D00021FA02F00021704721FA02F3D040C2F164
:1004E0002002914008431946704710B5141E73F15D
:1004F000000408DA401C41F1000192185B411A43E4
:1005000001D120F0010010BD2DE9F04D92469B462F
:1005100011B1B1FA81F202E0B0FA80F220329046D5
:10052000FFF7C4FF04460F4640EA0A0041EA0B0108
:1005300053465A46084313D0114653EA010019D0D6
:10054000C8F140025046FFF7C0FF05460E46504630
:1005500059464246FFF7AAFF084305D0012004E0B0
:1005600020463946BDE8F08D0020054346EAE07696
:100570002C4337430A986305E40AA0EB08000022E5
:10058000FD0A44EA47540A3002D500200146E9E753
:10059000010510196941DDE9084500196941BDE807
:1005A000F04DA2E72DE9FE4F804681EA0300C00F1F
:1005B0000C46009021F0004123F00045B8EB02000A
:1005C000A94105D24046214690461C460B460246AC
:1005D00023F00040104347D0270DC7F30A00C3F3B0
:1005E0000A510290401A019040286BDAC3F31300BD
:1005F00040F4801B0098924620B10023D2EB030AFE
:1006000063EB0B0B01985946C0F140025046FFF7CF
:100610004DFF06460D4650465946019A00F01AF91C
:1006200010EB08006141002487EA115284EAE77365
:100630001A4340D0009A62B3019A012A4FEA075246
:1006400015DC001B61EB02014FF0004202EA075289
:10065000CDE90042001C41F5801132462B46FFF7E0
:1006600053FF03B0BDE8F08F40462146F9E7001B79
:1006700061EB0201001C41F5801300185B4120185A
:10068000A2F5001747EB030140EAD570B6196D419A
:1006900011E06D084FEA360645EAC0754FEA075289
:1006A000001B61EB0201001C41F5801149084FEA73
:1006B00030000019514132462B4603B0BDE8F04FDF
:1006C000FFF713BF0098012240000023D0EB020285
:1006D00063EBE073009821464FEAE074B8EB00004A
:1006E00061EB0401E9E783F000435BE781F000413F
:1006F00058E72DE9F04D81EA030404F0004B21F0A6
:10070000004514464FF0000A23F0004150EA05026C
:1007100020D054EA01021DD0C5F30A570246C5F3A2
:100720001303C1F31300C1F30A5640F4801543F4D8
:100730008013A7EB0608101BD64608F2FD3873EBB2
:10074000050002D308F1010801E092185B41B8F1FD
:10075000000F03DA00200146BDE8F08D00204FF4C1
:100760008011064684460EE0171B73EB050705D380
:10077000121B63EB050306434CEA010C49084FEAE0
:10078000300092185B4150EA0107EDD152EA0300B4
:1007900012D082EA040083EA0501084305D0101B49
:1007A000AB4106D20122002306E000224FF00043B5
:1007B00002E06FF0010253101AEB06004CEB0851F7
:1007C00010EB0A0041EB0B01BDE8F04DFFF78DBEC9
:1007D000C1F30A52C1F3130140F2FF3341F4801117
:1007E0009A4202DA00200146704740F233439A42AF
:1007F000A2F2334202DC5242FFF767BEFFF756BE59
:1008000030B5041E71F1000404DB4FF00044404297
:1008100064EB0101141E73F1000405DB1C464FF06C
:100820000043524263EB0403994208BF904230BD3B
:10083000064C074D06E0E06840F0010394E807002D
:1008400098471034AC42F6D3FFF7A2FC04B300087B
:1008500024B30008202A06DBCB17203A41FA02F025
:1008600043EAE07306E041FA02F3D040C2F120020D
:10087000914008431946704710B50146806B026CE1
:1008800012F0500F05D0026CD20626D500F063FAA4
:1008900010BD016C41F40071016401688A6812F0B6
:1008A000405F17D1027EAAB9CA6A12F4700F02D053
:1008B0008A6852050ED44A6822F020024A60016C10
:1008C00021F480710164016CC90403D4016C41F00E
:1008D0000101016400F020FA10BD806BC26CBDE81C
:1008E00010400846104710B5806B40210164416CF0
:1008F00041F00401416400F02EFA10BD10B5806B88
:1009000000F028FA10BD0000464910B54A6822F4EC
:1009100040324A604A6843681A434A6001684A683C
:1009200022F480724A6001684A68036942EA03223D
:100930004A6001684A6822F040724A6001684A6869
:1009400083681A434A6001688A6822F400628A60F8
:1009500001688A68C3681A438A60816A6FF07062AE
:10096000D14201688A6822F070628A6001688A68F0
:100970000CD0836A1A438A6001688A6822F0405268
:100980008A6001688A68C36A1A4301E022F0405213
:100990008A6001688A6822F002028A6001688A68B7
:1009A000037E42EA43028A6090F820100029016821
:1009B0004A680FD042F400624A6001684A6822F433
:1009C00060424A6001684A68174C436A04EB43334B
:1009D0001A4301E022F400624A600168CA6A22F404
:1009E0007002CA620168CA6A838B104C04EB03531D
:1009F0001A43CA6201688A6822F400728A60016838
:100A00008A6890F8303042EA43228A6001688A6836
:100A100022F480628A6001688A68406942EA802024
:100A2000886010BD0023014000E0FFFF0000F0FFE0
:100A3000FEE70000014800F0B3BA00000401002006
:100A400001681823CAB2103AB2FBF3F2054B6FF3F8
:100A50000901032A9B5CC36500D9091D816508460D
:100A6000704700005483000810B5014600208B69D0
:100A70008A6A4FF0C07453B1B3F5005F15D072B1FC
:100A8000012A0CD0022A0AD0032A09D104E01AB1A3
:100A9000012A06D0022A03D1C96AC90100D5012062
:100AA00010BDC96AA142FAD010BD002AF7D0012AB0
:100AB000F2D0022AF3D0032AF3D010BD30B5046877
:100AC000256825F480252560046863608368402BD1
:100AD000036803D099600068C26030BD9A60006806
:100AE000C16030BD704772B6FEE7000030B5B3F5A7
:100AF000804F05D06FF0704140F82210002030BDCB
:100B00008C690B688D6823434C688989240144EA09
:100B10000524234343EA014150F82230014C23408D
:100B20001943E9E70000F0CF10B50A6850F8223009
:100B300023F0010340F822308C68082C23D00023D6
:100B40004A682243CC681C430B6922431A434B6911
:100B50000E4C1A43CB691A430B6A1A434B6A1A4369
:100B60008B6A1A43CB6A1A430B6B1A438B69134384
:100B7000CA6B09681A4350F82130A343134340F865
:100B80002130002010BD4023DAE700007FFF0F0076
:100B900030B5D1E9003443EA04138C688D8924020E
:100BA00044EA054423430C8A074D00EB820005EB21
:100BB000045423430C7D6D0105EB046489692343D0
:100BC0000B434360002030BD0000F0FF78B50024E7
:100BD000009490F83C20012A19D0012280F83C2092
:100BE0000A6807230568092A13D9EE680A3A02EB56
:100BF000420293409E43EE600B788A680A3B03EB07
:100C000043039A400368DD682A43DA6010E002205B
:100C100078BD2E6902EB420293409E432E610B7811
:100C20008A6803EB43039A4003681D692A431A61EB
:100C30004A681F23072A13D205686E6B521E02EB07
:100C4000820293409E436E630B790A885B1E92B2C8
:100C500003EB83039A4003685D6B2A435A6327E0E2
:100C600005680D2A12D22E6BD21F02EB820293402E
:100C70009E432E630B790A88DB1F92B203EB83033A
:100C80009A4003681D6B2A431A6311E0EE6A0D3A1D
:100C900002EB820293409E43EE620B790A880D3B81
:100CA00092B203EB83039A400368DD6A2A43DA6257
:100CB000164B0568144A9D4206D10D68122D03D1CA
:100CC000556845F48005556005689D4218D10B684C
:100CD000102B01D0112B13D1536843F40003536040
:100CE000096810290CD10A490A4A0968B1FBF2F1D6
:100CF00001EB8101490000E0491E00910029FBD170
:100D000080F83C40002078BD0023014000200140D5
:100D10002000002040420F0008B50021009100682B
:100D2000094988420FD109486946006806F0E2FC8B
:100D30000098002807D006494FF080500860BFF3A4
:100D40004F8FBFF36F8F08BD0020014000000020CF
:100D500004ED00E07047704770B504004FF00005E7
:100D600003D0206C002610B107E0012070BD2046A2
:100D700000F01CF8666484F83C60206CC00610D457
:100D8000206C20F4885040F0020020642046FFF7D9
:100D9000BBFD6664206C20F0020040F0010020647E
:100DA00000E0012584F83C60284670BD70B586B02F
:100DB000064614216846FFF7ADFA1E49306888429E
:100DC00035D11D480025016841F48071016000683B
:100DD00000F48070059018481438016841F0010152
:100DE00001600068694600F001000590F020009065
:100DF0000320CDE90105114800F098FA114C104884
:100E0000C4E900050015A560C4E9035080006061D5
:100E10008000A0618011E0610002C4E9080520465D
:100E200000F08EF908B1FFF75EFEB463A66306B06A
:100E300070BD000000200140443802400000024024
:100E40001064024004010020F8B50E46002104465B
:100E5000009190F83C0013460A46012807D0012073
:100E600084F83C0020688568ED0702D011E002207C
:100E7000F8BD856845F0010585604048404D006833
:100E8000B0FBF5F000EB400000E0401E00900028B1
:100E9000FBD120688568ED0503D5856825F480754C
:100EA000856020688568ED075DD0226C40F20165A1
:100EB000AA4342F4807222644068400505D5206C44
:100EC00020F4005040F480502064206CC00404D50D
:100ED000606C20F00600606400E0616484F83C10FF
:100EE000A16B2948274DC863A16B28480864A16BF2
:100EF0002748C86421686FF02200086020684168B4
:100F000041F0806141602068816841F480718160B6
:100F1000216832464C31A06B00F07CF902466868CB
:100F20001C49C006206806D0884224D1816811F08F
:100F3000405F13D01FE08842F8D0174B984203D18E
:100F4000D1F80433DB06F1D0144B984213D1D1F819
:100F5000041301F01F011029E8D30CE0816841F06F
:100F60008041816007E0206C40F010002064606CDC
:100F700040F0010060641046F8BD00002000002031
:100F800040420F000023014079080008FD080008D6
:100F9000E708000800200140002101400022014034
:100FA0002DE9F84304464FF00009CDF8009063485E
:100FB0004FF41651A56D0068B0FBF1F72E6894F858
:100FC0005C10082000FA01F131420FD021680A6854
:100FD00052070BD50A6822F004020A6094F85C10EC
:100FE0008840A860606D40F00100606594F85C1076
:100FF0004FF0010808FA01F0304208D02168496931
:10100000090604D5A860606D40F00200606594F8A0
:101010005C1004208840304208D0216809688907A4
:1010200004D5A860606D40F00400606594F85C1021
:1010300010208840304218D021680968090714D56B
:10104000A86020680168490304D50068000308D53A
:10105000A16C07E00168C90503D4016821F008010B
:101060000160216C09B12046884794F85C1020206B
:101070008840304231D021680968C9062DD5A86062
:1010800094F8350005282068016806D0490347D543
:10109000006800031DD4616C1CE021F016010160A2
:1010A0002068416921F080014161206C08B9A06C81
:1010B00020B12068016821F00801016094F85C10FB
:1010C0003F208840A86084F8358084F83490216DF2
:1010D0001FE0E16B09B120468847606D00282BD0E6
:1010E000606DC00714D0052084F8350020680168C1
:1010F00021F0010101600098401C0090B84203D823
:1011000020680068C007F6D184F8358084F83490F0
:10111000E16C002910D001B02046BDE8F04308473B
:101120000168C905D5D4016821F01001016084F877
:10113000358084F83490CCE7BDE8F88320000020A7
:101140002DE9F041044600F0F7F906465CB10220B3
:1011500084F83500002584F834502068016821F0B7
:10116000010101600DE00120BDE8F08100F0E4F92B
:10117000801B052805D920206065032084F83500F0
:10118000F2E720680068C007F0D1226811682048A3
:101190000140D4E901031843D4E90336334318432B
:1011A00063691843A3691843E3691843236A184322
:1011B0000843616A042903D1D4E90B131943084396
:1011C000106020684069666A20F0070130460E43CF
:1011D000012704280CD1A06A0643E06A40B12046EA
:1011E000FFF742FC20B14020606584F83570BAE713
:1011F000206846612046FFF723FC94F85C203F21DD
:1012000091408160656584F835700020ACE700008E
:101210003F8010F02DE9F0410446866D90F83400CF
:10122000002501280DD0012084F8340094F8357091
:101230000020012F07D084F8340002252846BDE89D
:10124000F0810220FBE7022784F8357060652046B4
:10125000FFF734FC94F85C103F208840B0602068B1
:10126000016841F016010160206C20B1206801681E
:1012700041F0080101602068016841F0010101604E
:10128000DCE700002DE9F04186B014216846FFF745
:1012900041F820480168002939D1012101601E4828
:1012A0000024016841F00101016000684FF480589A
:1012B00000F001000C27CDF80080CDE90470032672
:1012C00002250396CDE901546946144800F02EF832
:1012D0004FF68070CDE9000502AA694682E8D00089
:1012E0000F4800F023F84CF23370CDE9000502AA54
:1012F000694682E8D0000B4800F018F802AA694657
:1013000082E8D000CDE90085074800F00FF806B06C
:10131000BDE8F0810C000020383802400014024083
:1013200000100240000C0240001802402DE9F84F66
:10133000DFF8BCA10022012503264FF00F090AF1B6
:10134000040BAAF1040E00BF0B6805FA02F4234057
:10135000A34270D10F7907F00307012F01D0022FAC
:1013600016D187684FEA420806FA08FC27EA0C07FC
:10137000D1F80CC00CFA08FC4CEA070CC0F808C005
:101380004768A7430C79C4F3001494403C4344607D
:101390000C79E443A4070AD0C4684FEA420C06FA69
:1013A0000CF7BC438F6807FA0CF72743C7600C792A
:1013B00004F00304022C12D1D40800EB840CDCF8F6
:1013C00020405707FF0E09FA07F824EA0804D1F86D
:1013D000108008FA07F848EA0408CCF8208004686E
:1013E0004FEA420C06FA0CF7BC430F7907F00307EB
:1013F00007FA0CF7274307604C6814F4403F70D09D
:101400003C4C276847F480472760246822F0030794
:1014100004F480440094384C07EB040CDCF80848D2
:1014200097074FEA177809FA08F7BC43334FB842D9
:1014300002D1002724E054E0314FB84201D1012706
:101440001EE0304FB84201D1022719E02E4FB842BA
:1014500001D1032714E02D4FB84201D104270FE03A
:101460002B4FB84201D105270AE02A4FB84201D1DB
:10147000062705E0284FB84201D1072700E00827DA
:1014800007FA08F72743CCF80878DAF800405746FF
:10149000D1F804C09C435FEACC2C00D51C433C60CF
:1014A000DBF800405F46D1F804C09C435FEA8C2C17
:1014B00000D51C433C60DEF800407746D1F804C0FC
:1014C0009C435FEA8C3C00D51C433C60084F083FBE
:1014D0003C68D1F804C09C435FEACC3C00D51C4377
:1014E0003C60521C102AFFF42FAFBDE8F88F0000BB
:1014F000083C0140443802400030014000000240F6
:101500000004024000080240000C024000100240AB
:101510000014024000180240001C0240426921EA07
:1015200002030A4043EA0241816170470AB18161C6
:1015300070470904FBE7000001488068704700001D
:1015400014000020024881680278114481607047CD
:10155000140000200B4810B5016841F400710160CF
:10156000016841F480610160016841F480710160AB
:10157000032000F09FF80F2000F006F800F050F86C
:10158000002010BD003C024030B505461F4887B022
:101590000024016841F010010160006806A900F014
:1015A0001000009001A800F031F90498A8B100F0F3
:1015B0004DF940001649174AB0FBF1F11648491E93
:1015C000026040F2E732C0E90324C0E901148461FB
:1015D00000F0BCFB040003D015E000F037F9E9E7A8
:1015E0000D4800F031FC04000DD1362000F034F835
:1015F000102D07D200222946362000F03BF807487C
:10160000056000E0012407B0204630BD40380240AC
:1016100040420F000010004044020020180000204B
:101620000C4882B0016841F480410160006800F418
:10163000804000900748001F016841F08051016020
:101640000068002200F0805000900F21901E02B030
:1016500000F010B844380240002809DB00F01F02F7
:10166000012191404009800000F1E020C0F8001104
:1016700070470000F0B40E4B1B680C46C3F3022306
:10168000C3F10705042D00D90425191D072901D22E
:10169000002300E0DB1E012606FA05F1491E214069
:1016A00099409E40761E16403143F0BC01F086B949
:1016B0000CED00E0064900F0070208684FF6FF0352
:1016C000184040EA0220034A1043086070470000B7
:1016D0000CED00E00000FA052DE9F0470E4605008C
:1016E00065D0DFF81481D8F80000F7B200F00700E9
:1016F000B04207D288F80070D8F8000000F0070068
:10170000B04254D128683D4C810712D5400703D51B
:10171000206840F4E05020602878000703D5206856
:1017200040F4604020602068A96820F0F000084381
:1017300020602878C0072DD0304968680839012812
:1017400012D0022813D0032811D009688907002974
:101750002DDA216821F0030101432160FFF7ECFE3F
:10176000814641F2883A0EE009688903EFE709688B
:101770008901ECE7FFF7E0FEA0EB0901514502D932
:101780000320BDE8F0872068696800F00C00B0EB2A
:10179000810FEFD1D8F80010404601F00701B142A7
:1017A00007D90770006800F00700B04201D001209F
:1017B000E7E72878400705D52068E96820F4E0507D
:1017C000084320602878000706D52068296920F49E
:1017D000604040EAC100206000F058F82168084AE3
:1017E000C1F30311515CC84006490860064800680F
:1017F000FFF7CAFE0020C4E7003C02400838024060
:101800005C83000820000020180000200F220260E6
:101810000C4A136803F003034360136803F0F003FA
:101820008360136803F4E053C36012684FF4E0531D
:1018300003EAD20202610448006800F00700086071
:101840007047000008380240003C02400448054947
:1018500000680968044AC1F38221515CC84070479E
:1018600020000020083802406C8300080448054925
:1018700000680968044AC1F34231515CC8407047AE
:1018800020000020083802406C830008154810B57D
:10189000006810F00C02144813D04110042A0FD035
:1018A000082A0ED10F4C241F2268236802F03F0241
:1018B0005B0207D52068C0F38810A0FB010106E099
:1018C000084610BD2168C1F38811A1FB0001002367
:1018D000FEF7D6FC2168C1F30141491C4900B0FB69
:1018E000F1F010BD083802400024F4002DE9F84F53
:1018F00004006ED02078DFF84C93C007A9F10405EE
:101900004AD009F104000168C1F38101012908D01E
:101910000068C0F3810002280AD1D9F80000400213
:1019200006D52868800337D560680028E1D033E009
:101930006068B0F5803F10D0B0F5A02F286810D0B7
:1019400020F480302860286820F4802028606068B7
:10195000A8B1FFF7F1FD06460DE0286840F480309D
:10196000F4E740F480202860F7E700BFFFF7E4FDCC
:10197000801B642873D828688003F7D50CE0FFF734
:10198000DBFD064605E000BFFFF7D6FD801B64289F
:10199000F0D828688003F7D42078DFF8AC8280077D
:1019A0004FF0000A3ED5A748001D016811F00C0F4A
:1019B00008D00068C0F3810002280BD1D9F80000DC
:1019C000400207D42868800716D5E068012800D1B6
:1019D00012E033E1E068B8B10120C8F80000FFF779
:1019E000ABFD064605E000BFFFF7A6FD801B022801
:1019F000C0D828688007F7D52868216920F0F8004A
:101A000040EAC10028600DE0C8F800A0FFF794FD8F
:101A1000064604E0FFF790FD801B02281FD82868C7
:101A20008007F7D42078000722D5864F8748616960
:101A3000703771B101210160FFF77EFD064604E0B9
:101A4000FFF77AFD801B022809D838688007F7D590
:101A50000EE0C0F800A0FFF76FFD064605E082E04B
:101A6000FFF76AFD801B02287DD838688007F7D40D
:101A70002078400768D5DFF8CCB100270BF13C0B8C
:101A8000DBF80000C0000BD4DBF8001041F08051FF
:101A9000CBF80010DBF80000012700F08050009028
:101AA0006B4E3068C00510D4306840F480703060F0
:101AB000FFF742FD009005E0FFF73EFD0099401A58
:101AC000022850D83068C005F6D55E4EA0686C3646
:101AD00001280FD00528306810D020F001003060B8
:101AE000306820F004003060A068B8B1FFF724FD32
:101AF00000900FE0306840F00100F4E740F004008F
:101B00003060F7E7FFF718FD0099411A41F288307D
:101B1000814266D830688007F4D50EE0FFF70CFDEF
:101B2000009007E0FFF708FD0099411A41F2883064
:101B3000814256D830688007F4D42FB1DBF800100A
:101B400021F08051CBF80010A069C8B33D49091DB0
:101B50000968C1F3810102294AD00228504607D002
:101B6000C8F8600000E03CE0FFF7E6FC04463BE01C
:101B70004746C8F86000FFF7DFFC064605E000BFF7
:101B8000FFF7DAFC801B02282BD828688001F7D4E5
:101B9000D4E907010843A16A2E4A490802EB014132
:101BA000626A41EA8211084394F82C1040EA01610C
:101BB000C9F8001001203866FFF7BEFC044606E0B5
:101BC0003EE000BFFFF7B8FC001B022809D82868D8
:101BD0008001F7D534E000BFFFF7AEFC001B022800
:101BE00002D90320BDE8F88F28688001F4D427E0EB
:101BF0000128F7D0D9F80000E26900F48001914291
:101C00001CD1226A00F03F01914217D147F6C07102
:101C1000626A0140B1EB821F10D1A26A4FF0FF331C
:101C200000F4403103EB5202B1EB024F06D194F8BD
:101C30002C1000F07060B0EB016F01D00120D1E7F3
:101C40000020CFE70438024000004742800E4742A0
:101C5000007000400000FFFF70B515460E460400FE
:101C600003D094F8490010B107E0012070BD0020B6
:101C700084F84800204600F01DF804F108012068AF
:101C8000FEF752FF3146A2682068FEF781FFD4E9D3
:101C900001022946236BFEF729FF2168A06851F84D
:101CA000202042F0010241F82020012084F8490060
:101CB000002070BDFFF7E6BA7047704770B590F826
:101CC0003C20012A32D0012480F83C40022280F8D6
:101CD0003D2003685A689D6822F070060A68324306
:101CE0005A60134B02689A4214D0B2F1804F11D05F
:101CF000104B9A420ED0104B9A420BD00F4B9A4287
:101D000008D00F4B9A4205D00E4B9A4202D00E4B90
:101D10009A4204D1496825F080031943916080F804
:101D20003D40002180F83C10084670BD022070BD87
:101D3000000001400004004000080040000C00408A
:101D400000040140004001400018004010B50400AC
:101D500003D094F83D0010B107E0012010BD002031
:101D600084F83C00204600F01FF8022084F83D0073
:101D7000211D206800F07AFC012084F8460084F8D8
:101D80003E0084F83F0084F8400084F8410084F865
:101D9000420084F8430084F8440084F8450084F845
:101DA0003D00002010BD000008B5006806498842CB
:101DB00008D10648016841F002010160006800F0A6
:101DC0000200009008BD00000004004040380240BE
:101DD00090F83D10012901D001207047022180F8C0
:101DE0003D1000681149884214D0B0F1804F11D0E5
:101DF0000F4988420ED00F4988420BD00E498842C5
:101E000008D00E49884205D00D49884202D00D49BC
:101E1000884204D1816801F00701062903D00168D6
:101E200041F0010101600020704700000000014006
:101E30000004004000080040000C00400004014085
:101E4000004001400018004090F83D10012901D0E9
:101E500001207047022180F83D100168CA6842F0F5
:101E60000102CA6000681149884214D0B0F1804F65
:101E700011D00F4988420ED00E4988420BD00E492E
:101E8000884208D00D49884205D00D49884202D0C9
:101E90000C49884204D1816801F00701062903D06A
:101EA000016841F00101016000207047000001401D
:101EB0000004004000080040000C00400004014005
:101EC000004001400018004070B5044690F83C0006
:101ED0000025012817D0012684F83C60022084F8F0
:101EE0003D002068826822F0770222F47F428260FF
:101EF0000868502838D00DDC20284FD005DC90B37E
:101F0000102811D14AE0022070BD302846D0402868
:101F10000AD13BE060282FD070280DD0B0F5805F4B
:101F200003D0B0F5005F12D0012584F83D60002099
:101F300084F83C00284670BDCB68D1E901212068B7
:101F400000F0FCFB2068816841F0770109E0CB6874
:101F5000D1E90121206800F0F1FB2068816841F49B
:101F600080418160E1E719E0CA684968206800F0B3
:101F7000F7FB5021206806E0CA684968206800F035
:101F800000FC6021206800F0E3FBCEE7CA684968E6
:101F9000206800F0E5FB40212068F4E72268014654
:101FA0001046F0E770472DE9F04104460068C66826
:101FB00005694FF00007A90713D5B10711D5F91E20
:101FC000016101202077206880698007204602D0C7
:101FD000FFF7E8FF04E000F07EF8204600F07CF810
:101FE0002777680716D5700714D521686FF00400AD
:101FF0000861022020772068806910F4407F204625
:1020000002D0FFF7CFFF04E000F065F8204600F0B3
:1020100063F82777280715D5300713D521686FF0A7
:1020200008000861042020772068C06980072046E6
:1020300002D0FFF7B7FF04E000F04DF8204600F0B3
:102040004BF82777E80616D5F00614D521686FF00F
:1020500010000861082020772068C06910F4407FD4
:10206000204602D0FFF79EFF04E000F034F820463F
:1020700000F032F82777E80708D0F00706D021688B
:102080006FF001000861204600F028F8280608D506
:10209000300606D521686FF0800008612046FFF702
:1020A0000BFE680608D5700606D521686FF0400063
:1020B0000861204600F01CF8A8060AD5B00608D52D
:1020C00021686FF0200008612046BDE8F041FFF76D
:1020D000F4BDBDE8F0817047704700000068034917
:1020E000884201D1FFF72EBA70470000001000406F
:1020F000704770B5040004D094F84100002510B179
:1021000006E0012070BD84F84050204600F024F81D
:10211000242084F841002068C16821F40051C16086
:10212000204600F067FB2068016921F490410161BD
:102130002068416921F02A0141612068C16841F4A9
:102140000051C1606564202084F8410084F8420099
:102150006563002070BD000010B586B004461421F0
:102160006846FEF7D7F814492068884221D1134801
:102170000021026842F010020260006800F01000C6
:1021800005900E481438026842F0010202600068AF
:1021900000F0010005904FF4C06000900220CDE9EE
:1021A0000101032003900720049069460448FFF7CB
:1021B000BDF806B010BD00000010014044380240D8
:1021C000000002402DE9F843044690F8410098468B
:1021D00016460D46202802D00220BDE8F88385B1BE
:1021E0007EB100206064212084F84100FFF7A4F94B
:1021F000A6848146E684A0682027B0F5805F02D0DF
:1022000003E00120E9E7206910B12E4600250EE029
:1022100000260CE08021204600F072FBA8B9C6B170
:1022200016F8010B21684860E08C401EE084E08CC9
:102230004B464FF00002CDF800800028EAD14FF065
:102240004001204600F05CFB40B184F8417003205F
:10225000C3E735F8020BC0F30800E3E784F84170E8
:102260000020BAE7FEE700004FF400710148FFF7D5
:1022700055B90000001402404FF480610148FFF797
:102280004DB90000001402407FB50021264800919E
:1022900001910291234A0391026001244FF480329C
:1022A0000461C0E90121017680F820101203C262A6
:1022B00004255210C5618262C16080F830404161DE
:1022C000FEF74AFD08B1FEF70EFCCDE90054694661
:1022D00015480294FEF77AFC08B1FEF704FC0520CD
:1022E00000900220019069460F48FEF76FFC08B18C
:1022F000FEF7F9FB062000900320019069460A488A
:10230000FEF764FC08B1FEF7EEFB0720CDE90005FF
:1023100069460548FEF75AFC002801D0FEF7E3FBAA
:102320007FBD000000200140BC000020094808B526
:10233000016841F4800101600068002200F480001F
:10234000009005213820FFF795F9BDE808403820B6
:10235000FFF782B93038024010B5074A002107481C
:1023600004F0D8F9064C044A0021206024320548C4
:1023700004F0D0F9606010BD0C8300082133000820
:1023800004000020B932000810B58EB01C21684648
:10239000FDF7C0FF1C2107A8FDF7BCFF1A484FF04E
:1023A000204110220160194941600621816000210D
:1023B000C160C0E904128161C16113020162C0E918
:1023C00009139302C0E90B134163816341640F2039
:1023D0003C230090CDE9010303AC112384E80E00F7
:1023E00009240691CDE907400AA8099480E80E0067
:1023F0000D9107AA69460448FFF72EFC002801D07A
:10240000FEF771FB0EB010BD64010020040100A0B6
:102410002DE9F04186B014216846FDF77BFF2F4877
:102420000024016841F020010160016801F02001F1
:102430000591016841F080010160016801F08001AF
:102440000591016841F001010160016801F001019D
:102450000591016841F010010160016801F010016F
:102460000591016841F002010160016801F002017B
:102470000591016841F008010160016801F008015F
:102480000591016841F0400101600068144F00F0BF
:1024900040004FF4C0650590012229463846FFF7F9
:1024A00045F8DFF840804FF40046002231464046B0
:1024B000FFF73CF800950125CDE9015469463846FF
:1024C0000394FEF733FF0096CDE901546946404678
:1024D0000394FEF72BFF06B0BDE8F08130380240D0
:1024E000001402400004024010B586B000241848D1
:1024F0000094019402940394049414490594016097
:1025000042F2CF01C0E9011440F2E731C0E90314FF
:102510008461FFF71BFC08B1FEF7E5FA4FF4805029
:10252000009069460A48FFF7CFFC08B1FEF7DBFAD6
:102530002020CDE9040404A90548FFF7BFFB0028CB
:1025400001D0FEF7D0FA06B010BD00000004004034
:10255000B40100200C4810B50A4901604FF4E13184
:102560004160002181600C22C160C0E904128161D8
:10257000C161FFF7BEFD002803D0BDE81040FEF7A3
:10258000B2BA10BD00100140FC0100201021FDF77F
:10259000C1BEFEE71C21FDF7BDBEFEE710B54FF042
:1025A000E020006905F0FCFC012803D0BDE81040E4
:1025B00005F024BA10BD000030B593B03021684654
:1025C000FDF7A8FE14210CA8FDF7A4FE1E48002567
:1025D000016841F080510160006800F08050119066
:1025E0001A48016841F4804101600068022400F447
:1025F0008040119001200090000401908001CDE9FD
:102600000640082008904FF4A870CDE90904042082
:102610000B906846FFF76AF908B172B6FEE70CA99D
:102620000F2081E831004FF4A0500F904FF48050FC
:10263000109005210CA8FFF74FF8002801D072B6C2
:10264000FEE713B030BD000040380240007000408B
:102650000248016841F470010160704788ED00E0B4
:102660000148FFF7A0BC000044020020F0B502685A
:10267000274B284D284E294F294C4FF0804C98422B
:1026800009D0604507D0A84205D0B04203D0B84277
:1026900001D0A04204D122F0700E4A6842EA0E0234
:1026A00098421BD0604519D0A84217D0B04215D02F
:1026B000B84213D0A04211D01A4DA8420ED01A4DE4
:1026C000A8420BD0194DA84208D0194DA84205D0F8
:1026D000184DA84202D0184DA84203D122F44075EB
:1026E000CA682A434D6922F080022A438D68C56278
:1026F0000D688562984201D0A04201D10969016349
:10270000016841F004010160012141610260F0BDF6
:10271000000001400004004000080040000C0040A0
:1027200000040140004001400044014000480140D5
:1027300000180040001C00400020004010B58468D4
:1027400042EA032224F47F440A432243826010BDFC
:10275000826822F070020A4342F0070181607047EC
:1027600010B5036A046A24F001040462846924F049
:10277000F00444EA021423F00A020A43846102626C
:1027800010BD10B5036A046A24F010040462846961
:1027900023F0A00324F4704444EA023243EA011116
:1027A0008261016210BD01680C3151E8002F22F4F2
:1027B000907241E80023002BF5D10168143151E8F3
:1027C000002F22F0010241E80023002BF5D1016B1C
:1027D000012909D101680C3151E8002F22F01002C3
:1027E00041E80023002BF5D1202180F84210002180
:1027F0000163704770B5044600680169E26821F41E
:102800004051114301612169A068E269084361698F
:10281000114308432168CA6849F20C639A43024392
:10282000CA6020684169A26921F440711143416185
:1028300031492068884202D03049884202D1FFF7EE
:1028400015F801E0FFF702F8E26900231921642579
:102850003226B2F5004F626828D0A0FB0101930F29
:102860009200FDF70DFD0146B0FBF5F06FF0180288
:10287000504301EB800006EB0010B0FBF5F000F0D8
:10288000F002B1FBF5F002EB0012B1FBF5F06FF0D6
:102890001803584301EB800006EB0010B0FBF5F085
:1028A00000F00F0021681044886070BDA0FB01019A
:1028B00092185B41FDF7E4FC0146B0FBF5F0020124
:1028C000B1FBF5F06FF01803584301EB800006EB05
:1028D000C000B0FBF5F000F0F80002EB4002B1FBE5
:1028E000F5F0584301EB800006EBC000B0FBF5F0BB
:1028F00000F00700D6E7000000100140001401407E
:102900002DE9F843984617460D460446089E24E0F4
:10291000701C22D0FEF710FEA0EB0800B0421AD8BF
:10292000CEB12068C168490717D5802D15D0402D3C
:1029300013D00168C94309070FD401680025406816
:1029400000902046FFF72FFF0820606484F8405075
:102950000120BDE8F8830320FBE72068006835EA22
:10296000000004D00020B842D2D00020F1E70120BE
:10297000F9E7FEE70FB4054B10B503A9044A029826
:1029800000F0FEF810BC5DF814FB000031330008C5
:10299000A80000200FB4084B10B504A902AA0398A0
:1029A00000F0EEF8044602A9002000F080FC20466A
:1029B00010BC5DF814FB0000AF3200080907090ED7
:1029C000002804DB00F1E02080F80014704700F0DC
:1029D0000F0000F1E02080F8141D704702E008C8E5
:1029E000121F08C1002AFAD170477047002001E089
:1029F00001C1121F002AFBD1704700002DE9FF5FC3
:102A000082B00021DDE90430020DDDF840B003435F
:102A100018D044F61050A2F2FF3242431514119818
:102A200001281FD0A5EB0B00401C5FEA000A4FF005
:102A300000064E4FDFF83891B046504615D5CAF122
:102A4000000413E0119801244AA3012801D16FEA80
:102A50000B010298119AC0E90031C0E9024206B0A8
:102A6000BDE8F09FCBF10000DFE704460021404ABB
:102A7000491842EB0450CDE9001012E0E00707D0FE
:102A800032463B4640464946FDF74FFC8046894664
:102A900032463B4610461946FDF747FC06460F46B0
:102AA0006410002CEAD1DDE90401DDE90023BAF16C
:102AB000000F06DAFDF739FC42464B46FDF735FCC0
:102AC00005E0FDF716FE42464B46FDF712FE0446B2
:102AD0000E460022284BFDF793FE03D84FF0FF303F
:102AE000014607E00022254B20463146FDF75AFDFE
:102AF000FDF76EFE102409E0002C0ADB0A220023F9
:102B0000FDF7BEFB039B30321A55641E50EA0102EA
:102B1000F2D1641C039AC4F111031444119A012ADE
:102B200003D0012208430DD10AE0084304D000205D
:102B30004FF0110B119072E7A3EB0B056D1E0DE02A
:102B40005B4504DD4FF0000205F1010504E003DA06
:102B50004FF00002A5F10105002AECD0029811996E
:102B6000C0E90231C0E9004579E7000000001440E7
:102B70000000F03F300000000000F0430000E03FA4
:102B80002DE9FF4F95B09B468946064600250FE28A
:102B9000252877D100242746F84A0121059400E032
:102BA000044316F8013F203B01FA03F01042F7D12D
:102BB00030782A2811D06FF02F033078A0F130023E
:102BC000092A16D8059A44F0020402EB820203EBAC
:102BD00042021044761C0590EFE759F8042B059249
:102BE000002A03DA504244F40054059044F00204F1
:102BF000761C30782E2816D116F8010F44F0040404
:102C00002A280DD06FF02F023078A0F13003092B65
:102C100009D807EB870302EB4303C718761CF3E7D9
:102C200059F8047B761C30786C280FD006DC4C28D1
:102C300017D068280DD06A2814D104E0742810D069
:102C40007A280FD10DE044F400140AE044F4801413
:102C500001E044F440147278824202D104F58014F9
:102C6000761C761C307866280BD013DC582877D079
:102C700009DC002875D04528F6D04628F4D047282E
:102C80001AD19DE118E0632835D0642879D06528F1
:102C900012D195E1702873D008DC6728F1D069283B
:102CA0006FD06E280DD06F2806D1B5E073282CD0D8
:102CB000752875D0782874D05A46179990476D1C9E
:102CC00075E1C4F30250022809D003280DD0D9F8C9
:102CD000001004280DD00D6009F1040967E1D9F84E
:102CE0000010EA17C1E90052F6E7D9F800100D808C
:102CF000F2E70D70F0E719F8041B8DF800100020C2
:102D00008DF80100EA46012003E059F804AB4FF0CA
:102D1000FF3061074FF0000102D40DE008F101011E
:102D20008846B9420FDA8045F8DB1AF80810002906
:102D3000F4D108E008F1010188468142FADB1AF873
:102D400008100029F6D105985B46A0EB080721463C
:102D50003846179A00F094FA284400EB080507E07B
:102D60004DE029E10DE01AF8010B5A4617999047FA
:102D7000B8F10108F7D25B4621463846179A13E1AD
:102D800042E00A220092C4F302524FF0000A022AE3
:102D900008D059F804CB032A4FEAEC710AD00DE0B1
:102DA00029E02AE009F1070121F00702F2E802C157
:102DB000914609E00FFA8CFC4FEAEC71042A03D12A
:102DC0004FFA8CFC4FEAEC71002907DA0A46002121
:102DD000DCF1000C61EB02012D2202E0220504D59A
:102DE0002B228DF80420012203E0E20701D02022EB
:102DF000F7E7904659E00A2102E010220DE0102189
:102E00004FF0000A00910BE010224FF0000A44F04E
:102E100004040827009203E008224FF0000A009201
:102E2000C4F30252022A05D059F804CB0021032A28
:102E300008D009E009F1070121F00702F2E802C118
:102E4000914605E01FFA8CFC042A01D10CF0FF0C1E
:102E50004FF00008220728D5702806D0009B83F089
:102E6000100353EA0A0305D00EE040228DF8042037
:102E7000012208E05CEA010206D030228DF804202D
:102E80008DF8050002229046009B83F0080353EA68
:102E90000A030AD15CEA010201D1620705D530229A
:102EA0008DF804204FF001087F1E582804D034A06C
:102EB00003900EA802900DE036A0F9E75346604655
:102EC000009AFDF7DDF984460398825C0298401E63
:102ED000029002705CEA0100F0D1029806A9081A7B
:102EE00000F1200A600702D524F4803400E00127B5
:102EF000574502DDA7EB0A0000E0002000EB0A01C5
:102F0000009005984144401A0590E00306D45B46C2
:102F10002146179A059800F0B3F90544002706E00A
:102F200001A85A46C05D179990476D1C7F1C474504
:102F3000F6DBE0030CD55B462146179A059800F0B6
:102F40009FF9054404E030205A46179990476D1CBC
:102F50000099481E00900029F5DC08E002980299CB
:102F60005A460078491C0291179990476D1CBAF196
:102F70000001AAF1010AF1DC65E100000928010065
:102F800030313233343536373839616263646566DF
:102F900000000000303132333435363738394142A1
:102FA000434445460000000000F058F90544761CF3
:102FB000307800287FF4ECAD19B02846BDE8F08FDA
:102FC000620700D4062709F1070222F0070CFCE88B
:102FD0000223E14603F000485FEA080C02D00FF23A
:102FE000702C0DE05FEA045C02D50FF2682C07E05C
:102FF0005FEAC47C02D00FF2602C01E0AFF2700CEB
:103000004FF0FF3823F00043CDF850C065280CD0B6
:1030100006DC452809D046281DD047283DD13DE093
:10302000662818D067287ED138E00021112F01DBF7
:10303000112000E0781CCDE9000106A90EA8FFF7D9
:10304000DDFCDDE90F010E9A03910021009207F1EA
:10305000010A04914DE04FF000400097CDE90110C6
:1030600006A90EA8FFF7CAFCDDE90F0203920E9B2A
:1030700011990022DDF80CA00093049211B9791C7B
:1030800000EB010AB7EB0A0004D4C0F1FF3007F1EE
:10309000010A0490AAEB0700019044E0012F00DA36
:1030A00001270021112F01DD112000E03846CDE974
:1030B000000106A90EA8FFF7A1FCDDE90F010E9A99
:1030C0000391002104910092BA4621070CD4039980
:1030D000514500DA8A46BAF1010F05DD009AAAF1DE
:1030E0000101515C302908D0B84202DA10F1040F16
:1030F00006DA0121CDE9011015E0AAF10101E9E7A5
:10310000002805DC049901440491AAEB000102E0C7
:10311000411C514500DD8A460499401A401C01902B
:103120004FF000400290200704D40198504501DB85
:10313000CDF8048000208DF84F0002980DF14F0764
:10314000B0F1004F25D02B200E9002984FF00208CE
:1031500000280CDA404202902D200E9007E00A2150
:103160000298FDF78DF93031029007F8011DB8F192
:103170000001A8F10108F2DC02980028EFD1791EC5
:103180000E980870307800F0200040F0450007F8F5
:10319000020D12A8C01B00F107081498007800B1B6
:1031A000012000EB0A01019801EBE0710598414410
:1031B000401A401E0590E00306D45B462146179A4C
:1031C000059800F05DF805441498007818B15A4647
:1031D000179990476D1CE00324D55B462146179A4A
:1031E000059800F04DF805441CE00498002807DB22
:1031F000DDE90301884203DD0098405C179901E096
:10320000179930205A469047049805F10105401C53
:1032100004900198401E019004D12E205A4617991F
:1032200090476D1CBAF10001AAF1010ADDDC05E04E
:1032300017F8010B5A46179990476D1CB8F1000119
:10324000A8F10108F4DC5B462146179A0598ABE625
:103250002D0000002B000000200000002DE9F041AF
:10326000044600251E461746880404D405E0394666
:103270002020B0476D1C641EF9D52846BDE8F081BA
:103280002DE9F041044600251E469046C80301D5AD
:10329000302700E02027880404D505E04146384661
:1032A000B0476D1C641EF9D52846BDE8F0810A6858
:1032B000531C0B601070704704F06CFE0E490F4DEC
:1032C0004FF0FF3608603146012004F077F8002403
:1032D00040F6E44055F82420611D5043030B08A03C
:1032E000FFF748FB641CE4B2042CF1D30BA0FFF7FA
:1032F00041FBFEF7C1FFE6E700000020AC00002024
:103300004144435F494E25642C2076616C3A256424
:103310002C20566F6C743A25640D0A000D0A0000CB
:103320004FF4FA74FEF7A0FF204603F0B7F9F9E76F
:1033300013B54FF0FF33012269460248FEF742FF02
:1033400000981CBDFC01002070B50A490646002407
:1033500008884D8821464543204602F0D5FF03F0FA
:1033600027F94FF0D84002E0A0F88060641CAC421E
:10337000FAD370BDDC0200202DE9F04F38492C262D
:103380000A46887192884FF4305A4FF4285B41F610
:10339000631E2B274FF02A0C4FF0F00845F210590E
:1033A0004FF448754FF4A0744FF4F07358B10C808B
:1033B000A1F802804A4530D1A1F808A0A1F80AB0CE
:1033C0003802888141E0A1F800804C804A4507D14D
:1033D000A1F808A0A1F80AB04FF42C50888105E0AC
:1033E00072450E8105D14F81A1F80CC00B804D8034
:1033F00002E0A1F80AC08F81A2F5A640103803D0E0
:10340000A2F5EE40963801D10C804B80A2F5184011
:1034100006381FD10B804D801CE0724511D0A2F5FB
:10342000184006380DD00E81A1F80AC0A1F80C7022
:10343000A2F5A64010380BD0A2F5EE40963807D082
:1034400008E00E81A1F80AC08F810D804B80EFE764
:103450000B804C80BDE8F04F002002F093BE0000CE
:10346000DC0200202DE9FE4F161ACDE900104FF0C6
:1034700000085D1A47464FF0FF30002E02DD4FF086
:10348000010102E003D14FF000018B4602E08346C8
:10349000C6F10006002D02DD4FF0010002E003D16D
:1034A0004FF00000824602E08246C5F10005AE42C0
:1034B00001DD344600E02C46601C4FF0000902900C
:1034C00019E000980C9A81B2019880B200F018F8C7
:1034D000B0442F44A04504DD0198A8EB04085844EB
:1034E0000190A74203DD00983F1B5044009009F172
:1034F00001001FFA80F902998945E2DDBDE8FE8FDF
:1035000010B5144602F000FF03F052F84FF0D84017
:10351000A0F8804010BD2DE9F8411D46079C1646D5
:10352000884607460B460094FFF79CFF3A462B4619
:10353000414610460094FFF795FF2B463246194648
:1035400038460094FFF78EFF32462B464146104620
:103550000094FFF787FFBDE8F88110B5CF2003F096
:103560001BF8002003F00CF8C12003F009F830200C
:1035700003F006F8ED2003F00FF8642003F000F8E4
:10358000032002F0FDFF122002F0FAFF812002F07A
:10359000F7FFE82003F000F8852002F0F1FF10208B
:1035A00002F0EEFF7A2002F0EBFFCB2002F0F4FFF6
:1035B000392002F0E5FF2C2002F0E2FF002002F0AB
:1035C000DFFF342002F0DCFF022002F0D9FFF720F9
:1035D00002F0E2FF202002F0D3FFEA2002F0DCFF3D
:1035E000002002F0CDFF002002F0CAFFC02002F050
:1035F000D3FF1B2002F0C4FFC12002F0CDFF012049
:1036000002F0BEFFC52002F0C7FF302002F0B8FF75
:10361000302002F0B5FFC72002F0BEFFB72002F055
:10362000AFFF362002F0B8FF482002F0A9FF3A2091
:1036300002F0B2FF552002F0A3FFB12002F0ACFF70
:10364000002002F09DFF1A2002F09AFFB62002F03F
:10365000A3FF0A2002F094FFA22002F091FFF220C3
:1036600002F09AFF002002F08BFF262002F094FF68
:10367000012002F085FFE02002F08EFF0F2002F013
:103680007FFF2A2002F07CFF282002F079FF08202B
:1036900002F076FF0E2002F073FF082002F070FFA8
:1036A000542002F06DFFA92002F06AFF432002F0CF
:1036B00067FF0A2002F064FF0F2002F061FF002084
:1036C00002F05EFF002002F05BFF002002F058FFD6
:1036D000002002F055FFE12002F05EFF002002F022
:1036E0004FFF152002F04CFF172002F049FF072082
:1036F00002F046FF112002F043FF062002F040FFD7
:103700002B2002F03DFF562002F03AFF3C2002F051
:1037100037FF052002F034FF102002F031FF0F20A8
:1037200002F02EFF3F2002F02BFF3F2002F028FF87
:103730000F2002F025FF2B2002F02EFF002002F0C8
:103740001FFF002002F01CFF012002F019FF3F20A4
:1037500002F016FF2A2002F01FFF002002F010FFE7
:10376000002002F00DFF002002F00AFFEF2002F01F
:1037700007FF112002F010FF782002F08FFFBDE854
:103780001040292002F008BF10B5FF2002F004FF0E
:10379000FF2002F0F5FE982002F0F2FE062002F073
:1037A000EFFEBC2002F0F8FE012002F0E9FE0F203F
:1037B00002F0E6FE612002F0E3FEFF2002F0E0FEF0
:1037C000012002F0DDFE012002F0DAFE0B2002F003
:1037D000D7FE102002F0D4FE372002F0D1FE632085
:1037E00002F0CEFEFF2002F0CBFEFF2002F0C8FE6A
:1037F000012002F0C5FE012002F0C2FE002002F00E
:10380000BFFE002002F0BCFEFF2002F0B9FE5220F5
:1038100002F0B6FE012002F0B3FE002002F0B0FE7E
:10382000402002F0ADFEBD2002F0B6FE012002F005
:10383000A7FE232002F0A4FE452002F0A1FE67208F
:1038400002F09EFE012002F09BFE232002F098FE73
:10385000452002F095FE672002F092FEBE2002F0A5
:103860009BFE002002F08CFE012002F089FEAB20BE
:1038700002F086FE602002F083FE222002F080FE2D
:10388000222002F07DFE222002F07AFE222002F0A9
:1038900077FE222002F074FEC72002F07DFE362063
:1038A00002F06EFEED2002F077FE7F2002F068FE4F
:1038B0000F2002F065FEC02002F06EFE0F2002F025
:1038C0005FFE0B2002F05CFE0A2002F059FEFC2095
:1038D00002F062FE082002F053FEDF2002F05CFEE0
:1038E000002002F04DFE002002F04AFE002002F00F
:1038F00047FE002002F044FE002002F041FE20209E
:1039000002F03EFEF32002F047FE742002F038FE83
:10391000B42002F041FE002002F032FE002002F04E
:103920002FFE002002F02CFEF72002F035FE822050
:1039300002F026FEB12002F02FFE002002F020FE51
:10394000132002F01DFE132002F01AFEF22002F0F6
:1039500023FE802002F014FE042002F011FE40201D
:1039600002F00EFE282002F00BFEC12002F014FE31
:10397000172002F005FE882002F002FE882002F0E7
:10398000FFFD202002F0FCFDE02002F005FE0020FB
:1039900002F0F6FD0A2002F0F3FD122002F0F0FD25
:1039A000102002F0EDFD0E2002F0EAFD202002F0D2
:1039B000E7FDCC2002F0E4FD072002F0E1FD062047
:1039C00002F0DEFD0B2002F0DBFD0E2002F0D8FD40
:1039D0000F2002F0D5FD0D2002F0D2FD152002F0DF
:1039E000CFFD102002F0CCFD002002F0C9FDE12047
:1039F00002F0D2FD002002F0C3FD0B2002F0C0FD5A
:103A0000132002F0BDFD0D2002F0BAFD0E2002F0E1
:103A1000B7FD1B2002F0B4FD712002F0B1FD0620BD
:103A200002F0AEFD062002F0ABFD0A2002F0A8FD78
:103A30000F2002F0A5FD0E2002F0A2FD0F2002F0E3
:103A40009FFD152002F09CFD0C2002F099FD002046
:103A500002F096FD2A2002F09FFD002002F090FD6A
:103A6000002002F08DFD012002F08AFDDF2002F02F
:103A700087FD2B2002F090FD002002F081FD002048
:103A800002F07EFD032002F07BFD1F2002F078FD96
:103A90003A2002F081FD552002F072FD362002F03E
:103AA0007BFD002002F06CFD112002F075FD7820F6
:103AB00002F0F4FD292002F06FFD142002F0EEFD6B
:103AC000BDE810402C2002F067BD10B5ED2002F0DB
:103AD00063FD012002F054FDFE2002F051FDEE20B6
:103AE00002F05AFDDE2002F04BFD212002F048FDDD
:103AF000F12002F051FD012002F042FDDF2002F032
:103B00004BFD102002F03CFDC42002F045FD8F204B
:103B100002F036FDC62002F03FFD002002F030FD2D
:103B2000E22002F02DFDE22002F02AFDE22002F068
:103B300027FDBF2002F030FDAA2002F021FDB020B9
:103B400002F02AFD0D2002F01BFD002002F018FDFE
:103B50000D2002F015FD002002F012FD112002F0F0
:103B60000FFD002002F00CFD192002F009FD0020DD
:103B700002F006FD212002F003FD002002F000FD0E
:103B80002D2002F0FDFC002002F0FAFC3D2002F0A6
:103B9000F7FC002002F0F4FC5D2002F0F1FC0020B4
:103BA00002F0EEFC5D2002F0EBFC002002F0E8FCED
:103BB000B12002F0F1FC802002F0E2FC002002F0D3
:103BC000DFFC8B2002F0DCFC002002F0D9FC962008
:103BD00002F0D6FC002002F0D3FCB22002F0DCFCA4
:103BE000002002F0CDFC002002F0CAFC022002F00E
:103BF000C7FC002002F0C4FC032002F0C1FC00203E
:103C000002F0BEFCB32002F0C7FC002002F0B8FCBA
:103C1000002002F0B5FC002002F0B2FC002002F00F
:103C2000AFFC002002F0ACFC002002F0A9FC002058
:103C300002F0A6FC002002F0A3FC002002F0A0FC91
:103C4000002002F09DFC002002F09AFC002002F00F
:103C500097FC002002F094FC002002F091FC002070
:103C600002F08EFC002002F08BFC002002F088FCA9
:103C7000002002F085FC002002F082FC002002F00F
:103C80007FFC002002F07CFC002002F079FC002088
:103C900002F076FC002002F073FCB42002F07CFC01
:103CA0008B2002F06DFC002002F06AFC962002F0EE
:103CB00067FC002002F064FCA12002F061FC0020FF
:103CC00002F05EFCB52002F067FC022002F058FC16
:103CD000002002F055FC032002F052FC002002F00C
:103CE0004FFC042002F04CFC002002F049FCB620FE
:103CF00002F052FC002002F043FC002002F040FCE5
:103D0000B72002F049FC002002F03AFC002002F04B
:103D100037FC3F2002F034FC002002F031FC5E2032
:103D200002F02EFC002002F02BFC642002F028FCA4
:103D3000002002F025FC8C2002F022FC002002F082
:103D40001FFCAC2002F01CFC002002F019FCDC205F
:103D500002F016FC002002F013FC702002F010FCB0
:103D6000002002F00DFC902002F00AFC002002F07E
:103D700007FCEB2002F004FC002002F001FCDC2038
:103D800002F0FEFB002002F0FBFBB82002F004FC76
:103D9000002002F0F5FB002002F0F2FB002002F010
:103DA000EFFB002002F0ECFB002002F0E9FB00201A
:103DB00002F0E6FB002002F0E3FB002002F0E0FB53
:103DC000BA2002F0E9FB242002F0DAFB002002F026
:103DD000D7FB002002F0D4FB002002F0D1FBC12071
:103DE00002F0DAFB202002F0CBFB002002F0C8FB3F
:103DF000542002F0C5FB002002F0C2FBFF2002F0BD
:103E0000BFFB002002F0BCFBC22002F0C5FB0A2071
:103E100002F0B6FB002002F0B3FB042002F0B0FB7E
:103E2000002002F0ADFBC32002F0B6FB3C2002F004
:103E3000A7FB002002F0A4FB3A2002F0A1FB002027
:103E400002F09EFB392002F09BFB002002F098FB61
:103E5000372002F095FB002002F092FB3C2002F09C
:103E60008FFB002002F08CFB362002F089FB002043
:103E700002F086FB322002F083FB002002F080FB80
:103E80002F2002F07DFB002002F07AFB2C2002F0B4
:103E900077FB002002F074FB292002F071FB002068
:103EA00002F06EFB262002F06BFB002002F068FBA4
:103EB000242002F065FB002002F062FB242002F0C7
:103EC0005FFB002002F05CFB232002F059FB002086
:103ED00002F056FB3C2002F053FB002002F050FBA6
:103EE000362002F04DFB002002F04AFB322002F0A7
:103EF00047FB002002F044FB2F2002F041FB002092
:103F000002F03EFB2C2002F03BFB002002F038FBCD
:103F1000292002F035FB002002F032FB262002F0BF
:103F20002FFB002002F02CFB242002F029FB0020B4
:103F300002F026FB242002F023FB002002F020FBED
:103F4000232002F01DFB002002F01AFBC42002F027
:103F500023FB622002F014FB002002F011FB05207D
:103F600002F00EFB002002F00BFB842002F008FBA5
:103F7000002002F005FBF02002F002FB002002F01E
:103F8000FFFA182002F0FCFA002002F0F9FAA4204F
:103F900002F0F6FA002002F0F3FA182002F0F0FA2C
:103FA000002002F0EDFA502002F0EAFA002002F0C0
:103FB000E7FA0C2002F0E4FA002002F0E1FA172000
:103FC00002F0DEFA002002F0DBFA952002F0D8FAC7
:103FD000002002F0D5FAF32002F0D2FA002002F01D
:103FE000CFFAE62002F0CCFA002002F0C9FAC52090
:103FF00002F0D2FA322002F0C3FA002002F0C0FA36
:10400000442002F0BDFA002002F0BAFA652002F066
:10401000B7FA002002F0B4FA762002F0B1FA0020DC
:1040200002F0AEFA882002F0ABFA002002F0A8FA03
:10403000C62002F0B1FA202002F0A2FA002002F01D
:104040009FFA172002F09CFA002002F099FA012052
:1040500002F096FA002002F093FAC72002F09CFAD0
:10406000002002F08DFA002002F08AFA002002F00F
:1040700087FA002002F084FAC82002F08DFA0020AE
:1040800002F07EFA002002F07BFA002002F078FABB
:10409000002002F075FAC92002F07EFA002002F03A
:1040A0006FFA002002F06CFA002002F069FA00209A
:1040B00002F066FA002002F063FA002002F060FAD3
:1040C000002002F05DFA002002F05AFA002002F00F
:1040D00057FA002002F054FA002002F051FA0020B2
:1040E00002F04EFA002002F04BFA002002F048FAEB
:1040F000002002F045FA002002F042FAE02002F02F
:104100004BFA162002F03CFA002002F039FA1C208B
:1041100002F036FA002002F033FA212002F030FAE1
:10412000002002F02DFA362002F02AFA002002F0D8
:1041300027FA462002F024FA002002F021FA522049
:1041400002F01EFA002002F01BFA642002F018FAB6
:10415000002002F015FA7A2002F012FA002002F094
:104160000FFA8B2002F00CFA002002F009FA9920D5
:1041700002F006FA002002F003FAA82002F000FA8A
:10418000002002F0FDF9B92002F0FAF9002002F057
:10419000F7F9C42002F0F4F9002002F0F1F9CA2086
:1041A00002F0EEF9002002F0EBF9D22002F0E8F97B
:1041B000002002F0E5F9D92002F0E2F9002002F037
:1041C000DFF9E02002F0DCF9002002F0D9F9F32059
:1041D00002F0D6F9002002F0D3F9E12002F0DCF978
:1041E000162002F0CDF9002002F0CAF91C2002F0DE
:1041F000C7F9002002F0C4F9222002F0C1F9002022
:1042000002F0BEF9362002F0BBF9002002F0B8F946
:10421000452002F0B5F9002002F0B2F9522002F078
:10422000AFF9002002F0ACF9642002F0A9F90020F7
:1042300002F0A6F97A2002F0A3F9002002F0A0F91A
:104240008B2002F09DF9002002F09AF9992002F0EB
:1042500097F9002002F094F9A82002F091F90020CB
:1042600002F08EF9B92002F08BF9002002F088F9F3
:10427000C42002F085F9002002F082F9CA2002F081
:104280007FF9002002F07CF9D22002F079F90020B9
:1042900002F076F9D82002F073F9002002F070F9EC
:1042A000E02002F06DF9002002F06AF9F32002F03C
:1042B00067F9002002F064F9E22002F06DF90520B0
:1042C00002F05EF9002002F05BF90B2002F058F9D1
:1042D000002002F055F91B2002F052F9002002F0F4
:1042E0004FF9342002F04CF9002002F049F9442043
:1042F00002F046F9002002F043F94F2002F040F9A5
:10430000002002F03DF9612002F03AF9002002F0AD
:1043100037F9792002F034F9002002F031F98820D1
:1043200002F02EF9002002F02BF9972002F028F974
:10433000002002F025F9A62002F022F9002002F068
:104340001FF9B72002F01CF9002002F019F9C22071
:1043500002F016F9002002F013F9C72002F010F95C
:10436000002002F00DF9D12002F00AF9002002F03D
:1043700007F9D62002F004F9002002F001F9DD204F
:1043800002F0FEF8002002F0FBF8F32002F0F8F84B
:10439000002002F0F5F8E32002F0FEF8052002F01C
:1043A000EFF8002002F0ECF80A2002F0E9F8002013
:1043B00002F0E6F81C2002F0E3F8002002F0E0F83A
:1043C000332002F0DDF8002002F0DAF8442002F099
:1043D000D7F8002002F0D4F8502002F0D1F80020E5
:1043E00002F0CEF8622002F0CBF8002002F0C8F80C
:1043F000782002F0C5F8002002F0C2F8882002F010
:10440000BFF8002002F0BCF8972002F0B9F80020B5
:1044100002F0B6F8A62002F0B3F8002002F0B0F8DF
:10442000B72002F0ADF8002002F0AAF8C22002F096
:10443000A7F8002002F0A4F8C72002F0A1F800209D
:1044400002F09EF8D12002F09BF8002002F098F8CC
:10445000D52002F095F8002002F092F8DD2002F05D
:104460008FF8002002F08CF8F32002F089F8002089
:1044700002F086F8E42002F08FF8012002F080F8C4
:10448000002002F07DF8012002F07AF8002002F00E
:1044900077F8022002F074F8002002F071F82A2068
:1044A00002F06EF8002002F06BF83C2002F068F891
:1044B000002002F065F84B2002F062F8002002F0C4
:1044C0005FF85D2002F05CF8002002F059F87420DB
:1044D00002F056F8002002F053F8842002F050F861
:1044E000002002F04DF8932002F04AF8002002F07C
:1044F00047F8A22002F044F8002002F041F8B3206F
:1045000002F03EF8002002F03BF8BE2002F038F83E
:10451000002002F035F8C42002F032F8002002F04A
:104520002FF8CD2002F02CF8002002F029F8D3203B
:1045300002F026F8002002F023F8DD2002F020F837
:10454000002002F01DF8F32002F01AF8002002F01B
:1045500017F8E52002F020F8002002F011F8002002
:1045600002F00EF8002002F00BF8002002F008F82C
:10457000022002F005F8002002F002F8292001F0E4
:10458000FFFF002001F0FCFF3C2001F0F9FF0020BC
:1045900001F0F6FF4B2001F0F3FF002001F0F0FFE7
:1045A0005D2001F0EDFF002001F0EAFF742001F032
:1045B000E7FF002001F0E4FF842001F0E1FF00208C
:1045C00001F0DEFF932001F0DBFF002001F0D8FFB7
:1045D000A22001F0D5FF002001F0D2FFB32001F0AE
:1045E000CFFF002001F0CCFFBE2001F0C9FF00206A
:1045F00001F0C6FFC42001F0C3FF002001F0C0FF9E
:10460000CD2001F0BDFF002001F0BAFFD32001F062
:10461000B7FF002001F0B4FFDC2001F0B1FF002063
:1046200001F0AEFFF32001F0ABFF002001F0A8FF86
:10463000E62001F0B1FF112001F0A2FF002001F0FF
:104640009FFF342001F09CFF002001F099FF5620CD
:1046500001F096FF002001F093FF762001F090FF1B
:10466000002001F08DFF772001F08AFF002001F08B
:1046700087FF662001F084FF002001F081FF882081
:1046800001F07EFF002001F07BFF992001F078FF10
:10469000002001F075FFBB2001F072FF002001F047
:1046A0006FFF992001F06CFF002001F069FF662088
:1046B00001F066FF002001F063FF552001F060FF6C
:1046C000002001F05DFF552001F05AFF002001F0AD
:1046D00057FF452001F054FF002001F051FF432017
:1046E00001F04EFF002001F04BFF442001F048FF95
:1046F000002001F045FFE72001F04EFF322001F0DD
:104700003FFF002001F03CFF552001F039FF002061
:1047100001F036FF762001F033FF002001F030FF7A
:10472000662001F02DFF002001F02AFF672001F034
:1047300027FF002001F024FF672001F021FF002067
:1047400001F01EFF872001F01BFF002001F018FF81
:10475000992001F015FF002001F012FFBB2001F0AD
:104760000FFF002001F00CFF992001F009FF00204D
:1047700001F006FF772001F003FF002001F000FFA9
:10478000442001F0FDFE002001F0FAFE562001F069
:10479000F7FE002001F0F4FE232001F0F1FE0020DE
:1047A00001F0EEFE332001F0EBFE002001F0E8FE08
:1047B000452001F0E5FE002001F0E2FEE82001F0D6
:1047C000EBFE002001F0DCFE002001F0D9FE992074
:1047D00001F0D6FE002001F0D3FE872001F0D0FECC
:1047E000002001F0CDFE882001F0CAFE002001F07B
:1047F000C7FE772001F0C4FE002001F0C1FE662054
:1048000001F0BEFE002001F0BBFE882001F0B8FEE2
:10481000002001F0B5FEAA2001F0B2FE002001F058
:10482000AFFEBB2001F0ACFE002001F0A9FE9920F4
:1048300001F0A6FE002001F0A3FE662001F0A0FE1C
:10484000002001F09DFE552001F09AFE002001F0AD
:1048500097FE552001F094FE002001F091FE4420C7
:1048600001F08EFE002001F08BFE442001F088FE56
:10487000002001F085FE552001F082FE002001F0AD
:104880007FFEE92001F088FEAA2001F079FE0020D9
:1048900001F076FE002001F073FE002001F070FEB2
:1048A000002001F079FEAA2001F06AFECF2001F07D
:1048B00073FE002001F064FE002001F061FE002084
:1048C00001F05EFE002001F05BFE002001F058FECA
:1048D000002001F055FE002001F052FE002001F002
:1048E0004FFE002001F04CFE002001F049FE0020A8
:1048F00001F046FE002001F043FE002001F040FEE2
:10490000002001F03DFE002001F03AFE002001F001
:1049100037FE002001F034FEF02001F03DFE0020C3
:1049200001F02EFE502001F02BFE002001F028FEA9
:10493000002001F025FE002001F022FEF32001F00E
:104940002BFE002001F01CFEF92001F025FE0620C0
:1049500001F016FE102001F013FE292001F010FED8
:10496000002001F00DFE3A2001F016FE552001F066
:1049700007FE112001F010FE642001F08FFE2920B7
:1049800001F00AFE352001F007FE002001F0F8FDDD
:10499000512001F001FEFF2001F0F2FD532001F053
:1049A000FBFD2C2001F0ECFD552001F0F5FD8220EF
:1049B00001F0E6FDBDE810402C2001F0EDBD2DE931
:1049C000F05F4FF470435521184601F0FBFD4FF2A4
:1049D0000104AA21204601F0F5FD651C522128465C
:1049E00001F0F0FDA61C0821304601F0EBFDE71CAC
:1049F0000121384601F0E6FD0D214FF4304001F071
:104A0000E1FD0D214BF2010001F0DCFD0D214BF227
:104A1000020001F0D7FD4FF436483421404601F042
:104A2000D1FD34214BF2016001F0CCFD34214BF279
:104A3000026001F0C7FD4FF431490D21484601F0F5
:104A4000C1FD4BF2011A0D21504601F0BBFD0D21B5
:104A50004BF2021001F0B6FD4FF4374B34215846AB
:104A600001F0B0FD34214BF2017001F0ABFD3421B7
:104A70004BF2027001F0A6FD00214FF4324001F02C
:104A8000A1FD00214BF2012001F09CFD00214BF221
:104A9000022001F097FD24214FF4384001F092FDEF
:104AA00024214BF6010001F08DFD24214BF602007C
:104AB00001F088FD01214FF43F4001F083FD0F21FB
:104AC0004FF4334001F07EFD0F214BF2013001F035
:104AD00079FD0F214BF2023001F074FD34214FF4C7
:104AE000394001F06FFD34214BF6011001F06AFDF1
:104AF00034214BF6021001F065FD08214FF43540DA
:104B000001F060FD08214BF2015001F05BFD08212E
:104B10004BF2025001F056FD03214FF4424001F0E8
:104B200051FD24214FF43A4001F04CFD24214BF675
:104B3000012001F047FD24214BF6022001F042FD47
:104B400000214FF43C4001F03DFD78214BF601403F
:104B500001F038FD00214BF6024001F033FD002149
:104B60004FF43D4001F02EFD78214BF6015001F04D
:104B700029FD00214BF6025001F024FD00214FF4E5
:104B80003E4001F01FFD64214BF6016001F01AFD6B
:104B900000214FF4514001F015FD33214DF2011079
:104BA00001F010FD00214DF2021001F00BFD342147
:104BB0004DF2031001F006FD00214DF2041001F04A
:104BC00001FD3A214DF2051001F0FCFC00214DF2EF
:104BD000061001F0F7FC4A214DF2071001F0F2FC3B
:104BE00000214DF2081001F0EDFC5C214DF209109E
:104BF00001F0E8FC00214DF20A1001F0E3FC8121F4
:104C00004DF20B1001F0DEFC00214DF20C1001F012
:104C1000D9FCA6214DF20D1001F0D4FC00214DF27B
:104C20000E1001F0CFFCE5214DF20F1001F0CAFC8F
:104C300001214DF2101001F0C5FC13214DF21110AD
:104C400001F0C0FC01214DF2121001F0BBFC542117
:104C50004DF2131001F0B6FC01214DF2141001F0D9
:104C6000B1FC82214DF2151001F0ACFC01214DF296
:104C7000161001F0A7FCCA214DF2171001F0A2FC9A
:104C800002214DF2181001F09DFC00214DF2191087
:104C900001F098FC02214DF21A1001F093FC012161
:104CA0004DF21B1001F08EFC02214DF21C1001F0A0
:104CB00089FC34214DF21D1001F084FC02214DF2DB
:104CC0001E1001F07FFC67214DF21F1001F07AFCED
:104CD00002214DF2201001F075FC84214DF22110CB
:104CE00001F070FC02214DF2221001F06BFCA421B6
:104CF0004DF2231001F066FC02214DF2241001F068
:104D000061FCB7214DF2251001F05CFC02214DF24F
:104D1000261001F057FCCF214DF2271001F052FC74
:104D200002214DF2281001F04DFCDE214DF2291038
:104D300001F048FC02214DF22A1001F043FCF2215F
:104D40004DF22B1001F03EFC02214DF22C1001F02F
:104D500039FCFE214DF22D1001F034FC03214DF2FF
:104D60002E1001F02FFC10214DF22F1001F02AFC23
:104D700003214DF2301001F025FC33214DF23110AA
:104D800001F020FC03214DF2321001F01BFC6D21DB
:104D90004DF2331001F016FC00214FF4524001F0A7
:104DA00011FC33214DF2012001F00CFC00214DF2E9
:104DB000022001F007FC34214DF2032001F002FC37
:104DC00000214DF2042001F0FDFB3A214DF20520B7
:104DD00001F0F8FB00214DF2062001F0F3FB4A211F
:104DE0004DF2072001F0EEFB00214DF2082001F00A
:104DF000E9FB5C214DF2092001F0E4FB00214DF2BA
:104E00000A2001F0DFFB81214DF20B2001F0DAFBDB
:104E100000214DF20C2001F0D5FBA6214DF20D2012
:104E200001F0D0FB00214DF20E2001F0CBFBE5217B
:104E30004DF20F2001F0C6FB01214DF2102001F0D0
:104E4000C1FB13214DF2112001F0BCFB01214DF2F9
:104E5000122001F0B7FB54214DF2132001F0B2FBF8
:104E600001214DF2142001F0ADFB82214DF21520FD
:104E700001F0A8FB01214DF2162001F0A3FBCA218D
:104E80004DF2172001F09EFB02214DF2182001F097
:104E900099FB00214DF2192001F094FB02214DF203
:104EA0001A2001F08FFB01214DF21B2001F08AFB3B
:104EB00002214DF21C2001F085FB34214DF21D2012
:104EC00001F080FB02214DF21E2001F07BFB6721E7
:104ED0004DF21F2001F076FB02214DF2202001F05F
:104EE00071FB84214DF2212001F06CFB02214DF277
:104EF000222001F067FBA4214DF2232001F062FB88
:104F000002214DF2242001F05DFBB7214DF2252056
:104F100001F058FB02214DF2262001F053FBCF2176
:104F20004DF2272001F04EFB02214DF2282001F026
:104F300049FBDE214DF2292001F044FB02214DF214
:104F40002A2001F03FFBF2214DF22B2001F03AFB29
:104F500002214DF22C2001F035FBFE214DF22D20D7
:104F600001F030FB03214DF22E2001F02BFB10212C
:104F70004DF22F2001F026FB03214DF2302001F0ED
:104F800021FB33214DF2312001F01CFB03214DF2B6
:104F9000322001F017FB6D214DF2332001F012FB9E
:104FA00000214FF4534001F00DFB33214DF201304D
:104FB00001F008FB00214DF2023001F003FB342127
:104FC0004DF2033001F0FEFA00214DF2043001F001
:104FD000F9FA3A214DF2053001F0F4FA00214DF2D0
:104FE000063001F0EFFA4A214DF2073001F0EAFAFB
:104FF00000214DF2083001F0E5FA5C214DF2093054
:1050000001F0E0FA00214DF20A3001F0DBFA8121D3
:105010004DF20B3001F0D6FA00214DF20C3001F0C8
:10502000D1FAA6214DF20D3001F0CCFA00214DF25B
:105030000E3001F0C7FAE5214DF20F3001F0C2FA4F
:1050400001214DF2103001F0BDFA13214DF2113063
:1050500001F0B8FA01214DF2123001F0B3FA5421F7
:105060004DF2133001F0AEFA01214DF2143001F08F
:10507000A9FA82214DF2153001F0A4FA01214DF276
:10508000163001F09FFACA214DF2173001F09AFA5A
:1050900002214DF2183001F095FA00214DF219303D
:1050A00001F090FA02214DF21A3001F08BFA012141
:1050B0004DF21B3001F086FA02214DF21C3001F056
:1050C00081FA34214DF21D3001F07CFA02214DF2BB
:1050D0001E3001F077FA67214DF21F3001F072FAAD
:1050E00002214DF2203001F06DFA84214DF2213081
:1050F00001F068FA02214DF2223001F063FAA42196
:105100004DF2233001F05EFA02214DF2243001F01D
:1051100059FAB7214DF2253001F054FA02214DF22F
:10512000263001F04FFACF214DF2273001F04AFA34
:1051300002214DF2283001F045FADE214DF22930EE
:1051400001F040FA02214DF22A3001F03BFAF2213F
:105150004DF22B3001F036FA02214DF22C3001F0E5
:1051600031FAFE214DF22D3001F02CFA03214DF2DF
:105170002E3001F027FA10214DF22F3001F022FAE3
:1051800003214DF2303001F01DFA33214DF2313060
:1051900001F018FA03214DF2323001F013FA6D21BB
:1051A0004DF2333001F00EFA00214FF4544001F07B
:1051B00009FA33214DF2014001F004FA00214DF2C9
:1051C000024001F0FFF934214DF2034001F0FAF9F9
:1051D00000214DF2044001F0F5F93A214DF205406D
:1051E00001F0F0F900214DF2064001F0EBF94A21FF
:1051F0004DF2074001F0E6F900214DF2084001F0C0
:10520000E1F95C214DF2094001F0DCF900214DF299
:105210000A4001F0D7F981214DF20B4001F0D2F99B
:1052200000214DF20C4001F0CDF9A6214DF20D40C8
:1052300001F0C8F900214DF20E4001F0C3F9E5215B
:105240004DF20F4001F0BEF901214DF2104001F086
:10525000B9F913214DF2114001F0B4F901214DF2D9
:10526000124001F0AFF954214DF2134001F0AAF9B8
:1052700001214DF2144001F0A5F982214DF21540B3
:1052800001F0A0F901214DF2164001F09BF9CA216D
:105290004DF2174001F096F902214DF2184001F04D
:1052A00091F900214DF2194001F08CF902214DF2E3
:1052B0001A4001F087F901214DF21B4001F082F9FB
:1052C00002214DF21C4001F07DF934214DF21D40C8
:1052D00001F078F902214DF21E4001F073F96721C7
:1052E0004DF21F4001F06EF902214DF2204001F015
:1052F00069F984214DF2214001F064F902214DF257
:10530000224001F05FF9A4214DF2234001F05AF947
:1053100002214DF2244001F055F9B7214DF225400C
:1053200001F050F902214DF2264001F04BF9CF2156
:105330004DF2274001F046F902214DF2284001F0DC
:1053400041F9DE214DF2294001F03CF902214DF2F4
:105350002A4001F037F9F2214DF22B4001F032F9E9
:1053600002214DF22C4001F02DF9FE214DF22D408D
:1053700001F028F903214DF22E4001F023F910210C
:105380004DF22F4001F01EF903214DF2304001F0A3
:1053900019F933214DF2314001F014F903214DF296
:1053A000324001F00FF96D214DF2334001F00AF95E
:1053B00000214FF4554001F005F933214DF2015021
:1053C00001F000F900214DF2025001F0FBF8342108
:1053D0004DF2035001F0F6F800214DF2045001F0B7
:1053E000F1F83A214DF2055001F0ECF800214DF2B0
:1053F000065001F0E7F84A214DF2075001F0E2F8BB
:1054000000214DF2085001F0DDF85C214DF2095009
:1054100001F0D8F800214DF20A5001F0D3F88121B3
:105420004DF20B5001F0CEF800214DF20C5001F07E
:10543000C9F8A6214DF20D5001F0C4F800214DF23B
:105440000E5001F0BFF8E5214DF20F5001F0BAF80F
:1054500001214DF2105001F0B5F813214DF2115019
:1054600001F0B0F801214DF2125001F0ABF85421D7
:105470004DF2135001F0A6F801214DF2145001F045
:10548000A1F882214DF2155001F09CF801214DF256
:10549000165001F097F8CA214DF2175001F092F81A
:1054A00002214DF2185001F08DF800214DF21950F3
:1054B00001F088F802214DF21A5001F083F8012121
:1054C0004DF21B5001F07EF802214DF21C5001F00C
:1054D00079F834214DF21D5001F074F802214DF29B
:1054E0001E5001F06FF867214DF21F5001F06AF86D
:1054F00002214DF2205001F065F884214DF2215037
:1055000001F060F802214DF2225001F05BF8A42175
:105510004DF2235001F056F802214DF2245001F0D3
:1055200051F8B7214DF2255001F04CF802214DF20F
:10553000265001F047F8CF214DF2275001F042F8F4
:1055400002214DF2285001F03DF8DE214DF22950A4
:1055500001F038F802214DF22A5001F033F8F2211F
:105560004DF22B5001F02EF802214DF22C5001F09B
:1055700029F8FE214DF22D5001F024F803214DF2BF
:105580002E5001F01FF810214DF22F5001F01AF8A3
:1055900003214DF2305001F015F833214DF2315016
:1055A00001F010F803214DF2325001F00BF86D219B
:1055B0004DF2335001F006F800214FF4564001F04F
:1055C00001F833214DF2016000F0FCFF00214DF2A3
:1055D000026000F0F7FF34214DF2036000F0F2FFAB
:1055E00000214DF2046000F0EDFF3A214DF205601C
:1055F00000F0E8FF00214DF2066000F0E3FF4A21D1
:105600004DF2076000F0DEFF00214DF2086000F06F
:10561000D9FF5C214DF2096000F0D4FF00214DF26A
:105620000A6000F0CFFF81214DF20B6000F0CAFF4D
:1056300000214DF20C6000F0C5FFA6214DF20D6077
:1056400000F0C0FF00214DF20E6000F0BBFFE5212D
:105650004DF20F6000F0B6FF01214DF2106000F036
:10566000B1FF13214DF2116000F0ACFF01214DF2AA
:10567000126000F0A7FF54214DF2136000F0A2FF6A
:1056800001214DF2146000F09DFF82214DF2156062
:1056900000F098FF01214DF2166000F093FFCA213F
:1056A0004DF2176000F08EFF02214DF2186000F0FD
:1056B00089FF00214DF2196000F084FF02214DF2B4
:1056C0001A6000F07FFF01214DF21B6000F07AFFAD
:1056D00002214DF21C6000F075FF34214DF21D6077
:1056E00000F070FF02214DF21E6000F06BFF672199
:1056F0004DF21F6000F066FF02214DF2206000F0C5
:1057000061FF84214DF2216000F05CFF02214DF227
:10571000226000F057FFA4214DF2236000F052FFF9
:1057200002214DF2246000F04DFFB7214DF22560BB
:1057300000F048FF02214DF2266000F043FFCF2128
:105740004DF2276000F03EFF02214DF2286000F08C
:1057500039FFDE214DF2296000F034FF02214DF2C5
:105760002A6000F02FFFF2214DF22B6000F02AFF9B
:1057700002214DF22C6000F025FFFE214DF22D603C
:1057800000F020FF03214DF22E6000F01BFF1021DE
:105790004DF22F6000F016FF03214DF2306000F053
:1057A00011FF33214DF2316000F00CFF03214DF267
:1057B000326000F007FF6D214DF2336000F002FF10
:1057C0005521184600F0FEFEAA21204600F0FAFE00
:1057D0005221284600F0F6FE0821304600F0F2FE85
:1057E0000021384600F0EEFECC21484600F0EAFEEB
:1057F0000021504600F0E6FE0521404600F0E2FEA2
:105800007021584600F0DEFE70214BF2017000F06E
:10581000D9FE01214FF4384000F0D4FE03214BF6AD
:10582000010000F0CFFE03214BF6020000F0CAFE9B
:1058300003214BF6030000F0C5FE02214FF43C406B
:1058400000F0C0FE00214BF6014000F0BBFE00213D
:105850004BF6024000F0B6FED0214FF4494000F074
:10586000B1FE02214CF6011000F0ACFE50214CF6C6
:10587000021000F0A7FE50214CF6031000F0A2FE2B
:1058800050214CF6041000F09DFE00214FF45450BE
:1058900000F098FE55214FF4685000F093FE4FF44D
:1058A000885000F079FE012000F0F8FEBDE8F05FBE
:1058B0004FF4245000F070BE10B5E22000F06CFEF2
:1058C0001D2000F05DFE022000F05AFE042000F0D2
:1058D00057FE642000F0E2FEE02000F05DFE0120B3
:1058E00000F04EFE0A2000F0D9FEE02000F054FE49
:1058F000032000F045FE0C2000F0D0FE012000F057
:105900004BFE0A2000F0CAFEE62000F045FE2F20E4
:1059100000F036FEFF2000F033FEFF2000F030FEE6
:10592000B02000F039FE202000F02AFE002000F018
:1059300027FE032000F024FE40F21F3000F020FE7E
:10594000012000F01DFE40F2DF1000F019FE0020E3
:1059500000F016FEB42000F01FFE042000F010FE40
:1059600040F21F4000F00CFE002000F009FE2E2047
:1059700000F006FE002000F003FE002000F000FE14
:10598000002000F0FDFD002000F0FAFDB62000F040
:1059900003FE022000F0F4FD4FF4037000F0F0FD70
:1059A000002000F0EDFD172000F0EAFD152000F0CA
:1059B000E7FD002000F0E4FD002000F0E1FDF02014
:1059C00000F0EAFD032000F0DBFD292000F0E4FDFB
:1059D000D02000F0E1FD002000F0D2FDBE2000F05C
:1059E000DBFD052000F0CCFDFE2000F0C9FD01200C
:1059F00000F0C6FD002000F0C3FD002000F0C0FD57
:105A0000002000F0BDFDB82000F0C6FD032000F02E
:105A1000B7FD012000F0B4FDBA2000F0BDFDBDE8E7
:105A20001040012000F0ACBD10B5112000F0B4FD15
:105A3000782000F033FE362000F0AEFD002000F0AC
:105A40009FFD3A2000F0A8FD052000F099FDB2204E
:105A500000F0A2FD0C2000F093FD0C2000F090FD62
:105A6000002000F08DFD332000F08AFD332000F08F
:105A700087FDB72000F090FD352000F081FDBB20B0
:105A800000F08AFD322000F07BFDC02000F084FD94
:105A90000C2000F075FDC22000F07EFD012000F01A
:105AA0006FFDC32000F078FD102000F069FDC420D8
:105AB00000F072FD202000F063FDC62000F06CFDB8
:105AC0000F2000F05DFDD02000F066FDA42000F066
:105AD00057FDA12000F054FDE02000F05DFDD02036
