:020000040800F2
:10000000F00400209D010008A71600085D150008F7
:100010009F160008090400085F1A0008000000008D
:10002000000000000000000000000000AB16000807
:100030000B04000800000000A9160008AD16000817
:10004000B7010008B7010008B7010008B7010008B0
:10005000B7010008B7010008B7010008B7010008A0
:10006000B7010008B7010008B7010008B701000890
:10007000B7010008B7010008B7010008B701000880
:10008000B7010008B7010008D5020008B701000851
:10009000B7010008B7010008B7010008B701000860
:1000A000B7010008B7010008B7010008B701000850
:1000B000B7010008B7010008B7010008B701000840
:1000C000B7010008B7010008B7010008B701000830
:1000D000B7010008B7010008B7010008B701000820
:1000E000B7010008B7010008B7010008B701000810
:1000F000B7010008B7010008B7010008B701000800
:10010000B7010008B7010008B7010008B7010008EF
:10011000B7010008B7010008B7010008B7010008DF
:10012000B7010008B7010008B7010008B7010008CF
:10013000B7010008B7010008B7010008B7010008BF
:10014000B7010008B7010008B7010008B7010008AF
:10015000B7010008B7010008B7010008B70100089F
:10016000B7010008B7010008B7010008B70100088F
:10017000B7010008B7010008B7010008000000003F
:10018000B7010008B7010008DFF80CD000F090F8C4
:10019000004800472D1C0008F00400200648804756
:1001A00006480047FEE7FEE7FEE7FEE7FEE7FEE75C
:1001B000FEE7FEE7FEE7FEE74917000889010008B1
:1001C0002DE9F05F0546002092469B46884606468C
:1001D000814640241BE0284641464746224600F01F
:1001E00057F853465A46C01A914110D31146184643
:1001F000224600F03EF82D1A67EB01084F462246D2
:100200000120002100F035F817EB00094E41201EB7
:10021000A4F10104DFDC484631462A464346BDE8E6
:10022000F09FD2B201E000F8012B491EFBD27047CB
:100230000022F6E710B513460A4604461946FFF7B2
:10024000F0FF204610BD30B50B46014600202022AD
:10025000012409E021FA02F59D4205D303FA02F5D3
:10026000491B04FA02F52844151EA2F10102F1DC33
:1002700030BD202A04DB203A00FA02F1002070474A
:100280009140C2F1200320FA03F3194390407047D4
:10029000202A04DB203A21FA02F00021704721FADB
:1002A00002F3D040C2F12002914008431946704742
:1002B000064C074D06E0E06840F0010394E80700B3
:1002C00098471034AC42F6D3FFF762FFE41C0008F5
:1002D000041D0008014800F065B90000140000206A
:1002E000464910B54A6822F440324A604A68436879
:1002F0001A434A6001684A6822F480724A600168C1
:100300004A68036942EA03224A6001684A6822F0A7
:1003100040724A6001684A6883681A434A6001680B
:100320008A6822F400628A6001688A68C3681A4396
:100330008A60816A6FF07062D14201688A6822F037
:1003400070628A6001688A680CD0836A1A438A6086
:1003500001688A6822F040528A6001688A68C36A2C
:100360001A4301E022F040528A6001688A6822F054
:1003700002028A6001688A68037E42EA43028A6058
:1003800090F82010002901684A680FD042F40062FA
:100390004A6001684A6822F460424A6001684A681B
:1003A000174C436A04EB43331A4301E022F4006222
:1003B0004A600168CA6A22F47002CA620168CA6AA5
:1003C000838B104C04EB03531A43CA6201688A689A
:1003D00022F400728A6001688A6890F8303042EA3C
:1003E00043228A6001688A6822F480628A60016818
:1003F0008A68406942EA8020886010BD002301407D
:1004000000E0FFFF0000F0FFFEE7704772B6FEE776
:100410007047000078B50024009490F83C20012A31
:1004200019D0012280F83C200A6807230568092AB0
:1004300013D9EE680A3A02EB420293409E43EE6003
:100440000B788A680A3B03EB43039A400368DD6834
:100450002A43DA6010E0022078BD2E6902EB4202E6
:1004600093409E432E610B788A6803EB43039A40C6
:1004700003681D692A431A614A681F23072A13D299
:1004800005686E6B521E02EB820293409E436E63C0
:100490000B790A885B1E92B203EB83039A400368D0
:1004A0005D6B2A435A6327E005680D2A12D22E6B32
:1004B000D21F02EB820293409E432E630B790A887F
:1004C000DB1F92B203EB83039A4003681D6B2A4340
:1004D0001A6311E0EE6A0D3A02EB820293409E43EA
:1004E000EE620B790A880D3B92B203EB83039A40CC
:1004F0000368DD6A2A43DA62164B0568144A9D4296
:1005000006D10D68122D03D1556845F4800555605C
:1005100005689D4218D10B68102B01D0112B13D107
:10052000536843F400035360096810290CD10A4949
:100530000A4A0968B1FBF2F101EB8101490000E0D0
:10054000491E00910029FBD180F83C40002078BD75
:1005500000230140002001400C00002040420F0019
:1005600010B5084A016891420BD100F018F8014615
:1005700040F6E4404843020BBDE8104002A001F001
:100580006FBA10BD0020014076616C3A25642C20C2
:10059000566F6C743A25640D0A00000070470068BD
:1005A000C06C704770B5044600680668456816F070
:1005B000020F05F020012AD049B3216CC90603D4EB
:1005C000216C41F400712164816811F0405F17D102
:1005D000217EA9B9C16A11F4700F02D08168490562
:1005E0000ED4416821F020014160206C20F480701D
:1005F0002064206CC00403D4206C40F0010020640F
:100600002046FFF7ADFF21686FF01200086016F07A
:10061000040F05F0800132D089B3206CC00603D4EA
:10062000206C40F4005020642068816811F4401F61
:100630001ED1816B11F4401F02D08168490517D487
:100640004168490514D4816811F0405F10D1217EC2
:1006500071B9416821F080014160206C20F4805024
:100660002064206CC00503D4206C40F0010020649D
:100670002046FFF7CDFE21686FF00C00086016F0F1
:10068000010F05F040010FD071B120680068C0076C
:100690000AD0206C40F480302064204600F043F8FB
:1006A00021686FF00100086016F0200F05F08061EE
:1006B0000ED000290CD0606C40F00200606420680D
:1006C0006FF0200505602046FFF768FF2068056091
:1006D00070BD70B504004FF0000503D0206C0026FB
:1006E00010B107E0012070BD204600F01DF86664DF
:1006F00084F83C60206CC00610D4206C20F4885034
:1007000040F0020020642046FFF7EAFD6664206C9A
:1007100020F0020040F00100206400E0012584F890
:100720003C60284670BD704710B586B00446142161
:100730006846FFF77DFD15492068884224D114489A
:100740000021026842F480720260006800F4807048
:1007500005900F481438026842F0010202600068F8
:1007600000F001000590202000900320CDE9010158
:100770006946084800F0F6F800220121122000F036
:1007800057FA122000F046FA06B010BD00200140D2
:1007900044380240000002402DE9F0410446006860
:1007A0000D4681684FF0000749050BD58068C005EC
:1007B00008D5206C40F02000206484F83C700120B3
:1007C000BDE8F08100F0C6F9064613E0681C11D0C0
:1007D00025B100F0BFF9801BA8420BD92068006842
:1007E000800707D4206C40F00400206484F83C703B
:1007F0000320E5E7206800688007E7D521686FF0EF
:1008000012000860206C40F4007020642068816849
:1008100011F0405F13D1217E89B9C16A11F4700FC4
:1008200002D0806840050AD4206C20F480702064D7
:10083000206CC00403D4206C40F001002064002030
:10084000BEE7000018B50021009190F83C20012A75
:1008500007D0012280F83C2002689368DB0702D0B1
:1008600011E0022018BD936843F0010393602E4A03
:100870002E4B1268B2FBF3F202EB420200E0521E72
:100880000092002AFBD102689368DB0742D0036C18
:1008900040F20164A34343F48073036453685B052F
:1008A00005D5036C23F4005343F480530364036CB5
:1008B000DB0404D5436C23F00603436400E0416489
:1008C00080F83C101A496FF02203136049680068F1
:1008D000CA06184906D0884224D1816811F0405FC9
:1008E00013D01FE08842F8D0134A904203D1D1F8C8
:1008F0000423D206F1D0114A904213D1D1F8041347
:1009000001F01F011029E8D30CE0816841F080411B
:10091000816007E0016C41F010010164416C41F01D
:1009200001014164002018BD0C00002040420F006E
:10093000002301400020014000210140002201402D
:1009400070B5044600F006F90546601C02D0044864
:100950000078044400F0FEF8401BA042FAD370BDBA
:10096000000000202DE9F84FDFF8BCA1002201258E
:1009700003264FF00F090AF1040BAAF1040E00BF81
:100980000B6805FA02F42340A34270D10F7907F0F7
:100990000307012F01D0022F16D187684FEA4208C2
:1009A00006FA08FC27EA0C07D1F80CC00CFA08FC80
:1009B0004CEA070CC0F808C04768A7430C79C4F399
:1009C000001494403C4344600C79E443A4070AD0EB
:1009D000C4684FEA420C06FA0CF7BC438F6807FA6A
:1009E0000CF72743C7600C7904F00304022C12D1E2
:1009F000D40800EB840CDCF820405707FF0E09FAFE
:100A000007F824EA0804D1F8108008FA07F848EA41
:100A10000408CCF8208004684FEA420C06FA0CF770
:100A2000BC430F7907F0030707FA0CF72743076069
:100A30004C6814F4403F70D03C4C276847F4804722
:100A40002760246822F0030704F480440094384CA3
:100A500007EB040CDCF8084897074FEA177809FA07
:100A600008F7BC43334FB84202D1002724E054E0DA
:100A7000314FB84201D101271EE0304FB84201D1B9
:100A8000022719E02E4FB84201D1032714E02D4F61
:100A9000B84201D104270FE02B4FB84201D10527FE
:100AA0000AE02A4FB84201D1062705E0284FB84294
:100AB00001D1072700E0082707FA08F72743CCF8F9
:100AC0000878DAF800405746D1F804C09C435FEA42
:100AD000CC2C00D51C433C60DBF800405F46D1F8CD
:100AE00004C09C435FEA8C2C00D51C433C60DEF8BC
:100AF00000407746D1F804C09C435FEA8C3C00D5A7
:100B00001C433C60084F083F3C68D1F804C09C433C
:100B10005FEACC3C00D51C433C60521C102AFFF419
:100B20002FAFBDE8F88F0000083C01404438024078
:100B30000030014000000240000402400008024072
:100B4000000C024000100240001402400018024055
:100B5000001C02400148806870470000000000202F
:100B600002488168027811448160704700000020CB
:100B70000B4810B5016841F400710160016841F44F
:100B800080610160016841F480710160032000F020
:100B90006FF80F2000F006F800F024F8002010BDD8
:100BA000003C024070B50D4D04464FF47A71287830
:100BB000B1FBF0F00A490968B1FBF0F000F00AFB64
:100BC00048B9102C07D200222146501E00F030F800
:100BD00000206C6070BD012070BD0000000000208E
:100BE0000C0000200A4808B5016841F4804101600A
:100BF000006800F4804000900548001F016841F043
:100C000080510160006800F08050009008BD000035
:100C100044380240002809DB00F01F020121914006
:100C20004009800000F1E020C0F80011704700008A
:100C3000F0B40E4B1B680C46C3F30223C3F1070547
:100C4000042D00D90425191D072901D2002300E035
:100C5000DB1E012606FA05F1491E214099409E40FF
:100C6000761E16403143F0BC00F00ABF0CED00E0E8
:100C7000064900F0070208684FF6FF03184040EAF3
:100C80000220034A10430860704700000CED00E0AA
:100C90000000FA052DE9F0470E46050065D0DFF8A3
:100CA0001481D8F80000F7B200F00700B04207D274
:100CB00088F80070D8F8000000F00700B04254D166
:100CC00028683D4C810712D5400703D5206840F4C1
:100CD000E05020602878000703D5206840F4604089
:100CE00020602068A96820F0F00008432060287880
:100CF000C0072DD0304968680839012812D0022871
:100D000013D0032811D00968890700292DDA21683A
:100D100021F0030101432160FFF71CFF814641F2EE
:100D2000883A0EE009688903EFE709688901ECE772
:100D3000FFF710FFA0EB0901514502D90320BDE8E0
:100D4000F0872068696800F00C00B0EB810FEFD1EC
:100D5000D8F80010404601F00701B14207D90770EA
:100D6000006800F00700B04201D00120E7E72878D2
:100D7000400705D52068E96820F4E050084320606A
:100D80002878000706D52068296920F4604040EAE9
:100D9000C100206000F038F82168084AC1F303114F
:100DA000515CC8400649086006480068FFF7FAFE33
:100DB0000020C4E7003C024008380240CC1C000878
:100DC0000C00002004000020044805490068096860
:100DD000044AC1F38221515CC84070470C000020D6
:100DE00008380240DC1C000804480549006809680E
:100DF000044AC1F34231515CC84070470C000020E6
:100E000008380240DC1C0008154810B5006810F0D6
:100E10000C02144813D04110042A0FD0082A0ED116
:100E20000F4C241F2268236802F03F025B0207D5A3
:100E30002068C0F38810A0FB010106E0084610BD41
:100E40002168C1F38811A1FB00010023FFF7B8F965
:100E50002168C1F30141491C4900B0FBF1F010BD0C
:100E6000083802400024F4002DE9F84F04006ED049
:100E70002078DFF84C93C007A9F104054AD009F1A6
:100E800004000168C1F38101012908D00068C0F3A2
:100E9000810002280AD1D9F80000400206D528684E
:100EA000800337D560680028E1D033E06068B0F592
:100EB000803F10D0B0F5A02F286810D020F48030EB
:100EC0002860286820F4802028606068A8B1FFF7B7
:100ED00041FE06460DE0286840F48030F4E740F417
:100EE00080202860F7E700BFFFF734FE801B6428EE
:100EF00073D828688003F7D50CE0FFF72BFE064671
:100F000005E000BFFFF726FE801B6428F0D82868A4
:100F10008003F7D42078DFF8AC8280074FF0000A16
:100F20003ED5A748001D016811F00C0F08D00068DD
:100F3000C0F3810002280BD1D9F80000400207D489
:100F40002868800716D5E068012800D112E033E157
:100F5000E068B8B10120C8F80000FFF7FBFD0646C5
:100F600005E000BFFFF7F6FD801B0228C0D8286807
:100F70008007F7D52868216920F0F80040EAC10011
:100F800028600DE0C8F800A0FFF7E4FD064604E085
:100F9000FFF7E0FD801B02281FD828688007F7D4E0
:100FA0002078000722D5864F87486169703771B174
:100FB00001210160FFF7CEFD064604E0FFF7CAFD00
:100FC000801B022809D838688007F7D50EE0C0F8E2
:100FD00000A0FFF7BFFD064605E082E0FFF7BAFD7F
:100FE000801B02287DD838688007F7D42078400716
:100FF00068D5DFF8CCB100270BF13C0BDBF8000023
:10100000C0000BD4DBF8001041F08051CBF8001089
:10101000DBF80000012700F0805000906B4E306834
:10102000C00510D4306840F480703060FFF792FD46
:10103000009005E0FFF78EFD0099401A022850D875
:101040003068C005F6D55E4EA0686C3601280FD01A
:101050000528306810D020F001003060306820F0A2
:1010600004003060A068B8B1FFF774FD00900FE095
:10107000306840F00100F4E740F004003060F7E72A
:10108000FFF768FD0099411A41F28830814266D825
:1010900030688007F4D50EE0FFF75CFD009007E0B4
:1010A000FFF758FD0099411A41F28830814256D825
:1010B00030688007F4D42FB1DBF8001021F08051A4
:1010C000CBF80010A069C8B33D49091D0968C1F3F8
:1010D000810102294AD00228504607D0C8F8600092
:1010E00000E03CE0FFF736FD04463BE04746C8F829
:1010F0006000FFF72FFD064605E000BFFFF72AFD61
:10110000801B02282BD828688001F7D4D4E9070176
:101110000843A16A2E4A490802EB0141626A41EA8A
:101120008211084394F82C1040EA0161C9F80010BC
:1011300001203866FFF70EFD044606E03EE000BFE2
:10114000FFF708FD001B022809D828688001F7D5A1
:1011500034E000BFFFF7FEFC001B022802D9032089
:10116000BDE8F88F28688001F4D427E00128F7D083
:10117000D9F80000E26900F4800191421CD1226A92
:1011800000F03F01914217D147F6C071626A0140F9
:10119000B1EB821F10D1A26A4FF0FF3300F440314F
:1011A00003EB5202B1EB024F06D194F82C1000F081
:1011B0007060B0EB016F01D00120D1E70020CFE7D4
:1011C0000438024000004742800E47420070004051
:1011D0000000FFFF10B5401EB0F1807F01D3012059
:1011E00010BD4FF0E02460610F21601700F048FC53
:1011F0000020A06107202061002010BD70B590F88C
:101200003C20012A32D0012480F83C40022280F8A0
:101210003D2003685A689D6822F070060A683243D0
:101220005A60134B02689A4214D0B2F1804F11D029
:10123000104B9A420ED0104B9A420BD00F4B9A4251
:1012400008D00F4B9A4205D00E4B9A4202D00E4B5B
:101250009A4204D1496825F080031943916080F8CF
:101260003D40002180F83C10084670BD022070BD52
:10127000000001400004004000080040000C004055
:1012800000040140004001400018004010B5040077
:1012900003D094F83D0010B107E0012010BD0020FC
:1012A00084F83C00204600F01FF8022084F83D003E
:1012B000211D206800F050FA012084F8460084F8CF
:1012C0003E0084F83F0084F8400084F8410084F830
:1012D000420084F8430084F8440084F8450084F810
:1012E0003D00002010BD000008B500680649884296
:1012F00008D10648016841F002010160006800F071
:101300000200009008BD0000000400404038024088
:1013100070B5044690F83C000025012817D001263E
:1013200084F83C60022084F83D002068826822F046
:10133000770222F47F4282600868502838D00DDCA2
:1013400020284FD005DC90B3102811D14AE00220AC
:1013500070BD302846D040280AD13BE060282FD00D
:1013600070280DD0B0F5805F03D0B0F5005F12D0CB
:10137000012584F83D60002084F83C00284670BDBB
:10138000CB68D1E90121206800F04EFA206881681D
:1013900041F0770109E0CB68D1E90121206800F034
:1013A00043FA2068816841F480418160E1E719E0F7
:1013B000CA684968206800F049FA5021206806E0B0
:1013C000CA684968206800F052FA6021206800F07D
:1013D00035FACEE7CA684968206800F037FA40213C
:1013E0002068F4E7226801461046F0E770B5040073
:1013F00004D094F84100002510B106E0012070BD32
:1014000084F84050204600F023F8242084F841005E
:101410002068C16821F40051C160204600F060FAE4
:101420002068016921F4904101612068416921F03F
:101430002A0141612068C16841F40051C1606564BE
:10144000202084F8410084F842006563002070BDCC
:1014500010B586B0044614216846FEF7E9FE14492B
:101460002068884221D113480021026842F010020E
:101470000260006800F0100005900E481438026801
:1014800042F001020260006800F0010005904FF494
:10149000C06000900220CDE90101032003900720E5
:1014A000049069460448FFF75DFA06B010BD0000DD
:1014B0000010014044380240000002402DE9F8438A
:1014C000044690F84100984616460D46202802D062
:1014D0000220BDE8F88385B17EB100206064212040
:1014E00084F84100FFF736FBA6848146E684A068B5
:1014F0002027B0F5805F02D003E00120E9E72069F2
:1015000010B12E4600250EE000260CE0802120467A
:1015100000F06CFAA8B9C6B116F8010B2168486052
:10152000E08C401EE084E08C4B464FF00002CDF88A
:1015300000800028EAD14FF04001204600F056FA22
:1015400040B184F841700320C3E735F8020BC0F3C3
:101550000800E3E784F841700020BAE7FEE70000E6
:101560001FB500211548009101910291124A039183
:1015700002604FF48032C0E901210161017680F8F8
:1015800020100F4AC0E90A210124C461C16080F81B
:1015900030104461FFF79DF808B1FEF737FF0520D2
:1015A000CDE90004694605480294FEF733FF0028A0
:1015B00001D0FEF72BFF1FBD0020014014000020CA
:1015C0000100000F094808B5016841F08001016081
:1015D000016801F080010091016841F001010160A2
:1015E000006800F00100009008BD000030380240A3
:1015F00010B586B000241848009401940294039416
:10160000049414490594016042F2CF01C0E9011429
:1016100040F2E731C0E903148461FFF737FE08B1F7
:10162000FEF7F4FE4FF48050009069460A48FFF739
:101630006FFE08B1FEF7EAFE2020CDE9040404A9FC
:101640000548FFF7DBFD002801D0FEF7DFFE06B0FE
:1016500010BD0000000400405C0000200C4810B5E4
:101660000A4901604FF4E1314160002181600C22A0
:10167000C160C0E904128161C161FFF7B7FE0028B3
:1016800003D0BDE81040FEF7C1BE10BD0010014000
:10169000A400002000210160416081607047FEE7E6
:1016A0001C21FEF7C5BDFEE770477047FFF758BA2B
:1016B00030B593B030216846FEF7BAFD14210CA86E
:1016C000FEF7B6FD1E480025016841F0805101601B
:1016D000006800F0805011901A48016841F4804180
:1016E00001600068022400F4804011900120009005
:1016F000000401908001CDE90640082008904FF4D5
:10170000A870CDE9090404200B906846FFF7ACFBF4
:1017100008B172B6FEE70CA90F2081E831004FF442
:10172000A0500F904FF48050109005210CA8FFF7A7
:10173000B1FA002801D072B6FEE713B030BD000048
:1017400040380240007000400248016841F47001D6
:101750000160704788ED00E0F0B50268274B284D26
:10176000284E294F294C4FF0804C984209D06045B3
:1017700007D0A84205D0B04203D0B84201D0A04261
:1017800004D122F0700E4A6842EA0E0298421BD041
:10179000604519D0A84217D0B04215D0B84213D036
:1017A000A04211D01A4DA8420ED01A4DA8420BD01B
:1017B000194DA84208D0194DA84205D0184DA8428D
:1017C00002D0184DA84203D122F44075CA682A43BA
:1017D0004D6922F080022A438D68C5620D688562DA
:1017E000984201D0A04201D109690163016841F02A
:1017F00004010160012141610260F0BD000001406F
:101800000004004000080040000C004000040140BB
:1018100000400140004401400048014000180040E1
:10182000001C00400020004010B5846842EA0322FA
:1018300024F47F440A432243826010BD826822F070
:1018400070020A4342F007018160704710B5036AD5
:10185000046A24F001040462846924F0F00444EA78
:10186000021423F00A020A438461026210BD10B51B
:10187000036A046A24F010040462846923F0A0035C
:1018800024F4704444EA023243EA011182610162A5
:1018900010BD01680C3151E8002F22F4907241E82C
:1018A0000023002BF5D10168143151E8002F22F0FC
:1018B000010241E80023002BF5D1016B012909D178
:1018C00001680C3151E8002F22F0100241E800239A
:1018D000002BF5D1202180F84210002101637047D0
:1018E00070B5044600680169E26821F44051114373
:1018F00001612169A068E2690843616911430843F5
:101900002168CA6849F20C639A430243CA6020689E
:101910004169A26921F44071114341613149206854
:10192000884202D03049884202D1FFF75DFA01E0D7
:10193000FFF74AFAE2690023192164253226B2F53D
:10194000004F626828D0A0FB0101930F9200FEF7C0
:1019500037FC0146B0FBF5F06FF01802504301EB85
:10196000800006EB0010B0FBF5F000F0F002B1FBD8
:10197000F5F002EB0012B1FBF5F06FF018035843DD
:1019800001EB800006EB0010B0FBF5F000F00F005B
:1019900021681044886070BDA0FB010192185B4172
:1019A000FEF70EFC0146B0FBF5F00201B1FBF5F0CD
:1019B0006FF01803584301EB800006EBC000B0FB4A
:1019C000F5F000F0F80002EB4002B1FBF5F05843EF
:1019D00001EB800006EBC000B0FBF5F000F0070063
:1019E000D6E7000000100140001401402DE9F84343
:1019F000984617460D460446089E24E0701C22D0E7
:101A0000FFF7A8F8A0EB0800B0421AD8CEB12068C2
:101A1000C168490717D5802D15D0402D13D0016816
:101A2000C94309070FD4016800254068009020468B
:101A3000FFF72FFF0820606484F840500120BDE8C4
:101A4000F8830320FBE72068006835EA000004D033
:101A50000020B842D2D00020F1E70120F9E7FEE7EC
:101A60000FB4054B10B503A9044A029800F028F8FA
:101A700010BC5DF814FB0000151C000810000020CD
:101A80000907090E002804DB00F1E02080F80014AB
:101A9000704700F00F0000F1E02080F8141D70473F
:101AA00002E008C8121F08C1002AFAD17047704727
:101AB000002001E001C1121F002AFBD17047000085
:101AC0002DE9FF4F89B09B460446002506E02528F6
:101AD0000BD05A460B999047641C6D1C2078002847
:101AE000F5D10DB02846BDE8F08F0027B846012299
:101AF000474900E0074314F8013F203B02FA03F096
:101B00000842F7D120782E2819D114F8010F47F098
:101B100004072A280ED06FF02F022078A0F13001A0
:101B200009290CD808EB880102EB410100EB010800
:101B3000641CF2E70A98641C50F8048B0A90207821
:101B40000028CED0642808D0692806D075281ED079
:101B50005A460B9990476D1C58E00A994FF00A09B4
:101B600001C90A91002802DA40422D2102E039051C
:101B700004D52B218DF82010012103E0F90704D0B2
:101B80002021F7E78A4608AE0DE00021FAE70A991E
:101B90004FF00A0901C90A91F7E74946FEF753FBDE
:101BA000303106F8011D0028F7D1ADEB060000F139
:101BB0002009780701D44FF00108C84502DDA8EBE1
:101BC000090000E000208046002706E008A85A46E9
:101BD000C05D0B9990476D1C7F1C5745F6DB04E0F8
:101BE00030205A460B9990476D1CB8F10001A8F1BE
:101BF0000108F5DC05E016F8010B5A460B999047F1
:101C00006D1CB9F10001A9F10109F4DC641C65E760
:101C10000928010013B54FF0FF330122694602483D
:101C2000FFF74CFC00981CBDA40000208AB0FEF712
:101C30009FFFFFF73DFDFFF7C5FCFFF70FFDFFF727
:101C4000D7FCFFF78DFC13A0FFF70AFF7B2115A03F
:101C5000FFF706FF07A8FFF71DFD6846FFF720FD09
:101C60004FF4FA741348FEF7EDFDC8211148FEF752
:101C700093FD50B90F48FEF792FC014640F6E44050
:101C80004843020B0CA0FFF7EBFE2046FEF758FE80
:101C9000E8E7000068656C6C6F2073746D33320D7B
:101CA0000A00000076616C7565203D2025640D0AF0
:101CB000000000001400002076616C3A25642C209E
:101CC000566F6C743A25640D0A0000000000000095
:101CD00000000000010203040607080900000000DC
:101CE00001020304041D000800000020140000008D
:101CF000A01A0008181D000814000020DC040000D1
:101D0000B01A0008010000001000000000000000F0
:081D10000024F40000000000B3
:040000050800018965
:00000001FF
