:020000040800F2
:10000000707C00205D020008B33D00082F37000817
:10001000B13D00088D0C0008F154000800000000FC
:100020000000000000000000000000009D0100082A
:10003000790D000800000000F9010008454E000895
:1000400077020008770200087702000877020008AC
:10005000770200087702000877020008770200089C
:10006000770200087702000877020008770200088C
:10007000990C000877020008A50C00087702000818
:10008000770200087702000877020008770200086C
:10009000770200087702000877020008770200085C
:1000A000770200087702000877020008770200084C
:1000B000770200087702000877020008770200083C
:1000C000770200087702000877020008770200082C
:1000D000770200087702000877020008E55400085C
:1000E000770200087702000877020008770200080C
:1000F00077020008770200087702000877020008FC
:1001000077020008ED3E0008770200087702000839
:100110007702000877020008094F000877020008FC
:10012000B10C00087702000877020008BD0C000837
:1001300077020008770200087702000877020008BB
:1001400077020008770200087702000877020008AB
:1001500077020008C90C000877020008770200083F
:10016000770200087702000877020008770200088B
:1001700077020008770200087702000800000000FC
:100180007702000877020008DFF80CD000F072FB5D
:10019000004800475DC10008707C00202C4B1968A6
:1001A0000868B0E8F04F80F30988BFF36F8F4FF015
:1001B000000080F3118870470000000008480068C4
:1001C000006880F308884FF0000080F3148862B65E
:1001D00061B6BFF34F8FBFF36F8F00DF00BF00BF6B
:1001E00008ED00E0DFF80C00016841F470010160E7
:1001F000704700BF88ED00E0EFF30980BFF36F8F19
:10020000134B1A681EF0100F08BF20ED108A20E96A
:10021000F04F106009B44FF0500080F31188BFF325
:100220004F8FBFF36F8F0DF071FC4FF0000080F324
:10023000118809BC19680868B0E8F04F1EF0100F6B
:1002400008BFB0EC108A80F30988BFF36F8F704746
:10025000A0000020EFF305807047000006488047AB
:1002600006480047FEE7FEE7FEE7FEE7FEE7FEE79B
:10027000FEE7FEE7FEE7FEE7F94E00088901000809
:100280002DE9F05F0546002092469B4688460646CB
:10029000814640241BE0284641464746224600F05E
:1002A00036F953465A46C01A914110D311461846A2
:1002B000224600F01DF92D1A67EB01084F46224631
:1002C0000120002100F014F917EB00094E41201E17
:1002D000A4F10104DFDC484631462A464346BDE826
:1002E000F09F40EA01039B0703D009E008C9121FF1
:1002F00008C0042AFAD203E011F8013B00F8013BE0
:10030000521EF9D27047D2B201E000F8012B491E0B
:10031000FBD270470022F6E710B513460A460446A2
:100320001946FFF7F0FF204610BD421C10F8011BD4
:100330000029FBD1801A704710B5002200E0521C42
:10034000835C8C5CA34201D1002BF8D1D8B2E1B21E
:10035000401A10BD30B504460020034600E05B1C87
:10036000934203D2E05CCD5C401BF8D030BD2DE958
:10037000FE4F81EA030404F0004421F000410094A0
:100380004FF0000B23F0004350EA01045ED052EA24
:1003900003045BD0C3F30A54C1F30A552C44A4F2FE
:1003A000F3340194A0FB0254C1F3130141F4801112
:1003B000C3F3130343F4801301FB024400FB034E19
:1003C000840A970A44EA815447EA8357A4FB0768E2
:1003D00002958D0A05FB07854FEA932C04FB0C540C
:1003E0002705029D4FEA065847EA1637B5EB080580
:1003F0006EEB070C870E920E47EA811742EA8312D2
:10040000A7FB0201B6EB0B0164EB00042B0D43EAE2
:100410000C335E1844EB1C50DA465146E7FB0201F0
:10042000C5F313044FEA0B3343EA14534FEA043283
:10043000019C43EA0603A4F10C040294009CCDE95C
:1004400000B400F083F803B0BDE8F08F002001464F
:10045000F9E70EB540F2334102910021CDE90011D8
:100460000A460B4600F072F803B000BDC1F30A5211
:1004700010B5C1F3130140F2FF3341F480119A42E9
:1004800001DA002010BD40F233439A42A2F2334217
:1004900003DC524200F03BF810BD904010BD00F06C
:1004A000004230F000400AD0C10D01F56071C0F388
:1004B000160042EA0151C20840071143704700206C
:1004C0000146704730B50B4601460020202201242A
:1004D00009E021FA02F59D4205D303FA02F5491B12
:1004E00004FA02F52844151EA2F10102F1DC30BD28
:1004F000202A04DB203A00FA02F1002070479140E4
:10050000C2F1200320FA03F3194390407047202AD8
:1005100004DB203A21FA02F00021704721FA02F3AD
:10052000D040C2F12002914008431946704710B5EF
:10053000141E73F1000408DA401C41F10001921806
:100540005B411A4301D120F0010010BD2DE9F04DAF
:1005500092469B4611B1B1FA81F202E0B0FA80F204
:1005600020329046FFF7C4FF04460F4640EA0A00D7
:1005700041EA0B0153465A46084313D0114653EA49
:10058000010019D0C8F140025046FFF7C0FF0546F0
:100590000E46504659464246FFF7AAFF084305D08B
:1005A000012004E020463946BDE8F08D00200543D7
:1005B00046EAE0762C4337430A986305E40AA0EB49
:1005C00008000022FD0A44EA47540A3002D5002000
:1005D0000146E9E7010510196941DDE908450019FF
:1005E0006941BDE8F04DA2E72DE9FE4F804681EA62
:1005F0000300C00F0C46009021F0004123F000459D
:10060000B8EB0200A94105D24046214690461C465F
:100610000B46024623F00040104347D0270DC7F396
:100620000A00C3F30A510290401A019040286BDA85
:10063000C3F3130040F4801B0098924620B10023BE
:10064000D2EB030A63EB0B0B01985946C0F1400251
:100650005046FFF74DFF06460D4650465946019A53
:1006600000F01AF910EB08006141002487EA1152EA
:1006700084EAE7731A4340D0009A62B3019A012AD0
:100680004FEA075215DC001B61EB02014FF00042FC
:1006900002EA0752CDE90042001C41F580113246C2
:1006A0002B46FFF753FF03B0BDE8F08F40462146CD
:1006B000F9E7001B61EB0201001C41F580130018F3
:1006C0005B412018A2F5001747EB030140EAD57003
:1006D000B6196D4111E06D084FEA360645EAC0755E
:1006E0004FEA0752001B61EB0201001C41F580112B
:1006F00049084FEA30000019514132462B4603B0F9
:10070000BDE8F04FFFF713BF00980122400000231F
:10071000D0EB020263EBE073009821464FEAE074ED
:10072000B8EB000061EB0401E9E783F000435BE70D
:1007300081F0004158E72DE9F04D81EA030404F00F
:10074000004B21F0004514464FF0000A23F0004111
:1007500050EA050220D054EA01021DD0C5F30A5721
:100760000246C5F31303C1F31300C1F30A5640F464
:10077000801543F48013A7EB0608101BD64608F239
:10078000FD3873EB050002D308F1010801E092186F
:100790005B41B8F1000F03DA00200146BDE8F08D9F
:1007A00000204FF48011064684460EE0171B73EBC1
:1007B000050705D3121B63EB050306434CEA010C46
:1007C00049084FEA300092185B4150EA0107EDD129
:1007D00052EA030012D082EA040083EA05010843CA
:1007E00005D0101BAB4106D20122002306E00022F7
:1007F0004FF0004302E06FF0010253101AEB0600C5
:100800004CEB085110EB0A0041EB0B01BDE8F04D39
:10081000FFF78DBEC1F30A52C1F3130140F2FF335B
:1008200041F480119A4202DA00200146704740F2FA
:1008300033439A42A2F2334202DC5242FFF767BED0
:10084000FFF756BE30B5041E71F1000404DB4FF013
:100850000044404264EB0101141E73F1000405DB07
:100860001C464FF00043524263EB0403994208BF19
:10087000904230BD064C074D06E0E06840F00103B1
:1008800094E8070098471034AC42F6D3FFF780FC99
:1008900058C6030878C60308202A06DBCB17203A7F
:1008A00041FA02F043EAE07306E041FA02F3D04075
:1008B000C2F12002914008431946704770B58C1868
:1008C00010F8015B15F0070301D110F8013B2A1164
:1008D00006D110F8012B03E010F8016B01F8016B51
:1008E0005B1EF9D12B0705D40023521E0DD401F84D
:1008F000013BFAE710F8013BCB1A921C03E013F816
:10090000015B01F8015B521EF9D5A142D8D300204A
:1009100070BD10B50146806B026C12F0500F05D00F
:10092000026CD20626D500F0E8FC10BD016C41F443
:100930000071016401688A6812F0405F17D1027E7D
:10094000AAB9CA6A12F4700F02D08A6852050ED48E
:100950004A6822F020024A60016C21F4807101642F
:10096000016CC90403D4016C41F00101016400F081
:10097000A5FC10BD806BC26CBDE810400846104756
:1009800010B5806B40210164416C41F00401416469
:1009900000F0B3FC10BD10B5806B00F0ADFC10BDD5
:1009A000464910B54A6822F440324A604A684368B2
:1009B0001A434A6001684A6822F480724A600168FA
:1009C0004A68036942EA03224A6001684A6822F0E1
:1009D00040724A6001684A6883681A434A60016845
:1009E0008A6822F400628A6001688A68C3681A43D0
:1009F0008A60816A6FF07062D14201688A6822F071
:100A000070628A6001688A680CD0836A1A438A60BF
:100A100001688A6822F040528A6001688A68C36A65
:100A20001A4301E022F040528A6001688A6822F08D
:100A300002028A6001688A68037E42EA43028A6091
:100A400090F82010002901684A680FD042F4006233
:100A50004A6001684A6822F460424A6001684A6854
:100A6000174C436A04EB43331A4301E022F400625B
:100A70004A600168CA6A22F47002CA620168CA6ADE
:100A8000838B104C04EB03531A43CA6201688A68D3
:100A900022F400728A6001688A6890F8303042EA75
:100AA00043228A6001688A6822F480628A60016851
:100AB0008A68406942EA8020886010BD00230140B6
:100AC00000E0FFFF0000F0FF10B5FF2000F022F86B
:100AD00055280AD05521FF2000F04DF8FF2000F0E6
:100AE00019F8552801D0012010BD002010BD02F0DA
:100AF0003FBE70B514460D46064608E03046711CF0
:100B00008EB200F007F8641E05F8010BA4B2002CA9
:100B1000F4D170BD10B5044602F0D2FE200AA02127
:100B200001EB4000C0B202F09BFE02F00BFFE0B20E
:100B300002F096FE02F006FF02F0C2FEA12002F0D3
:100B40008FFE02F0FFFE002002F056FE044602F087
:100B5000D7FE204610BD70B516460C46054606E089
:100B60002178284600F007F86D1CADB2641C761E93
:100B7000B6B2F5D270BD70B50D46044602F0A0FEC7
:100B8000200AA02101EB4000C0B202F069FE02F091
:100B9000D9FEE0B202F064FE02F0D4FE284602F074
:100BA0005FFE02F0CFFE02F0ABFEBDE870400A200F
:100BB0000BF028BB704700000146014801F0FCBC67
:100BC000E81B002010B5044801F008FD042801D0FE
:100BD000012010BD002010BDE81B002010B500F062
:100BE00015F8012801D0012010BD074801F010FEC2
:100BF000040006D14FF40061034801F083FB00B10B
:100C00000124204610BD0000E81B002008B501208B
:100C10008DF800009DF8000008BD0000134610B5D7
:100C20000A4601460024034801F0ECFE00B101240D
:100C3000204610BDE81B002008B50120ADF80000DB
:100C4000034800231A46694640680BF08DFB08BD37
:100C500020010020134610B50A460146002403482F
:100C600001F06AFF00B10124204610BDE81B0020FE
:100C700008B50220ADF80000034800231A46694673
:100C800040680BF071FB08BD20010020FEE7C17831
:100C9000006861F31F607047014800F0C1BC0000AC
:100CA000641E0020014800F0BBBC0000041E0020B0
:100CB000014800F0B5BC0000381B0020014800F0DE
:100CC000AFBC00006C1C0020014800F0A9BC000073
:100CD000CC1C002001681823CAB2103AB2FBF3F210
:100CE000054B6FF30901032A9B5CC36500D9091DFD
:100CF000816508467047000030EA000810B50146DB
:100D000000208B698A6A4FF0C07453B1B3F5005F5D
:100D100015D072B1012A0CD0022A0AD0032A09D1B7
:100D200004E01AB1012A06D0022A03D1C96AC90116
:100D300000D5012010BDC96AA142FAD010BD002A19
:100D4000F7D0012AF2D0022AF3D0032AF3D010BD43
:100D500030B50468256825F4802525600468636043
:100D60008368402B036803D099600068C26030BD7F
:100D70009A600068C16030BD704772B6FEE700221D
:100D8000AFF3008030B50E4B054601205C7A002C95
:100D900014D1587A1C54587A03EB800045605D7A70
:100DA00003F108002A54587A421C5A7230300870F5
:100DB0003A2048702F208870CC70002030BD000091
:100DC0006068002030B5B3F5804F05D06FF07041FA
:100DD00040F82210002030BD8C690B688D682343D9
:100DE0004C688989240144EA0524234343EA0141EC
:100DF00050F82230014C23401943E9E70000F0CFBE
:100E000010B50A6850F8223023F0010340F8223070
:100E10008C68082C23D000234A682243CC681C43EA
:100E20000B6922431A434B690E4C1A43CB691A4390
:100E30000B6A1A434B6A1A438B6A1A43CB6A1A43EA
:100E40000B6B1A438B691343CA6B09681A4350F83A
:100E50002130A343134340F82130002010BD40232C
:100E6000DAE700007FFF0F0030B5D1E9003443EA34
:100E700004138C688D89240244EA054423430C8AB8
:100E8000074D00EB820005EB045423430C7D6D01FC
:100E900005EB0464896923430B434360002030BDA4
:100EA0000000F0FF38B54FF47A7000F02BFD51A030
:100EB00004F020FB51A004F01DFB012257A158486B
:100EC00006F0DEFE574C01460D28607006D0002962
:100ED00027D0BDE8384054A004F00CBB57A004F064
:100EE00009FB4FF48050002200905C4B11464BA050
:100EF00006F064F9607020B1BDE8384058A004F0F5
:100F0000F9BA5BA004F0F6FA012244A1002006F031
:100F1000B7FE012241A1424806F0B2FE60700028EF
:100F200066D158A004F0E6FA4BA004F0E3FA59A009
:100F300004F0E0FA0A225DA15F4806F0CDFE607081
:100F4000011E1CD05DA004F0D5FA62A004F0D2FA14
:100F50004FF480616548FFF7DDF9012253A156483F
:100F600006F0BAFE6070011E22D054A004F0C2FA4E
:100F7000BDE83840012229A1002006F081BE294B9E
:100F800020221B1D03F114014B4807F0B6F96070D5
:100F9000011E07D056A000BF04F0ACFA464806F088
:100FA000F9F8D2E757A004F0A5FA5AA06168F3E770
:100FB0001C4B40F2FF321B1D4C493F4807F028F8FC
:100FC0006070011E06D058A004F094FA3A4806F06A
:100FD000E1F8CDE7454962680020885457A004F045
:100FE00089FA5AA0616804F085FA40495CA0EBE7F1
:100FF00038BD00000D0A0D0A00000000312E204D02
:101000006F756E7420466174467320746573742026
:101010002A2A2A2A2A2A200D0A000000303A000033
:10102000E00100200C0000204D6F756E7420657289
:10103000726F723A2025640D0A0000004E6F206620
:10104000696C6573797374656D2C20666F726D6160
:101050007474696E672E2E2E0D0A0000700A00202F
:10106000466F726D6174206661696C65640D0A007B
:10107000466F726D617420737563636573730D0AD7
:10108000000000004D6F756E7420737563636573A7
:10109000730D0A00322E20577269746520746573CF
:1010A00074202A2A2A2A2A2A200D0A00303A2F746C
:1010B0006578742E74787400180400204F70656E83
:1010C0002066696C65206661696C65643A202564F8
:1010D0000D0A0000332E205265616420746573741C
:1010E000202A2A2A2A2A2A200D0A00007006002017
:1010F0005772697465206661696C65643A2025647D
:101100000D0A000057726974652073756363657317
:10111000730D0A005772697474656E206279746584
:10112000733A2025750D0A00526561642066616975
:101130006C65643A2025640D0A0000005265616404
:1011400020737563636573730D0A000052656164F3
:101150002062797465733A2025750D0A000000003D
:101160005265616420646174613A2025730D0A0040
:1011700078B50024009490F83C20012A19D001226F
:1011800080F83C200A6807230568092A13D9EE680D
:101190000A3A02EB420293409E43EE600B788A6863
:1011A0000A3B03EB43039A400368DD682A43DA6095
:1011B00010E0022078BD2E6902EB420293409E436C
:1011C0002E610B788A6803EB43039A4003681D691C
:1011D0002A431A614A681F23072A13D205686E6BD7
:1011E000521E02EB820293409E436E630B790A8883
:1011F0005B1E92B203EB83039A4003685D6B2A4344
:101200005A6327E005680D2A12D22E6BD21F02EB1B
:10121000820293409E432E630B790A88DB1F92B2B1
:1012200003EB83039A4003681D6B2A431A6311E0A2
:10123000EE6A0D3A02EB820293409E43EE620B7916
:101240000A880D3B92B203EB83039A400368DD6A80
:101250002A43DA62164B0568144A9D4206D10D688E
:10126000122D03D1556845F48005556005689D42EF
:1012700018D10B68102B01D0112B13D1536843F4F4
:1012800000035360096810290CD10A490A4A096809
:10129000B1FBF2F101EB8101490000E0491E009130
:1012A0000029FBD180F83C40002078BD002301409C
:1012B000002001409400002040420F0008B50021AA
:1012C00000910068094988420FD1094869460068C1
:1012D0000CF0FCFA0098002807D006494FF0805027
:1012E0000860BFF34F8FBFF36F8F08BD0020014030
:1012F0000000002004ED00E07047704770B5040066
:101300004FF0000503D0206C002610B107E001204B
:1013100070BD204600F01CF8666484F83C60206CC8
:10132000C00610D4206C20F4885040F002002064E5
:101330002046FFF735FB6664206C20F0020040F089
:101340000100206400E0012584F83C60284670BD5F
:1013500070B586B0064614216846FEF7DBFF2549C6
:101360003068884243D124480025016841F48071E7
:1013700001600068204900F4807014390590086805
:1013800040F001000860086800F00100059008685E
:1013900040F0020008600868032400F00200059095
:1013A000E0208DE831006946144800F011FB01206F
:1013B0008DE831006946124800F00AFB124C1148D2
:1013C000C4E900050015A560C4E903504000606150
:1013D0008000A0614011E0610002C4E908052046D8
:1013E00000F0EEF908B1FFF7C8FCB463A66306B0DD
:1013F00070BD00000020014044380240000002405F
:101400000004024010640240381B0020F8B50E466C
:1014100000210446009190F83C0013460A4601283A
:1014200007D0012084F83C0020688568ED0702D0D1
:1014300011E00220F8BD856845F00105856040484F
:10144000404D0068B0FBF5F000EB400000E0401EAE
:1014500000900028FBD120688568ED0503D58568DC
:1014600025F48075856020688568ED075DD0226C65
:1014700040F20165AA4342F480722264406840054C
:1014800005D5206C20F4005040F480502064206C7E
:10149000C00404D5606C20F00600606400E0616464
:1014A00084F83C10A16B2948274DC863A16B2848DC
:1014B0000864A16B2748C86421686FF022000860A7
:1014C0002068416841F0806141602068816841F492
:1014D00080718160216832464C31A06B00F0DAF9EE
:1014E000024668681C49C006206806D0884224D19C
:1014F000816811F0405F13D01FE08842F8D0174B8D
:10150000984203D1D1F80433DB06F1D0144B984252
:1015100013D1D1F8041301F01F011029E8D30CE016
:10152000816841F08041816007E0206C40F010004C
:101530002064606C40F0010060641046F8BD00005B
:101540009400002040420F000023014013090008CE
:10155000970900088109000800200140002101408E
:10156000002201402DE9F0410446876D00F036FB72
:10157000064694F835000025022806D080206065D4
:1015800084F834500120BDE8F0812068016821F022
:10159000160101602068416921F080014161206CE1
:1015A00008B9A06C20B12068016821F00801016031
:1015B0002068016821F0010101600CE000F00EFBE1
:1015C000801B052807D920206065032084F835009A
:1015D00084F83450D7E720680068C007EED194F84B
:1015E0005C103F208840B860012084F8350084F802
:1015F00034500020C7E790F83510022903D080212D
:10160000416501207047052180F8351000680168A8
:1016100021F00101016000207047406D704700001B
:101620002DE9F84304464FF00009CDF800906348D7
:101630004FF41651A56D0068B0FBF1F72E6894F8D1
:101640005C10082000FA01F131420FD021680A68CD
:1016500052070BD50A6822F004020A6094F85C1065
:101660008840A860606D40F00100606594F85C10EF
:101670004FF0010808FA01F0304208D021684969AA
:10168000090604D5A860606D40F00200606594F81A
:101690005C1004208840304208D02168096889071E
:1016A00004D5A860606D40F00400606594F85C109B
:1016B00010208840304218D021680968090714D5E5
:1016C000A86020680168490304D50068000308D5B4
:1016D000A16C07E00168C90503D4016821F0080185
:1016E0000160216C09B12046884794F85C102020E5
:1016F0008840304231D021680968C9062DD5A860DC
:1017000094F8350005282068016806D0490347D5BC
:10171000006800031DD4616C1CE021F0160101601B
:101720002068416921F080014161206C08B9A06CFA
:1017300020B12068016821F00801016094F85C1074
:101740003F208840A86084F8358084F83490216D6B
:101750001FE0E16B09B120468847606D00282BD05F
:10176000606DC00714D0052084F83500206801683A
:1017700021F0010101600098401C0090B84203D89C
:1017800020680068C007F6D184F8358084F834906A
:10179000E16C002910D001B02046BDE8F0430847B5
:1017A0000168C905D5D4016821F01001016084F8F1
:1017B000358084F83490CCE7BDE8F88394000020AD
:1017C0002DE9F041044600F009FA06465CB102201A
:1017D00084F83500002584F834502068016821F031
:1017E000010101600DE00120BDE8F08100F0F6F993
:1017F000801B052805D920206065032084F835006A
:10180000F2E720680068C007F0D12268116820481C
:101810000140D4E901031843D4E9033633431843A4
:1018200063691843A3691843E3691843236A18439B
:101830000843616A042903D1D4E90B13194308430F
:10184000106020684069666A20F0070130460E4348
:10185000012704280CD1A06A0643E06A40B1204663
:10186000FFF74CFA20B14020606584F83570BAE784
:10187000206846612046FFF72DFA94F85C203F214E
:1018800091408160656584F835700020ACE7000008
:101890003F8010F02DE9F0410446866D90F8340049
:1018A000002501280DD0012084F8340094F835700B
:1018B0000020012F07D084F8340002252846BDE817
:1018C000F0810220FBE7022784F83570606520462E
:1018D000FFF73EFA94F85C103F208840B060206823
:1018E000016841F016010160206C20B12068016898
:1018F00041F0080101602068016841F001010160C8
:10190000DCE7000070B5044600F068F90546601C8D
:1019100002D004480078044400F060F9401BA04263
:10192000FAD370BD880000202DE9F04186B0142163
:101930006846FEF7EFFC20480168002939D10121F3
:1019400001601E480024016841F001010160006847
:101950004FF4805800F001000C27CDF80080CDE94D
:101960000470032602250396CDE901546946144804
:1019700000F02EF84FF68070CDE9000502AA694606
:1019800082E8D0000F4800F023F84CF23370CDE924
:10199000000502AA694682E8D0000B4800F018F85A
:1019A00002AA694682E8D000CDE90085074800F028
:1019B0000FF806B0BDE8F081800000203838024002
:1019C0000014024000100240000C024000180240C7
:1019D0002DE9F84FDFF8BCA10022012503264FF0C6
:1019E0000F090AF1040BAAF1040E00BF0B6805FAF7
:1019F00002F42340A34270D10F7907F00307012FAF
:101A000001D0022F16D187684FEA420806FA08FC77
:101A100027EA0C07D1F80CC00CFA08FC4CEA070CBA
:101A2000C0F808C04768A7430C79C4F30014944079
:101A30003C4344600C79E443A4070AD0C4684FEAED
:101A4000420C06FA0CF7BC438F6807FA0CF72743E1
:101A5000C7600C7904F00304022C12D1D40800EB07
:101A6000840CDCF820405707FF0E09FA07F824EA37
:101A70000804D1F8108008FA07F848EA0408CCF8FE
:101A8000208004684FEA420C06FA0CF7BC430F7939
:101A900007F0030707FA0CF7274307604C6814F4B4
:101AA000403F70D03C4C276847F48047276024684B
:101AB00022F0030704F480440094384C07EB040C34
:101AC000DCF8084897074FEA177809FA08F7BC438B
:101AD000334FB84202D1002724E054E0314FB842DE
:101AE00001D101271EE0304FB84201D1022719E091
:101AF0002E4FB84201D1032714E02D4FB84201D137
:101B000004270FE02B4FB84201D105270AE02A4FE6
:101B1000B84201D1062705E0284FB84201D1072776
:101B200000E0082707FA08F72743CCF80878DAF826
:101B300000405746D1F804C09C435FEACC2C00D546
:101B40001C433C60DBF800405F46D1F804C09C4376
:101B50005FEA8C2C00D51C433C60DEF800407746E1
:101B6000D1F804C09C435FEA8C3C00D51C433C6028
:101B7000084F083F3C68D1F804C09C435FEACC3C66
:101B800000D51C433C60521C102AFFF42FAFBDE867
:101B9000F88F0000083C014044380240003001400A
:101BA000000002400004024000080240000C024015
:101BB000001002400014024000180240001C0240C5
:101BC000426921EA02030A4043EA02418161704707
:101BD0000AB1816170470904FBE700000148806891
:101BE0007047000088000020024881680278114494
:101BF00081607047880000200B4810B5016841F4EF
:101C000000710160016841F480610160016841F484
:101C100080710160032000F09FF80F2000F006F8AB
:101C200000F050F8002010BD003C024030B50546E1
:101C30001F4887B00024016841F01001016000686E
:101C400006A900F01000009001A800F031F90498F6
:101C5000A8B100F04DF940001649174AB0FBF1F168
:101C60001648491E026040F2E732C0E90324C0E989
:101C70000114846101F06AF8040003D015E000F05B
:101C800037F9E9E70D4801F0DFF804000DD13620FF
:101C900000F034F8102D07D200222946362000F03B
:101CA0003BF80748056000E0012407B0204630BD3E
:101CB0004038024040420F0000100040C41E002087
:101CC0008C0000200C4882B0016841F48041016022
:101CD000006800F4804000900748001F016841F050
:101CE000805101600068002200F0805000900F21B8
:101CF000901E02B000F010B844380240002809DB02
:101D000000F01F02012191404009800000F1E02015
:101D1000C0F8001170470000F0B40E4B1B680C4671
:101D2000C3F30223C3F10705042D00D90425191DAF
:101D3000072901D2002300E0DB1E012606FA05F187
:101D4000491E214099409E40761E16403143F0BC0A
:101D500003F0F8BB0CED00E0064900F0070208684C
:101D60004FF6FF03184040EA0220034A1043086080
:101D7000704700000CED00E00000FA052DE9F04787
:101D80000E46050065D0DFF81481D8F80000F7B2E0
:101D900000F00700B04207D288F80070D8F80000C1
:101DA00000F00700B04254D128683D4C810712D59D
:101DB000400703D5206840F4E050206028780007F1
:101DC00003D5206840F4604020602068A96820F0B6
:101DD000F000084320602878C0072DD0304968689B
:101DE0000839012812D0022813D0032811D009681D
:101DF000890700292DDA216821F0030101432160C0
:101E0000FFF7ECFE814641F2883A0EE0096889034B
:101E1000EFE709688901ECE7FFF7E0FEA0EB0901B5
:101E2000514502D90320BDE8F0872068696800F0B9
:101E30000C00B0EB810FEFD1D8F80010404601F054
:101E40000701B14207D90770006800F00700B042EF
:101E500001D00120E7E72878400705D52068E96828
:101E600020F4E050084320602878000706D5206859
:101E7000296920F4604040EAC100206000F058F871
:101E80002168084AC1F30311515CC8400649086043
:101E900006480068FFF7CAFE0020C4E7003C024085
:101EA0000838024038EA0008940000208C00002026
:101EB0000F2202600C4A136803F0030343601368A7
:101EC00003F0F0038360136803F4E053C360126807
:101ED0004FF4E05303EAD20202610448006800F0C4
:101EE000070008607047000008380240003C0240CC
:101EF0000448054900680968044AC1F38221515C1D
:101F0000C8407047940000200838024048EA0008A2
:101F10000448054900680968044AC1F34231515C2C
:101F2000C8407047940000200838024048EA000882
:101F3000154810B5006810F00C02144813D0411079
:101F4000042A0FD0082A0ED10F4C241F22682368C0
:101F500002F03F025B0207D52068C0F38810A0FBA7
:101F6000010106E0084610BD2168C1F38811A1FBFC
:101F700000010023FEF784F92168C1F30141491CE7
:101F80004900B0FBF1F010BD083802400024F40015
:101F90002DE9F84F04006ED02078DFF84C93C0078D
:101FA000A9F104054AD009F104000168C1F38101D7
:101FB000012908D00068C0F3810002280AD1D9F8AD
:101FC0000000400206D52868800337D560680028E5
:101FD000E1D033E06068B0F5803F10D0B0F5A02FBD
:101FE000286810D020F480302860286820F48020F1
:101FF00028606068A8B1FFF7F1FD06460DE028688B
:1020000040F48030F4E740F480202860F7E700BF18
:10201000FFF7E4FD801B642873D828688003F7D598
:102020000CE0FFF7DBFD064605E000BFFFF7D6FD3D
:10203000801B6428F0D828688003F7D42078DFF864
:10204000AC8280074FF0000A3ED5A748001D01680A
:1020500011F00C0F08D00068C0F3810002280BD1EA
:10206000D9F80000400207D42868800716D5E06838
:10207000012800D112E033E1E068B8B10120C8F8CE
:102080000000FFF7ABFD064605E000BFFFF7A6FD29
:10209000801B0228C0D828688007F7D528682169E6
:1020A00020F0F80040EAC10028600DE0C8F800A068
:1020B000FFF794FD064604E0FFF790FD801B022821
:1020C0001FD828688007F7D42078000722D5864FCC
:1020D00087486169703771B101210160FFF77EFDAA
:1020E000064604E0FFF77AFD801B022809D838680D
:1020F0008007F7D50EE0C0F800A0FFF76FFD064699
:1021000005E082E0FFF76AFD801B02287DD8386871
:102110008007F7D42078400768D5DFF8CCB10027D6
:102120000BF13C0BDBF80000C0000BD4DBF8001017
:1021300041F08051CBF80010DBF80000012700F0DF
:10214000805000906B4E3068C00510D4306840F469
:1021500080703060FFF742FD009005E0FFF73EFD24
:102160000099401A022850D83068C005F6D55E4E56
:10217000A0686C3601280FD00528306810D020F0F8
:1021800001003060306820F004003060A068B8B111
:10219000FFF724FD00900FE0306840F00100F4E705
:1021A00040F004003060F7E7FFF718FD0099411A8E
:1021B00041F28830814266D830688007F4D50EE05D
:1021C000FFF70CFD009007E0FFF708FD0099411AAA
:1021D00041F28830814256D830688007F4D42FB15C
:1021E000DBF8001021F08051CBF80010A069C8B3D3
:1021F0003D49091D0968C1F3810102294AD002281D
:10220000504607D0C8F8600000E03CE0FFF7E6FC6D
:1022100004463BE04746C8F86000FFF7DFFC06468F
:1022200005E000BFFFF7DAFC801B02282BD82868E6
:102230008001F7D4D4E907010843A16A2E4A49086E
:1022400002EB0141626A41EA8211084394F82C10C2
:1022500040EA0161C9F8001001203866FFF7BEFCB2
:10226000044606E03EE000BFFFF7B8FC001B022872
:1022700009D828688001F7D534E000BFFFF7AEFC2D
:10228000001B022802D90320BDE8F88F28688001CE
:10229000F4D427E00128F7D0D9F80000E26900F46F
:1022A000800191421CD1226A00F03F01914217D176
:1022B00047F6C071626A0140B1EB821F10D1A26A79
:1022C0004FF0FF3300F4403103EB5202B1EB024F09
:1022D00006D194F82C1000F07060B0EB016F01D0C3
:1022E0000120D1E70020CFE7043802400000474238
:1022F000800E4742007000400000FFFF10B5FEF75F
:1023000059FC10BD2DE9FE430446002603200D466E
:1023100084F83400606C03285ED0B5F5805F5BD034
:102320004FF4006700204FF08068BD421FD1814606
:10233000009001900021206801F0D4FD800113D4A9
:102340006946204602F0C2F907000DD1019840030A
:1023500034D5B4F850000104206801F0FBFD0700FB
:1023600002D10221206823E0A06B384328E01DB190
:10237000A06B40F0006023E08146009001900021B6
:10238000206801F0AFFD8001EED46946204602F0DE
:102390009DF90700E8D10198C0030FD5B4F85000AB
:1023A0000104206801F0D6FD0700DDD1002120687E
:1023B00001F01DFE0700D7D14F46D5E74746D3E7CA
:1023C000A063A06B144F4FF0010848B120688763E9
:1023D00084F8348001260EE0A06B40F08050EFE7D7
:1023E000211DD4E9050C0EC9CDE90050CDF808C077
:1023F000206801F081FD4FF40071206801F0DEFDDE
:1024000028B121688F63A16B0143A163012684F881
:1024100034803046BDE8FE83FF0540007047000071
:10242000F0B5426E920F0A70426EC2F383624A7038
:10243000426EC2F301628A70426E120CCA70B0F82A
:102440006420120A0A7190F864204A71826E120D9B
:10245000CA80826EC2F303420A72B0F86820C2F3E7
:10246000C0324A72B0F86820C2F380328A72B0F883
:102470006820C2F34032CA72B0F86820C2F300325A
:102480000A7300264E73426C4FF40075012462B14A
:10249000012A3AD0026847499163816B41F080512B
:1024A000816380F834400120F0BDB0F86820C36E2D
:1024B0009205120D42EA93720A61C26EC2F3C262C1
:1024C0000A75C26EC2F302624A75C26EC2F342520C
:1024D0008A75C26EC2F38242CA75C26EC2F3C2323C
:1024E0000A760A69521C42650B7E03F007039B1CA7
:1024F0009A4042650B7A03F00F0704FA07F38365ED
:102500005B0A5A43C0E917250EE090F86820C36EB5
:102510009206920A42EA13420A610A69521C920226
:102520004265C0E91652056630F86C2FC2F380325E
:1025300001F8192F0288C2F3C6124A70027802F01D
:102540007F028A704268D20FCA704268C2F3417239
:102550000A714268C2F382624A714268C2F38352CE
:102560008A714268C2F34052CA710E724268C2F365
:1025700000424A728288C2F3C0328A728288C2F3F1
:102580008032CA728288C2F340320A738288C2F3F0
:1025900000324A738288C2F381228A738288C2F32E
:1025A0000122CA730079C0F3460008744C740020FD
:1025B000F0BD0000FF054000426C0A60826C4A607A
:1025C000C26C8A60026DCA60426D0A61826D4A61A6
:1025D000C26D8A61006EC8610020704770B5044604
:1025E000B0F8500000250104206801F0E8FD18B1A2
:1025F000A16B0143A16304E00021206801F072FC9B
:102600000546C5F3432070BDF8B5056B0446006868
:10261000416B09041BD5290719D5D4E90A56002EA8
:1026200014D00027206801F07DFC05F8010B010A99
:1026300005F8011B010C05F8021B000E361F7F1C5C
:1026400005F8010C082FEDD3C4E90A56F8BD416B1B
:102650004FF00006C9054FF0010744D539028163E8
:102660002068C16B4CF23A329143C1632068C16A61
:1026700021F00101C16228071DD515F0220F09D0F4
:10268000206801F0CDFD28B1A16B0143A163204674
:10269000FFF7C4FE216840F23A50886384F8347032
:1026A0002663A80703D0204600F03EFAF8BD204676
:1026B00000F03EFAF8BD2806FCD5A80609D520682A
:1026C00001F0AEFD28B1A16B0143A1632046FFF7E5
:1026D000A5FEA807EED12068C16A21F00801C162F9
:1026E00084F83470E3E7416B490424D5290722D5E7
:1026F000D4E90856002EDDD05FF0000715F8010B75
:10270000009015F8011B361F40EA0120009015F8D3
:10271000021B40EA0140009015F8011C40EA0160EC
:1027200000906946206801F010FC7F1C082FE5D35B
:10273000C4E90856F8BD416B40F23A221142F9D083
:10274000416B890703D5A16B41F00201A163416B85
:10275000090703D5A16B41F00801A163416B89060C
:1027600003D5A16B41F02001A163416BC90603D5DC
:10277000A16B41F01001A163416B890503D5A16BE9
:1027800041F00801A16340F23A7181632068C16B96
:1027900040F23A329143C163206801F041FDA16BE0
:1027A0000843A063280706D584F8347026632046C2
:1027B000FFF734FEF8BD2806FCD515F0300F0CD01D
:1027C000E16B11480865E06BFEF715FF0028F1D0BA
:1027D000E06BBDE8F84001F057BFA8070CD0216CB2
:1027E0000A480865206CFEF706FF0028E2D0206C3E
:1027F000BDE8F84001F01FBFA66384F8347026637B
:102800002046FFF77BFDF8BD8946000837460008E3
:1028100070B504000ED094F83400002518B925775F
:10282000204600F04DF8032084F83400204600F0E4
:102830000BF808B1012070BDA5632563012084F861
:102840003400002070BD0000FEB50025044676204F
:102850000095CDE901502B462A462946206801F013
:102860004BFB154E46F8A05F206801F057FB012591
:1028700035600220FFF746F8204602F00FF828B135
:1028800084F83450A16B0143A16313E0204601F0AA
:102890008DFF0028F4D14FF40071206801F08EFB09
:1028A000002808D0226805499163A16B0143A16308
:1028B00084F834500120FEBD00802542FF05400011
:1028C0002DE9F04F87B0054614216846FDF722FD3B
:1028D0004649286888427DD145480068444940F40B
:1028E00000600860086800F40060059040481438F3
:1028F00000683F4940F0040014390860086800F09F
:1029000004000590086840F0080008600868022488
:1029100000F0080005904FF4F850CDE9000402AA39
:10292000002003264FF00C0882E841016946314837
:10293000FFF74EF802AA002082E841010427CDE902
:10294000007469462C48FFF743F82D4C2B484FF094
:102950000068C4E9000800204FF48069A060C4E961
:102960000309B8024FF4804BC4E9050BC4E90976AA
:102970004FF0200A0020C4E907A07E05B7102046CA
:10298000C4E90B67FEF71CFF08B1FEF7F6F92C64EB
:10299000A5631B4C194860344830C4E90008402046
:1029A000A0600020C4E90309C4E907A00420606214
:1029B00004F12802032082E8C1004FF48051C4E9E9
:1029C000051B2046FEF7FCFE08B1FEF7D6F9EC63C6
:1029D000002200E007E005213120A563FFF79CF904
:1029E0003120FFF78BF907B0BDE8F08F002C0140D4
:1029F0004438024000080240000C02405864024083
:102A00006C1C00202DE9F04786B01F460446154691
:102A100039B194F83400012807D0022006B0BDE88F
:102A2000F087A06B40F0006008E00020A063E36D39
:102A3000EA199A4204D9A06B40F00070A06369E0E3
:102A4000032284F8342022688146D0622268D36B46
:102A500040F22A363343D363236C2F4ADA63236C64
:102A60002E4ADA64226C1065226C9060206C00683B
:102A7000026822F0C002026020680A46266C4FEA13
:102A8000472800F180014FEA98033046FEF702FF25
:102A9000DFF88CA0012670B12068C16B21F495711C
:102AA000C1632168C1F838A0A06B40F08040A063EA
:102AB00084F834602EE01B480660606C012800D06A
:102AC0006D024FF0FF30CDE9000890200290022007
:102AD0000596CDE903096946206801F0EDF9012F5B
:102AE00006D9822020632946206801F0D9FA05E042
:102AF000812020632946206801F0EBFA00288DD060
:102B00002268C2F838A0A16B0143A16384F8346045
:102B1000C4F83090012081E7F54500089145000890
:102B2000FF0540008C85254210B5FEF785F810BDE5
:102B300010B5FEF79DF810BD2DE9F04F5FEA010BCF
:102B400087B01E460446114607D094F83400012889
:102B500007D0022007B0BDE8F08FA06B40F0006006
:102B600008E00025A563E26D8819904204D9A06BA6
:102B700040F00070A06356E0032084F83400206821
:102B8000C5622068C26B40F21A2942EA0902C26398
:102B9000E26B2D48D063E26B2C48D064E06B056596
:102BA000606C012800D049024FF09008012E05D931
:102BB000A0202063206801F04DFB04E0C4F83080C1
:102BC000206801F060FBDFF888A0012730B122689F
:102BD000C2F838A0A16B0143A16321E01D48076042
:102BE000E16B40208860E06B0068016821F0C00163
:102BF00041F04001016022687602B30859468032F4
:102C0000E06BFEF747FE80B12068C16B21EA090145
:102C1000C1632168C1F838A0A06B40F08040A06378
:102C200084F834702563012094E74FF0FF30CDE93C
:102C30000006CDE90285CDE904576946206801F018
:102C40003BF9002086E700007B460008914500081C
:102C5000FF0540008C85254270B515460E460400E0
:102C600003D094F8490010B107E0012070BD0020A6
:102C700084F84800204600F01DF804F1080120689F
:102C8000FEF7BEF83146A2682068FEF7EDF8D4E9F9
:102C900001022946236BFEF795F82168A06851F8D8
:102CA000202042F0010241F82020012084F8490050
:102CB000002070BDFEF738BE7047704770B590F8C1
:102CC0003C20012A32D0012480F83C40022280F8C6
:102CD0003D2003685A689D6822F070060A683243F6
:102CE0005A60134B02689A4214D0B2F1804F11D04F
:102CF000104B9A420ED0104B9A420BD00F4B9A4277
:102D000008D00F4B9A4205D00E4B9A4202D00E4B80
:102D10009A4204D1496825F080031943916080F8F4
:102D20003D40002180F83C10084670BD022070BD77
:102D3000000001400004004000080040000C00407A
:102D400000040140004001400018004010B504009C
:102D500003D094F83D0010B107E0012010BD002021
:102D600084F83C00204600F01FF8022084F83D0063
:102D7000211D206802F0CEF8012084F8460084F876
:102D80003E0084F83F0084F8400084F8410084F855
:102D9000420084F8430084F8440084F8450084F835
:102DA0003D00002010BD000008B5006806498842BB
:102DB00008D10648016841F002010160006800F096
:102DC0000200009008BD00000004004040380240AE
:102DD00090F83D10012901D001207047022180F8B0
:102DE0003D1000681149884214D0B0F1804F11D0D5
:102DF0000F4988420ED00F4988420BD00E498842B5
:102E000008D00E49884205D00D49884202D00D49AC
:102E1000884204D1816801F00701062903D00168C6
:102E200041F00101016000207047000000000140F6
:102E30000004004000080040000C00400004014075
:102E4000004001400018004090F83D10012901D0D9
:102E500001207047022180F83D100168CA6842F0E5
:102E60000102CA6000681149884214D0B0F1804F55
:102E700011D00F4988420ED00E4988420BD00E491E
:102E8000884208D00D49884205D00D49884202D0B9
:102E90000C49884204D1816801F00701062903D05A
:102EA000016841F00101016000207047000001400D
:102EB0000004004000080040000C004000040140F5
:102EC000004001400018004070B5044690F83C00F6
:102ED0000025012817D0012684F83C60022084F8E0
:102EE0003D002068826822F0770222F47F428260EF
:102EF0000868502838D00DDC20284FD005DC90B36E
:102F0000102811D14AE0022070BD302846D0402858
:102F10000AD13BE060282FD070280DD0B0F5805F3B
:102F200003D0B0F5005F12D0012584F83D60002089
:102F300084F83C00284670BDCB68D1E901212068A7
:102F400002F050F82068816841F0770109E0CB6811
:102F5000D1E90121206802F045F82068816841F438
:102F600080418160E1E719E0CA684968206802F0A1
:102F70004BF85021206806E0CA684968206802F0D2
:102F800054F86021206802F037F8CEE7CA68496833
:102F9000206802F039F840212068F4E722680146F1
:102FA0001046F0E770472DE9F04104460068C66816
:102FB00005694FF00007A90713D5B10711D5F91E10
:102FC000016101202077206880698007204602D0B7
:102FD000FFF7E8FF04E000F07EF8204600F07CF800
:102FE0002777680716D5700714D521686FF004009D
:102FF0000861022020772068806910F4407F204615
:1030000002D0FFF7CFFF04E000F065F8204600F0A3
:1030100063F82777280715D5300713D521686FF097
:1030200008000861042020772068C06980072046D6
:1030300002D0FFF7B7FF04E000F04DF8204600F0A3
:103040004BF82777E80616D5F00614D521686FF0FF
:1030500010000861082020772068C06910F4407FC4
:10306000204602D0FFF79EFF04E000F034F820462F
:1030700000F032F82777E80708D0F00706D021687B
:103080006FF001000861204600F028F8280608D5F6
:10309000300606D521686FF0800008612046FFF7F2
:1030A0000BFE680608D5700606D521686FF0400053
:1030B0000861204600F01CF8A8060AD5B00608D51D
:1030C00021686FF0200008612046BDE8F041FFF75D
:1030D000F4BDBDE8F0817047704700000068034907
:1030E000884201D1FEF780BD70470000001000400B
:1030F000704738B5044690F84200202801D00220DD
:1031000038BD51B14AB101202063002060632046E0
:1031100002F05EF9216B012901D0012038BD216840
:103120000A684968009121680C3151E8002F42F08B
:10313000100241E80023002BF5D138BD10B5A2B034
:103140000C460021219100681649884227D1802C25
:1031500000D98024224614496846FDF7C2F8134876
:10316000ADF88040002321AA694600680AF0F2FE0B
:1031700080220D490E48FFF7BCFF0D48C06B006868
:10318000016821F0080101602198002807D0094951
:103190004FF080500860BFF34F8FBFF36F8F22B0A6
:1031A00010BD000000480040701A002050000020B0
:1031B000BC1D002004ED00E070470000F8B5016878
:1031C00004460868CA684B6910F00F0F4FF00005FD
:1031D00059D003F0010602F49077374365D0C10758
:1031E00005D0D10503D5616C41F00101616441074F
:1031F00005D5D90703D0616C41F0020161648107F4
:1032000005D5D90703D0616C41F004016164010761
:1032100007D502F02001314303D0616C41F0080171
:103220006164616C00293AD0800604D5900602D50D
:10323000204601F0E5FF20684069616CC0F3801012
:10324000090700D460B3204601F0A5FF206840695B
:10325000400621D52068143050E8001F21F04001BD
:1032600040E80012002AF5D1E06BA8B1724901656F
:10327000E06BFEF7C0F9002811D0E06B016D01B0E2
:10328000BDE8F040084783060FD593060DD52046CC
:10329000BDE8F84001F0B4BF2046FFF78DFFF8BD50
:1032A0002046FFF789FF6564F8BD266B2023012EB9
:1032B0007ED1C6067CD5D6067AD5086848680090C7
:1032C00048694FF0020640064DD5E26B1068406831
:1032D0004FF480770004000C3AD0A18D814237D999
:1032E000E085D069B8422DD020680C3050E8001F2E
:1032F00021F4807140E80012002AF5D120681430D2
:1033000050E8001F21F0010140E80012002AF5D129
:103310002068143050E8001F21F0400140E80012FE
:10332000002AF5D184F84230256320680C3050E83B
:10333000001F21F0100140E80012002AF5D1E06BD7
:10334000FEF710F96663A08DE18D401A81B206E0A8
:10335000A18D8142A8D1D069B842A5D1666320462B
:10336000FFF7ECFEF8BDA08DE18D401A81B2E08D33
:103370000028F7D00029F5D020680C3050E8002F45
:1033800022F4907240E80027002FF5D12068143015
:1033900050E8002F22F0010240E80027002FF5D16D
:1033A00084F84230256320680C3050E8002F00E09C
:1033B00006E022F0100240E80023002BF3D1CDE715
:1033C00005062BD5150629D594F841002128C9D129
:1033D000A068B0F5805F01D12069B0B1206A411CBE
:1033E0002162216800784860E08C401E0004000CD7
:1033F000E084B7D12068C16821F08001C1602068F5
:10340000C16841F04001C160F8BD206A0088C0F386
:1034100008004860206A801C2062E5E74006F3D57A
:103420005006F1D5CA68204622F04002CA6084F8EE
:10343000413000F05DF9F8BD4F50000870B5040050
:1034400004D094F84100002510B106E0012070BDC1
:1034500084F84050204600F023F8242084F84100EE
:103460002068C16821F40051C160204601F02AFFA4
:103470002068016921F4904101612068416921F0CF
:103480002A0141612068C16841F40051C16065644E
:10349000202084F8410084F842006563002070BD5C
:1034A0002DE9F04387B0064614216846FCF732FF49
:1034B0003E4F31683E480222032307250024B942CB
:1034C0001DD13B4914310E6846F010060E600968A4
:1034D00001F010010591016841F0010101600068EF
:1034E000694600F00100059058028DE81500CDE90D
:1034F00003353048FEF76CFA07B0BDE8F0832E4F75
:10350000B942F9D12A4910310F6847F480270F607A
:10351000096801F480210591016841F00201016010
:103520000068694600F0020005904FF440608DE8A5
:103530001500CDE903352148FEF74AFA214D204810
:103540004FF00069E5E802094020070191C54FF4FA
:10355000803845F814491B48AC61C5E907486C62DE
:10356000FEF72EF908B1FDF708FCB563AE63154D03
:103570001348603530382860C5E90194C5E9034730
:103580006C61AC61C5E9074828466C62FEF718F922
:1035900008B1FDF7F2FBF563002205212720AE6399
:1035A000FEF7BAFB2720FEF7A9FBA5E700100140B4
:1035B0003038024000000240004800400004024051
:1035C00058600240041E0020704770472DE9F84300
:1035D000044690F84100984616460D46202802D031
:1035E0000220BDE8F88385B17EB10020606421200F
:1035F00084F84100FEF7F2FAA6848146E684A068CA
:103600002027B0F5805F02D003E00120E9E72069C0
:1036100010B12E4600250EE000260CE08021204649
:1036200001F026FFA8B9C6B116F8010B2168486061
:10363000E08C401EE084E08C4B464FF00002CDF859
:1036400000800028EAD14FF04001204601F010FF31
:1036500040B184F841700320C3E735F8020BC0F392
:103660000800E3E784F841700020BAE770B504462B
:1036700090F84100202801D0022070BD01B3FAB1BA
:103680002162A284E28400206064212384F8413016
:10369000A56B144BEB63A56B134B2B64A56B134B02
:1036A000EB64A36B186520681346A56B021D2846C2
:1036B000FEF7F0F830B110206064202084F841005B
:1036C000012070BD21686FF0400008602068143050
:1036D00050E8001F41F0800140E80012002AF5D1B7
:1036E000002070BD4B5100088D5100085D5000084E
:1036F00008B5002100910068094988420FD10948A6
:10370000694600680AF085FC0098002807D0064941
:103710004FF080500860BFF34F8FBFF36F8F08BD2D
:10372000004800404C00002004ED00E07047FEE738
:1037300070B50D4C0025C4F8A0520C48016821F466
:1037400040210160016841F480210160C4F8A45265
:10375000022004F5287403F027F9012020600220DC
:1037600003F022F9256070BD008040420004024051
:103770000E4810B5016886B041F002010160006892
:10378000012400F0020005904FF44070CDE90004E0
:103790000220CDE9024069460548FEF719F90548BF
:1037A000C0F8A442C0F8A04206B010BD30380240B4
:1037B000000402400080404270B50D4C0025C4F862
:1037C000A0520C48016821F440210160016841F4D5
:1037D000802101600126C4F8A462022004F5287447
:1037E00003F0E2F82660022003F0DEF8256070BDE9
:1037F00000804042000402402DE9F047814616480F
:103800000024016821F44021016001680160134E29
:10381000254627464FF00108C6F8A072022003F0A3
:10382000C3F8C6F8A0826006040ED6F8240208B1D8
:10383000641CE4B2012003F0B7F86D1CEDB2082D52
:10384000EAD3B9F1000F04D0FFF772FF2046BDE8BC
:10385000F087FFF7B1FFF9E7000402400080404223
:103860002DE9F04106461448016821F44021016029
:10387000016841F480210160104C0027C4F8A07257
:103880003D464FF00108F009C4F8A4027006060E88
:10389000022003F089F8C4F8A082022003F084F823
:1038A000C4F8A072022003F07FF86D1CEDB2082D61
:1038B000E9D3BDE8F08100000004024000804042EE
:1038C00070B50D48016821F440210160016841F4A0
:1038D00080210160094C0120C4F8A402C4F8A002B0
:1038E000042004F5287403F05FF8002565600420C7
:1038F00003F05AF8256070BD000402400080404289
:103900000E4810B5016821F440210160016841F4BE
:10391000802101600A4C0020C4F8A002C4F8A4026F
:10392000042004F5287403F03FF801202060606053
:10393000BDE81040042003F037B800000004024046
:103940000080404270B512480024016821F44021F3
:103950000160016801600F4D0126C5F8A462304680
:1039600003F022F8C5F8A062012003F01DF807E07B
:10397000641CE4B2FA2C03D9FFF7C2FF012070BD2A
:10398000D5F824020028F3D1C5F8A00270BD0000CC
:1039900000040240008040424FF400710148FEF7ED
:1039A0000FB90000001402407FB5002126480091A5
:1039B00001910291234A0391026001244FF4803265
:1039C0000461C0E90121017680F820101203C2626F
:1039D00004255210C5618262C16080F830404161A7
:1039E000FDF78CFC08B1FDF7C8F90520CDE900040E
:1039F000694615480294FDF7BBFB08B1FDF7BDF918
:103A0000062000900220019069460F48FDF7B0FBA8
:103A100008B1FDF7B2F90720009003200190694634
:103A20000948FDF7A5FB08B1FDF7A7F90820CDE986
:103A3000000569460448FDF79BFB002801D0FDF70F
:103A40009CF97FBD00200140F01A00201D4808B5F8
:103A5000016841F480010160016801F48001009176
:103A6000016841F4001101600068002200F40010B8
:103A7000009005210C20FEF74FF90C20FEF73EF9CF
:103A8000002205210E20FEF747F90E20FEF736F939
:103A9000002205213820FEF73FF93820FEF72EF9E5
:103AA000002205213B20FEF737F93B20FEF726F9DF
:103AB000002205214520FEF72FF9BDE808404520EA
:103AC000FEF71CB93038024010B504490448FDF730
:103AD00056F90249491E087010BD00002901002056
:103AE000D019010810B5114A0021114808F070FCE6
:103AF000104C0E4A0021206024320F4808F068FC68
:103B00000A4A6060483200210C4808F061FC074A0C
:103B1000A0606C3200210A4808F05AFCE06001F015
:103B20000FF8BDE8104000F0C9BF0000A0E9000890
:103B300089620008700000207D6200088162000830
:103B40008562000810B58EB01C216846FCF7E2FBC8
:103B50001C2107A8FCF7DEFB1A484FF02041102279
:103B6000016019494160062181600021C160C0E9FE
:103B700004128161C16113020162C0E90913930259
:103B8000C0E90B134163816341640F203C23009023
:103B9000CDE9010303AC112384E80E00092406914A
:103BA000CDE907400AA8099480E80E000D9107AA04
:103BB00069460448FFF750F8002801D0FDF7DDF80A
:103BC0000EB010BD981B0020040100A02DE9F041AB
:103BD00086B014216846FCF79DFB33480024016839
:103BE00041F020010160016801F0200105910168A8
:103BF00041F080010160016801F0800105910168D8
:103C000041F001010160016801F0010105910168C5
:103C100041F002010160016801F0020105910168B3
:103C200041F010010160016801F010010591016887
:103C300041F008010160016801F008010591016887
:103C400041F004010160016801F00401059101687F
:103C500041F0400101600068144F00F040004FF453
:103C6000C0650590012229463846FDF7B1FFDFF80F
:103C700040804FF40046002231464046FDF7A8FF41
:103C800000950125CDE90154694638460394FDF7B6
:103C90009FFE0096CDE90154694640460394FDF726
:103CA00097FE06B0BDE8F0813038024000140240B3
:103CB000000402400648054901600021416081601E
:103CC000C16001614161816170470000002C0140C9
:103CD000E81B002010B586B0002418480094019419
:103CE00002940394049414490594016042F2CF01B4
:103CF000C0E9011440F2E731C0E903148461FFF721
:103D000025F808B1FDF739F84FF480500090694666
:103D10000A48FFF7D9F808B1FDF72FF82020CDE9C0
:103D2000040404A90548FEF7C9FF002801D0FDF7E7
:103D300024F806B010BD0000000400402C1D002037
:103D40000C4810B50A4901604FF4E131416000218F
:103D500081600C22C160C0E904128161C161FFF77A
:103D60006DFB002803D0BDE81040FDF706B810BD7C
:103D700000100140741D00200C4810B50A49016074
:103D80004FF4E1314160002181600C22C160C0E943
:103D900004128161C161FFF751FB002803D0BDE827
:103DA0001040FCF7EABF10BD00480040BC1D0020D9
:103DB000FEE7FEE700B589B020216846FCF7AAFAC5
:103DC0001648FEF70BFC042807D169461348FEF796
:103DD000F3FB20B112A001F08DFB09B000BD17A0CC
:103DE00001F088FB1DA0009901F084FB1FA0019940
:103DF00001F080FB22A0049901F07CFB24A005992E
:103E000001F078FBDDE90410A0FB0110090D41EA87
:103E1000003124A001F06EFBDFE70000E81B00206A
:103E200048414C5F53445F47657443617264496E17
:103E3000666F206661696C65640D0A000D0A2A2AA6
:103E40002A20476574205344206361726420696EA0
:103E5000666F202A2A2A0D0A00000000436172645E
:103E6000547970653A20256C750D0A0043617264BF
:103E700056657273696F6E3A20256C750D0A0000E5
:103E8000426C6F636B4E62723A20256C750D0A00AE
:103E9000426C6F636B53697A653A20256C750D0A25
:103EA0000000000043617061636974793A20256CF9
:103EB00075204D420D0A00000A6842624A6882621B
:103EC000D1E902231A43D1E904310B43C16A1A43F1
:103ED00021F0F7011143C16200207047006800F033
:103EE0000300704708444069704700000148FEF72E
:103EF0008BBB0000E81B002070B50DF1100C1143C6
:103F00009CE870002343194329434268314347F634
:103F1000FF639A430A434260002070BD03210160A1
:103F200000207047D0F8800070470A688260D1E9AD
:103F300001231A43D1E903310B43C1681A436FF3DC
:103F40000B011143C160002070470968C0F8801060
:103F50000020704710B585B004463720CDE9001029
:103F600040200290002003904FF480600490694646
:103F70002046FFF7DAFF41F288323721204600F071
:103F80009BF905B010BD000010B504460A4885B085
:103F900001432920CDE90010402002900020039029
:103FA0004FF48060049069462046FFF7BEFF20462C
:103FB00000F03AFA05B010BD0000108010B585B0D1
:103FC00004461020CDE9001040200290002003900C
:103FD0004FF48060049069462046FFF7A6FF41F247
:103FE00088321021204600F067F905B010BD10B5E9
:103FF00085B004460620CDE9001040200290002044
:1040000003904FF48060049069462046FFF78DFFCF
:1040100041F288320621204600F04EF905B010BD6D
:1040200030B585B000240546009401944FF48060BB
:104030000294CDE9034069462846FFF776FF0B4816
:104040004FF4FA510068B0FBF1F041F28831484377
:10405000401E03D24FF0004005B030BD696B090629
:10406000F6D5C520A8632046F6E70000940000209E
:1040700010B585B004464FF4D5700090082001902B
:1040800040200290002003904FF480600490694625
:104090002046FFF74AFF204600F02CFA05B010BD7D
:1040A00010B585B004461220CDE9001040200290E2
:1040B000002003904FF48060049069462046FFF78B
:1040C00034FF41F288321221204600F0F5F805B0A5
:1040D00010BD10B585B004461120CDE90010402078
:1040E0000290002003904FF48060049069462046BF
:1040F000FFF71BFF41F288321121204600F0DCF867
:1041000005B010BD10B585B004460720CDE90020EC
:1041100040200290002003904FF480600490694694
:104120002046FFF702FF41F288320721204600F0C7
:10413000C3F805B010BD10B585B0044600210220BB
:10414000CDE90010C020CDE902014FF48060049059
:1041500069462046FFF7E9FE204600F03DF905B02C
:1041600010BD10B585B004460920CDE90010C0206F
:104170000290002003904FF480600490694620462E
:10418000FFF7D3FE204600F027F905B010BD10B5AB
:1041900085B0044600213320CDE900104020CDE950
:1041A00002010001049069462046FFF7BEFE41F27D
:1041B00088323321204600F07FF805B010BD10B5DD
:1041C00085B004460D20CDE900104020029000206B
:1041D00003904FF48060049069462046FFF7A5FEE7
:1041E00041F288320D21204600F066F805B010BD7E
:1041F00030B585B00C46054600210320CDE90010FE
:104200004020CDE902010001049069462846FFF7ED
:104210008CFE22460321284600F028F905B030BD67
:1042200010B585B0044600210C20CDE900104020D7
:10423000CDE902010001049069462046FFF775FEB2
:10424000034A0C21204600F037F805B010BD0000ED
:1042500000E1F50510B585B004461920CDE9001040
:1042600040200290002003904FF480600490694643
:104270002046FFF75AFE41F288321921204600F00D
:104280001BF805B010BD10B585B004461820CDE967
:10429000001040200290002003904FF480600490B2
:1042A00069462046FFF741FE41F288321821204638
:1042B00000F002F805B010BD454B10B51B684FF477
:1042C000FA54B3FBF4F353435B1E02D24FF00040A9
:1042D00010BD426B12F0450FF6D01205F4D4426BBC
:1042E000520703D504218163084610BD426BD207F3
:1042F00002D00121816305E0C52282630269D2B246
:104300008A4201D0012010BD0021FFF7EBFD3149A9
:10431000084201D1002010BD002802DA4FF00070E1
:1043200010BD410001D5402010BD810001D5802085
:1043300010BDC10002D54FF4807010BD010102D53F
:104340004FF4007010BD410102D54FF4806010BDE4
:10435000C10102D54FF4006010BD010202D54FF437
:10436000805010BD410202D54FF4005010BD8102B3
:1043700002D54FF4804010BDC10202D54FF4004079
:1043800010BD410302D54FF4003010BD810302D5AA
:104390004FF4802010BDC10302D54FF4002010BDA2
:1043A000010402D54FF4801010BD410402D54FF432
:1043B000001010BD810402D54FF4800010BD00072D
:1043C00002D54FF4000010BD4FF4803010BD000046
:1043D0009400002008E0FFFD12494FF4FA520968EA
:1043E000B1FBF2F141F288325143491E02D24FF043
:1043F00000407047426B12F0450FF6D01205F4D41E
:10440000416B490703D50421816308467047416B1E
:10441000C90703D00121816308467047C521816324
:1044200000207047940000200F494FF4FA520968A9
:10443000B1FBF2F141F288325143491E02D24FF0F2
:1044400000407047426B12F0450FF6D01205F4D4CD
:10445000416B490703D50421816308467047C52194
:1044600081630020704700009400002030B5204B8D
:104470004FF4FA541B68B3FBF4F341F288346343FE
:104480005B1E02D24FF0004030BD446B14F0450F6C
:10449000F6D02405F4D4436B5B0703D50421816374
:1044A000084630BD436BDB0702D00121816303E086
:1044B0000369DBB28B4201D0012030BDC52181638D
:1044C0000021FFF70FFD10F4604F04D0410406D522
:1044D0004FF4005030BD000C1080002030BD0004AF
:1044E00002D54FF4805030BD4FF4803030BD000015
:1044F0009400002014494FF4FA520968B1FBF2F11C
:1045000041F288325143491E02D24FF000407047B9
:10451000426B12F0450FF6D01205F4D4416B4907F7
:1045200003D50421816308467047416BC90703D056
:104530000121816308467047416B490601D540213E
:1045400081630020704700009400002010B5064CE5
:1045500001202070FCF736FB18B9207820F001000C
:104560002070207810BD00002001002070B50546A5
:1045700007F066FE044603E0FCF724FB002806D0A3
:1045800007F05EFE001BA842F6D34FF0FF3070BD6F
:1045900010B5846BFDF741F8022828D0206C416DDE
:1045A000E06B406D012901D001281DD12168104820
:1045B00088632068C16B21F49D71C163A06B40F0DA
:1045C0008040A0632046FEF709F8062801D00528A0
:1045D00005D12068FFF724FEA16B0843A0630120EA
:1045E00084F83400002020632046FDF717FF10BD3B
:1045F000FF05400010B5846B206B822809D120682C
:10460000FFF70EFE28B1A16B0143A1632046FDF721
:1046100005FF2068C16A21F00801C162216840F2EB
:104620003A508863012084F834000020206320463B
:10463000FEF77AFA10BD10B5846B40F23A5021684B
:1046400088632046FDF7CAFF012184F83410002159
:104650002163062801D0052805D12068FFF7E0FD79
:10466000A16B0843A063A06B0028204602D0FDF791
:10467000D5FE10BDFDF742FE10BD806B0068C16B1A
:1046800041F48071C163704710B5846B40F23A50B9
:10469000216888632046FDF7A1FF012184F83410CA
:1046A00000212163062801D0052805D12068FFF7E5
:1046B000B7FDA16B0843A063A06B0028204602D081
:1046C000FDF7ACFE10BDFDF719FE10BD2DE9F0475A
:1046D00088B00D460446FDF781FA00268246009612
:1046E0000196374608212068FFF768FC00282CD186
:1046F000B4F8500001042068FFF72CFC002824D1F6
:10470000401E4FF00808CDE9020830204FF00209A2
:10471000CDE904090120CDE9067002A92068FFF760
:10472000CBFB2068FFF733FD00280ED16F462068D1
:10473000416B11F02A0F0BD0416B090702D4416B7A
:1047400089051AD5C0F83880082008B0BDE8F08780
:10475000416B890205D5FFF7E5FB47F82600761C7B
:1047600002E0416B8904E7D5FDF738FAA0EB0A00B7
:10477000401CDCD14FF00040E7E7416B890703D5CF
:10478000C0F838900220E0E7416B890603D520216C
:1047900081630846D9E740F23A518163019800BA33
:1047A0002860009800BA68600020CEE710B590B08D
:1047B00004460120ADF838002068FFF78FFB002881
:1047C00054D0606C032842D02068FFF7B4FC002866
:1047D0004AD100212068FFF785FB6067042120682B
:1047E000FFF780FBA06708212068FFF77BFBE067ED
:1047F0000C212068FFF776FBC4F88000606C03286A
:1048000025D00EA92068FFF7F3FC00282CD1606C9E
:1048100003281CD0BDF83800206501042068FFF78C
:10482000A0FC002820D100212068FFF75BFB606618
:1048300004212068FFF756FBA06608212068FFF7D7
:1048400051FBE0660C212068FFF74CFB2067042138
:104850002068FFF747FB000DE06403A92046FDF741
:10486000DFFD30B14FF0805010B010BD4FF08060D0
:10487000FAE7B4F85000002302042068FFF742FC76
:104880000028F1D104F1100007C88DE8070094E872
:104890000F00FFF731FB0020E6E700002DE9F84F9D
:1048A0000026044600963546B0460068FFF7B8FB80
:1048B000002827D12068FFF7DBFB4FF0805B4FF02B
:1048C00001094FF6FF7748B1A6642068FFF7A8FBFF
:1048D000002817D1A06C012802D020E0C4F848902D
:1048E00000212068FFF736FB58B918E00021206846
:1048F000FFF730FB002805D151462068FFF744FB45
:1049000010B15846BDE8F88F00212068FFF7EAFA99
:1049100005464FEAD0780098401C009002E0DFF88E
:104920002CA00098B84202D2B8F1000FDED0009857
:10493000B84202D34FF08070E4E7680002D5C4F8B3
:10494000449000E066640020DCE70000000010C135
:1049500070B5104C05460120207007F061FC02285C
:1049600016D1FCF73BF918B92846FFF7EFFD207088
:10497000207801280CD0606850B9002202210A205A
:1049800007F0C6FC606018B9207840F00100207084
:10499000207870BD2001002010B5124888B0144660
:1049A0000078C00702D0032008B010BDC1B10129B2
:1049B00005D0022908D003290CD00420F4E768466A
:1049C000FCF7FAF806980AE06846FCF7F5F807984D
:1049D000208005E06846FCF7EFF80798400A206061
:1049E0000020E1E7200100202DE9F84347F2305490
:1049F0001E461746884601252046FFF7B7FD0028CA
:104A00001EDB324639464046FCF708F9C0B90F486C
:104A1000234600226946406807F048FC80B9BDF88B
:104A2000000001280CD107F00BFC064603E000BF94
:104A3000FCF7C8F838B107F003FC801BA042F7D39D
:104A40002846BDE8F8830025FAE700002001002091
:104A5000FFF77CBD2DE9F84347F230541E46174658
:104A6000884601252046FFF781FD00281EDB3246DF
:104A700039464046FCF7EEF8C0B90F4823460022FD
:104A80006946406807F012FC80B9BDF800000228B2
:104A90000CD107F0D5FB064603E000BFFCF792F807
:104AA00038B107F0CDFB801BA042F7D32846BDE804
:104AB000F8830025FAE70000200100201CB5002241
:104AC0008221082009F0FEF80C49802208600C4978
:104AD0000C48FEF70EFB0B48C06B0068016821F024
:104AE0000801016000210320CDE900010B464FF4CD
:104AF000007205A1074809F0BBFC1CBD5000002056
:104B0000701A0020BC1D002053637265656E5278D8
:104B100000000000194B0008084DA2B04FF0FF3410
:104B200022466946286809F0C3FA0128F8D1BDF881
:104B30008010684600F052F8F2E7000050000020B4
:104B40001CB500228221102009F0BCF80C4C032275
:104B500000212060012009F0B5F800231A4619460B
:104B6000606009F047F900212120CDE900010B46E2
:104B70004FF4007203A1064809F07AFC1CBD000046
:104B80004800002053637265656E54780000000091
:104B9000954B00080F4CA2B04FF0FF352A466946EE
:104BA000206809F085FA0128F8D12946606809F0E3
:104BB00069FB0128F2D1BDF8802069460648FEF75E
:104BC00055FD0028EAD000231A461946606809F00E
:104BD00011F9E3E748000020BC1D0020F0B50E46A7
:104BE0002DED028B89B00446202900D31F260146F3
:104BF00032466846FBF775FB002768460DF80670DD
:104C000053A1FBF799FB564DD8B156A16846FBF767
:104C100093FBD8B157A16846FBF78EFBC0B158A1F2
:104C20006846FBF789FBA8B1584D9FED598A594F4B
:104C3000122E44D3062258A12046FBF78BFB60B10D
:104C40003DE02F7009B0BDEC028BF0BD012002E009
:104C5000022000E003202870F4E7D4F80600686022
:104C6000D4F80A00A860D4F80E00E8604748001D98
:104C7000FCF70DF800EE100A4448B8EEC00A083000
:104C8000C0EE080AC7ED000AFCF701F800EE100AB2
:104C90003E48B8EEC00A0C30C0EE080AC7ED010A63
:104CA000FBF7F5FF00EE100A28223A49B8EEC00AD9
:104CB0000020C0EE080AC7ED020AFBF74CFF162ED3
:104CC000C0D3062236A12046FBF744FB0028B9D109
:104CD00054F8060F286160686861A068A861E06800
:104CE000E8612A481030FBF7D2FF00EE100A27488F
:104CF000B8EEC00A1430C0EE080AC7ED070AFBF789
:104D0000C6FF00EE100A2148B8EEC00A1830C0EE07
:104D1000080AC7ED080AFBF7BAFF00EE100A1B48A5
:104D2000B8EEC00A1C30C0EE080AC7ED090AFBF74E
:104D3000AEFF00EE100A28221649B8EEC00A002085
:104D4000C0EE080AC7ED060AFBF705FF7AE7000088
:104D500052533438355F504152415F50414745000E
:104D60000C0000204144435F504152415F50414795
:104D70004500000050485F43414C5F5041474500AB
:104D800045435F43414C5F50414745005000002080
:104D90000000C842B801002070685F63616C0000C9
:104DA00065635F63616C000030B5A1B00546FBF739
:104DB000BCFA84B2E01C802819D8224629466846ED
:104DC000FBF78FFAFF220DF80420641CA0B269469D
:104DD0000DF80020401C80B200230DF80020401C7C
:104DE000ADF8800003481422006809F003F821B0F0
:104DF00030BD00004800002070B50646A4B015463E
:104E00000C4610EE100AFBF74AFBCDE902010748F9
:104E1000CDE9004506A250F82630802104A800F014
:104E200079FB04A8FFF7C0FF24B070BD1400002078
:104E300025732E25732E7478743D22252E2A662222
:104E40000000000010B54FF0E020006909F06EFB93
:104E5000012803D0BDE8104008F01EBF10BD0000BF
:104E600030B593B030216846FBF754FA14210CA8F2
:104E7000FBF750FA1E480025016841F0805101609F
:104E8000006800F0805011901A48016841F4804198
:104E900001600068022400F480401190012000901D
:104EA000000401908001CDE90640082008904FF4ED
:104EB000A870CDE9090407200B906846FDF768F853
:104EC00008B172B6FEE70CA90F2081E831004FF45B
:104ED000A0500F904FF48050109005210CA8FCF7C3
:104EE0004DFF002801D072B6FEE713B030BD0000C0
:104EF00040380240007000400248016841F47001EF
:104F00000160704788ED00E00148FEF74CB80000F2
:104F1000C41E0020F0B50268274B284D284E294FAB
:104F2000294C4FF0804C984209D0604507D0A842E8
:104F300005D0B04203D0B84201D0A04204D122F043
:104F4000700E4A6842EA0E0298421BD0604519D0A2
:104F5000A84217D0B04215D0B84213D0A04211D009
:104F60001A4DA8420ED01A4DA8420BD0194DA84296
:104F700008D0194DA84205D0184DA84202D0184DAE
:104F8000A84203D122F44075CA682A434D6922F031
:104F900080022A438D68C5620D688562984201D0FF
:104FA000A04201D109690163016841F00401016077
:104FB000012141610260F0BD000001400004004099
:104FC00000080040000C0040000401400040014087
:104FD000004401400048014000180040001C00400F
:104FE0000020004010B5846842EA032224F47F4484
:104FF0000A432243826010BD826822F070020A4395
:1050000042F007018160704710B5036A046A24F01A
:1050100001040462846924F0F00444EA021423F0D9
:105020000A020A438461026210BD10B5036A046A71
:1050300024F010040462846923F0A00324F4704473
:1050400044EA023243EA01118261016210BD10B5E7
:10505000806B0021C185FEF7AFF810BD70B5846B81
:105060002068406994F84110C0F3C0100025212940
:1050700004D118B1E584204600F0B4F820684069F6
:1050800094F84210C0F38010222904D118B1E585AC
:10509000204600F080F8606C40F01000606420460C
:1050A000FEF78AF870BD10B50146806B0968096883
:1050B0004FF00002C9052ED4C28501680C3151E8B9
:1050C000003F23F4807341E80034002CF5D10168DF
:1050D000143151E8003F23F0010341E80034002C73
:1050E000F5D10168143151E8003F23F0400341E855
:1050F0000034002CF5D1202180F84210016B0129E9
:1051000009D101680C3151E8003F23F0100341E858
:105110000034002CF5D14263016B012902D0FEF767
:1051200053FA10BD818DFEF709F810BD10B5806BE4
:1051300001214163016B012902D0FEF746FA10BD3F
:10514000818D4908FDF7FAFF10BD10B50146806B4F
:1051500009680968C90516D40021C18401681431A1
:1051600051E8002F22F0800241E80023002BF5D106
:1051700001680C3151E8002F42F0400241E8002361
:10518000002BF5D110BDFEF7B3FA10BD10B5806B42
:10519000FEF7CCFA10BD01680C3151E8002F22F463
:1051A000907241E80023002BF5D10168143151E8D9
:1051B000002F22F0010241E80023002BF5D1016B02
:1051C000012909D101680C3151E8002F22F01002A9
:1051D00041E80023002BF5D1202180F84210002166
:1051E0000163704701680C3151E8002F22F0C002C2
:1051F00041E80023002BF5D1202180F841107047B1
:1052000008B590F84210222901D0022008BD82681A
:105210004FF480539A4201D1016921B1816A9A42C7
:105220001BD04AB10AE00268816A5268C2F30802E0
:105230000A80816A891C08E0026972B102685268BA
:1052400002F07F020A70816A491C8162C18D491E89
:105250000904090CC18503D01BE002685268F1E71C
:105260000168CA6822F02002CA600168CA6822F494
:105270008072CA6001684A6922F001024A612021F5
:1052800080F8421000214163026B012A03D0FEF72F
:105290009BF9002008BD016301680C3151E8002F23
:1052A00022F0100241E80023002BF5D101680A68C2
:1052B000D20602D50A6849680091818DFDF73EFF4C
:1052C000E7E7000070B5044600680169E26821F470
:1052D0004051114301612169A068E2690843616995
:1052E000114308432168CA6849F20C639A43024398
:1052F000CA6020684169A26921F44071114341618B
:1053000031492068884202D03049884202D1FCF7F6
:10531000FFFD01E0FCF7ECFDE269002319216425A3
:105320003226B2F5004F626828D0A0FB0101930F2E
:105330009200FAF7A5FF0146B0FBF5F06FF01802F6
:10534000504301EB800006EB0010B0FBF5F000F0DD
:10535000F002B1FBF5F002EB0012B1FBF5F06FF0DB
:105360001803584301EB800006EB0010B0FBF5F08A
:1053700000F00F0021681044886070BDA0FB01019F
:1053800092185B41FAF77CFF0146B0FBF5F0020191
:10539000B1FBF5F06FF01803584301EB800006EB0A
:1053A000C000B0FBF5F000F0F80002EB4002B1FBEA
:1053B000F5F0584301EB800006EBC000B0FBF5F0C0
:1053C00000F00700D6E70000001001400014014083
:1053D00038B581620446828500201346606422222B
:1053E00084F84220E56B1F4AEA63E56B1E4A2A6493
:1053F000E56B1E4AEA64E26B10650A462168E06BC1
:10540000091DFCF747FA30B110206064202084F8B1
:105410004200012038BD2068016840680090206982
:1054200048B120680C3050E8001F41F4807140E81A
:105430000012002AF5D12068143050E8001F41F016
:10544000010140E80012002AF5D12068143050E82C
:10545000001F41F0400140E80012002AF5D1002071
:1054600038BD0000A75000082D5100085D5000080D
:105470002DE9F843984617460D460446089E24E059
:10548000701C22D0FCF7AAFBA0EB0800B0421AD88F
:10549000CEB12068C168490717D5802D15D0402DA1
:1054A00013D00168C94309070FD40168002540687B
:1054B00000902046FFF76FFE0820606484F840509B
:1054C0000120BDE8F8830320FBE72068006835EA87
:1054D000000004D00020B842D2D00020F1E7012023
:1054E000F9E700000148FDF769BE0000BC1D00207F
:1054F000FEE700000FB4054B10B503A9044A02985B
:1055000000F0D4F910BC5DF814FB0000A58A000877
:10551000380100200FB41CB50246002007AC00295A
:105520000BD0491ECDE90021054B6A46214606985D
:1055300000F0BCF9009A002111701CBC5DF814FB4E
:10554000DB5F00080907090E002804DB00F1E020FA
:1055500080F80014704700F00F0000F1E02080F8A0
:10556000141D704710EE100A10B50023A0F50001BD
:10557000B1F1FE4F67D200BF00F500216FF07E024F
:1055800002EBE15CC1F302524FF07E5101EB02519C
:1055900000EE901AA0EBCC5003EB0C0100EE100AC9
:1055A00051EA020036D030EE601A70EE200A9FED0C
:1055B0003D2A3E4881EE200A9FED3B1A60EE000A2C
:1055C00000EE821A60EE201A61EE810A784401EE44
:1055D000101A00EB82009FED362AB8EEC11AD0ED0A
:1055E000001A344841EE021A784401EE101A00EB1A
:1055F0008200B8EEC11A90ED002ADFED2F2A01EEED
:10560000222AB0EE001A72EE200A40EE010A31EEB4
:10561000A00A10BDF7EE000A9FED291A30EE600ACD
:10562000DFED260A00EE201ADFED260A60EE001AF2
:1056300040EE010A9FED241A00EE201A61EE810A65
:1056400030EE200A10BD4FF07F41B1EB400F03D286
:10565000BDE8104000F046B8B0F1FF4F08BF10BDE4
:10566000B5EEC00AF1EE10FA06D2012000F056F8AD
:10567000BDE8104000F03AB8B5EEC00AF1EE10FAFD
:1056800007D1022000F04AF800F022F8B1EE400AFB
:1056900010BDDFED0E0A6FF0160320EE200A10EEAB
:1056A000100A69E766F1CC3EAAAA2A3FF46F03000C
:1056B0000070313FF86F0300F4FD053821ED423EE4
:1056C0000A1180BEC1ABAA3EFFFFFFBE0000004B27
:1056D000DFED030AB7EE001A81EE200A70470000E2
:1056E0000000000030EE000A70470000DFED020A03
:1056F00080EEA00A704700000000000002E008C829
:10570000121F08C1002AFAD170477047002001E03B
:1057100001C1121F002AFBD1704700000149086037
:10572000704700003C0100202DE9FF5F82B000219E
:10573000DDE90430020DDDF840B0034318D044F633
:105740001050A2F2FF3242431514119801281FD0C5
:10575000A5EB0B00401C5FEA000A4FF000064E4F1D
:10576000DFF83891B046504615D5CAF1000413E071
:10577000119801244AA3012801D16FEA0B01029874
:10578000119AC0E90031C0E9024206B0BDE8F09FBD
:10579000CBF10000DFE704460021404A491842EB04
:1057A0000450CDE9001012E0E00707D032463B4636
:1057B00040464946FAF7DBFD8046894632463B467D
:1057C00010461946FAF7D3FD06460F466410002C22
:1057D000EAD1DDE90401DDE90023BAF1000F06DAC0
:1057E000FAF7C5FD42464B46FAF7C1FD05E0FAF768
:1057F000A2FF42464B46FAF79EFF04460E460022A1
:10580000284BFBF71FF803D84FF0FF30014607E0A5
:105810000022254B20463146FAF7E6FEFAF7FAFF5A
:10582000102409E0002C0ADB0A220023FAF728FDE5
:10583000039B30321A55641E50EA0102F2D1641CF7
:10584000039AC4F111031444119A012A03D00122CE
:1058500008430DD10AE0084304D000204FF0110B9B
:10586000119072E7A3EB0B056D1E0DE05B4504DDA7
:105870004FF0000205F1010504E003DA4FF00002E9
:10588000A5F10105002AECD002981199C0E9023176
:10589000C0E9004579E70000000014400000F03F37
:1058A000300000000000F0430000E03F2DE9FF4F12
:1058B00095B09B468946064600250FE2252877D1FC
:1058C00000242746F84A0121059400E0044316F815
:1058D000013F203B01FA03F01042F7D130782A282B
:1058E00011D06FF02F033078A0F13002092A16D8BA
:1058F000059A44F0020402EB820203EB42021044D8
:10590000761C0590EFE759F8042B0592002A03DA7C
:10591000504244F40054059044F00204761C307860
:105920002E2816D116F8010F44F004042A280DD0B1
:105930006FF02F023078A0F13003092B09D807EB64
:10594000870302EB4303C718761CF3E759F8047B7F
:10595000761C30786C280FD006DC4C2817D06828CD
:105960000DD06A2814D104E0742810D07A280FD101
:105970000DE044F400140AE044F4801401E044F41F
:1059800040147278824202D104F58014761C761C91
:10599000307866280BD013DC582877D009DC002833
:1059A00075D04528F6D04628F4D047281AD19DE175
:1059B00018E0632835D0642879D0652812D195E1A4
:1059C000702873D008DC6728F1D069286FD06E2862
:1059D0000DD06F2806D1B5E073282CD0752875D06E
:1059E000782874D05A46179990476D1C75E1C4F316
:1059F0000250022809D003280DD0D9F8001004283D
:105A00000DD00D6009F1040967E1D9F80010EA171B
:105A1000C1E90052F6E7D9F800100D80F2E70D70E9
:105A2000F0E719F8041B8DF8001000208DF8010034
:105A3000EA46012003E059F804AB4FF0FF3061075C
:105A40004FF0000102D40DE008F101018846B9428F
:105A50000FDA8045F8DB1AF808100029F4D108E0C5
:105A600008F1010188468142FADB1AF80810002982
:105A7000F6D105985B46A0EB080721463846179AF1
:105A800000F094FA284400EB080507E04DE029E116
:105A90000DE01AF8010B5A4617999047B8F1010822
:105AA000F7D25B4621463846179A13E142E00A22B4
:105AB0000092C4F302524FF0000A022A08D059F8AB
:105AC00004CB032A4FEAEC710AD00DE029E02AE06A
:105AD00009F1070121F00702F2E802C1914609E04D
